S01300006E65775F626561636F6E5F322E7333373F
S21400000000100020590800005508000055080000A0
S2140000105508000055080000550800005508000067
S2140000205508000055080000550800005508000057
S2140000305508000055080000A104000055080000FF
S2140000405508000055080000550800005508000037
S2140000505508000055080000550800005508000027
S2140000605508000055080000550800005508000017
S21400007045410000550800005508000055080000DE
S21400008055080000550800005508000055080000F7
S21400009055080000550800005508000055080000E7
S2140000A055080000550800005508000055080000D7
S2140000B0550800002D260200550800007D2F02007E
S2140000C0352F0200312F0200F5270200792F02009B
S2140000D0392F0200512F02003D2F0200D52F0200BB
S2140000E0FD0A0200C50C0200BD2F020055080000E4
S2140000F0FD2C0000550800005508000055080000BB
S2140001005508000055080000550800005508000076
S2140001105508000055080000550800005508000066
S2140001205508000055080000550800005508000056
S214000130550800005508000055060000610600003E
S21400014010B5054C237833B9044B13B1044800E0CE
S21400015000BF0123237010BDA8130020000000007C
S214000160A49C020008B5034B1BB10349034800E0FA
S21400017000BF08BD00000000AC130020A49C0200D5
S214000180A3F5803A704700BF174B002B08BF134BF0
S2140001909D46FFF7F5FF00218B460F461348144A8D
S2140001A0121A23F0E2F90E4B002B00D098470D4BA5
S2140001B0002B00D098470020002104000D000D48B9
S2140001C0002802D00C4800E000BF23F063F92000AE
S2140001D0290000F0B9F823F049F900BF0000080034
S2140001E0000000000000000000100020A8130020FF
S2140001F0303300200000000000000000FA22162124
S214000200014823F0B2B900BFC4130020FA2808B58D
S21400021002460B460BD106480821007815F070FA06
S214000220014620B1BDE80840024823F05BBA08BD8D
S214000230001000206046020008B50B783BB901208C
S21400024007F0D2FDBDE80840014823F04BBA08BDD0
S214000250954602007047000010B50368234A23F451
S2140002607F4323F00703934286B03CD10DF10F0184
S21400027004A815F0C5FA1E4815F0F6F910B11D4889
S21400028023F030FA50221A4C00231146207815F03D
S2140002908DFA10B1184823F025FAFA220821174BD8
S2140002A0207815F02DFA10B1154823F01BFA1548E2
S2140002B015F0DAF910B1144823F014FA0023114CA3
S2140002C0009360223021207815F0ECF910B10F4829
S2140002D023F008FA00220421207815F045FA10B120
S2140002E00B4823F0FFF906B010BD00BFA0000100C8
S2140002F000100020A6460200C7460200C4130020D5
S214000300ED460200011000200E4702002A470200B8
S21400031041470200F8B506460D4603F06DFD04465B
S2140003200F4603F069FD031B61EB0701B34271EB57
S2140003300503F6D3F8BD08B580B203F07DFDBDE831
S21400034008400021FFF7E6BF2DE9F047CCB003F0E8
S2140003501DFFFFF753FF012100230422084601F08A
S21400036091FF03F05DFC00234EF660200DA98DF88A
S214000370173003F06DFD07AC0AAD50B9CDE90000AB
S2140003803E4A20460D990DF1170303F004FD0028A0
S2140003906AD095E807008DE80700394894E80E0013
S2140003A023F0A0F9DFF8F080DFF8F09003F0FBFE12
S2140003B00026FFF74FFF03F01FFD022307463446D3
S2140003C0C8F840304FF0000A55460DAB71190020B2
S2140003D0C5F10802194423F071FA0028F5DB0AF18A
S2140003E0010ABAF57A7F054401D0072DEDDD1B2002
S2140003F000210836FFF78EFFF82E2C44E2D10222A9
S21400040000204BA923F05AFA002835DA23F028F802
S2140004100168484623F066F902221A4B0DA91A64B1
S21400042006A8042223F07AF80699174823F05AF90A
S21400043020460DA9FFF7EAFE03F0DEFCC01B03F022
S21400044021FD21460246114823F04CF94620FFF7CD
S21400045072FF03F0D1FCC01B03F014FD21460246D8
S2140004600B4823F03FF9A1E795E807008DE8070061
S214000470084894E80E0093E70444CDE739020000EC
S2140004805E47020000E00340AB470200BB470200A5
S214000490D14702007B47020000D003409F4702007E
S2140004A008F0FAB808B5064807F0CCFE054807F08D
S2140004B0F9FE08F0A2FABDE8084010F0A1BD00BFA2
S2140004C0F4470200EC4702000120704700B5C3B0B5
S2140004D008F022F808F04BF848B1FFF7F5FF30B106
S2140004E001A815F0BBF810B901A8FFF7B5FE43B098
S2140004F05DF804FB00F0FDB808B50321802001F08C
S21400050003F903214FF4806001F0FEF803214FF455
S214000510906001F0F9F808214FF4C06001F0F4F89B
S21400052008214FF4F06001F0EFF808213E2001F0BA
S214000530EBF808212D2001F0E7F8002008BD0000A8
S21400054008B5174B1B68C3F30743012B0ED1154B99
S21400055004205A6E4FF480231349520358BF134A9F
S2140005604B6601F51041086258BF536602F0C6F9A3
S21400057000F0D5F802F042F902F0DEF902F060F978
S21400058002F09CF902F0A0F9FFF7B6FF02F046F978
S21400059000F0B8F800F01AFABDE8084003F018B802
S2140005A00080E00F008000400090004000A0004067
S2140005B0704708B503F034FB02F0C0F900F048F8C5
S2140005C002F0C0FDBDE8084005F006B908B502F027
S2140005D009F9BDE80840FFF765BF00F065B8704749
S2140005E07047FFF773BF704770B5154C98B006ADEF
S2140005F00FCC0FC594E80F0004F1100685E80F0035
S2140006000FCE0EAD0FC50FCE0FC596E803003834DB
S21400061085E8030094E80F0002AD85E80F00094B5B
S2140006202946009308480EAB06AA02F03DFC044695
S21400063018B16021054800F064FA204618B070BD75
S21400064074480200C014002014160020444802001B
S214000650FFF7CABF014B186802F01CBD1416002035
S214000660FFF7F8BF0B4B02461B788BB10A4B1B7883
S214000670834234BF00200120084B1B783BB1084B57
S2140006801B7843FA02F212F0010F08BF00207047F1
S2140006900120F1E702100020031000203C16002085
S2140006A00410002070477047012208B5074B1A70E7
S2140006B00022074B1A700422064B1A701F22064BA4
S2140006C01A7002F029FB054B186008BD02100020C6
S2140006D03C160020031000200410002038160020CE
S2140006E0042208B511460123002001F0CBFD0020AE
S2140006F008BD042208B500231146184601F0C2FDC5
S214000700002008BD08B501213A2000F065FBFFF780
S214000710F1FEFFF7E5FFBDE8084000F011B8012143
S2140007203A2000F059BB00000822014B1A677047B8
S21400073000D003400822014B1A67704700E00340D0
S214000740F0B587B06C463F4D3F4F0FCD0FC495E8D0
S214000750030084E80300012401213A2000F03CFB5A
S2140007600121282000F038FB384B694638460293B2
S2140007708DF80E4001F0ECFE2346042200210220F4
S21400078001F080FD224621460023022001F07AFD7A
S214000790022123460846042201F074FD04220321A8
S2140007A02346022001F06EFD4FF00213284D02266C
S2140007B0C5F83036A3F58033C5F82C361C23C5F8AB
S2140007C034664FF44870C5F81C3603F0F7FC142066
S2140007D0FFF7B0FF03F0F2FC2320FFF7A5FF03F0BE
S2140007E0EDFCB9213846FFF7A5FF01F019FFFFF72A
S2140007F09BFF002330461A46194601F043FD0023AE
S21400080021461A46304601F03DFD23463146304625
S214000810002201F037FD234600220321304601F076
S21400082031FD384601F058FE00212820C5F8301664
S214000830C5F82C16C5F83416C5F81C1600F0CCFA08
S21400084007B0F0BDCC48020000C0054000127A0098
S21400085000C00340FEE7000008B500F013F8064BA2
S214000860064A07498B4201D3FFF78EFC52F8040B69
S21400087043F8040BF6E700BF00100020AC9C020013
S214000880A8130020044B054A9A60D3F8882042F447
S2140008907002C3F88820704700ED00E000000000FA
S2140008A0014B1868704700BF0C100020084B1B6FE8
S2140008B003F00703022B04D0032B05D0012B05D031
S2140008C0FEE7044B18687047034BFBE70348704786
S2140008D0008000400C10002010100020002D310178
S2140008E008B5FFF7E3FF054B1B6FC3F30333013374
S2140008F0B0FBF3F0024B186008BD00BF008000405C
S214000900081000200048704700B4C404014B186863
S214000910704700BF10100020054B1860054B1B6F7A
S21400092003F00703032B01D1FFF7DABF704700BFC0
S21400093010100020008000400020704700487047DC
S214000940002D31014FF4004070474FF47A70704725
S214000950014B1868704700BF141000200023036086
S2140009607047000038B504460D4601B118B9382165
S214000970034800F0C6F823682B60256038BD00BF2A
S214000980E448020038B504460D4601B118B97C218A
S214000990054800F0B6F823681BB1AB4202D12B68BD
S2140009A0236038BD1C46F6E7E448020005490A689D
S2140009B01318054883428CBF4FF0FF320B60104679
S2140009C0704700BF1810002000800020024B1968F6
S2140009D0024B18681BF02AB8201000201C100020BC
S2140009E07047000037B5920004460D46019223F08A
S2140009F02FFE431C0BD060B929462046019A22F0F0
S214000A007DFD0028044808BF002003B030BD034821
S214000A10FBE70348F9E700BF10E000F021E000F034
S214000A2024E000F013B5044601A801F01FFD9DF870
S214000A300630012223804FF4807300206380054B2C
S214000A409B680A3303F01F0302FA03F3636002B0E5
S214000A5010BD00BF0080E00F01F07ABC08B501F0C1
S214000A6067FC002008BD10B5044644EA010313F0F5
S214000A700303084609D1934201D1002010BD54F863
S214000A80231040F823100133F5E72146920022F0A8
S214000A9045FDF2E710B5044623F0D2FD431C15D001
S214000AA0B0B90C4B20469B680A3303F01F020123A3
S214000AB0934023F003032344984201D1002010BD45
S214000AC050F8042B0132F7D00348F8E70348F6E75E
S214000AD00348F4E70080E00F0EE000F021E000F0AD
S214000AE024E000F008B500F0F1FF014B186008BDE7
S214000AF0D01C0020014B186800F0ECBFD01C002072
S214000B007047FEE74FF04023D3F88420D206FBD48C
S214000B10D3F88400C0F381107047000038B5124B3C
S214000B200546D3F820310C4603F00303022B0BD006
S214000B30032B0DD0012B0FD1FFF7B2FE052305B115
S214000B40286004B1237038BDFFF7E0FE0323F6E704
S214000B50FFF7F4FE0223F2E7044840F67B61FFF756
S214000B60D0FF00231846EAE70080004080490200D4
S214000B70F7B50024114B0194D3F88051074605F0D1
S214000B800305012D0E4607D0022D11D040F6B67192
S214000B900B48FFF7B6FF04E0214601A8FFF7BEFFAB
S214000BA00F240FB1019B3B6006B1347003B0F0BD5B
S214000BB0FFF7C4FE2C460190F3E700BF008000401C
S214000BC08049020038B5194B0546D3F824310C4647
S214000BD003F00703013B052B20D8DFE803F0030FE3
S214000BE0171B0B13FFF75CFE052305B1286004B145
S214000BF0237038BDFFF754FE0623F6E7FFF786FEA0
S214000C000323F2E7FFF782FE0423EEE7FFF796FEE4
S214000C100223EAE7FFF790FE0723E6E7044840F2E0
S214000C201621FFF76EFF00231846DEE7008000401F
S214000C308049020038B5124B0546D3F840310C46C1
S214000C4003F00303022B0BD0032B0DD0012B0FD187
S214000C50FFF778FE092305B1286004B1237038BD7C
S214000C60FFF776FE0823F6E7FFF76FFE0B23F2E7A3
S214000C70044840F6A961FFF744FF00231846EAE758
S214000C80008000408049020038B5154B0546D3F871
S214000C9000320C4603F00703013B032B18D8DFE8AD
S214000CA003F0020A0E12FFF74DFE092305B1286075
S214000CB004B1237038BDFFF74BFE0823F6E7FFF7B5
S214000CC044FE0B23F2E7FFF70BFE0E23800AEDE748
S214000CD0044841F26B01FFF714FF00231846E5E7CE
S214000CE0008000408049020038B5124B0546D3F814
S214000CF040320C4603F00303022B0BD0032B0DD01F
S214000D00012B0FD1FFF71EFE092305B1286004B1A1
S214000D10237038BDFFF71CFE0823F6E7FFF715FE25
S214000D200B23F2E7044840F6FE71FFF7EAFE0023C5
S214000D301846EAE7008000408049020038B5124BAA
S214000D400546D3F860310C4603F00303022B0BD0A4
S214000D50032B0DD0012B0FD1FFF7F4FD092305B1AE
S214000D60286004B1237038BDFFF7F2FD0823F6E7CC
S214000D70FFF7EBFD0B23F2E7044840F6F661FFF7BA
S214000D80C0FE00231846EAE70080004080490200C3
S214000D9010B40F4C0B46D4F8204204F00304012C88
S214000DA00ED0022C10D008B1002101600BB1002239
S214000DB01A704FF4107107485DF8044BFFF7A1BE98
S214000DC05DF8044BFFF7AABE5DF8044BFFF732BF91
S214000DD0008000408049020070B5460904460D4672
S214000DE00FD140F205110D48FFF78BFE334604F095
S214000DF01F0485B103F58053012000FA04F41C603B
S214000E0070BD012E05D0064B064A022E18BF1346AB
S214000E10EDE7054BEBE703F50053EDE780490200ED
S214000E20688000406082004064800040B0F5207F0B
S214000E3010B534D009D8B0F5007F2AD003D898B1C1
S214000E40B0F5C07F10D0002421E0B0F5607FFAD165
S214000E50154BD3F88030C3F301149B0617D5032C2B
S214000E6015D04FF4CE610FE00F4B1C6F230B13F021
S214000E700E0FC4F303340AD0032C08D0072C06D078
S214000E800F2C04D04FF4CC610848FFF73AFE601CE4
S214000E9010BD054BD3F89040C4F30464F7E7024B4B
S214000EA01C6FC4F38024F2E70080004080490200F3
S214000EB0002330B5802885B00446029375D02BD821
S214000EC0002878D0A0F12004A3B2412B32D8412CC0
S214000ED030D8DFE804F07073707386868686737386
S214000EE0903FA7653F7373732F2F2F2F2F2F8B578E
S214000EF0737373B1AC732F2F2F2F2F2F2F2F2F2FEE
S214000F002F2F2F702F707070862F2F2F2F2F2F2F91
S214000F102F2F2F2F2F2F7070B0F5806F61D024D811
S214000F20B0F5007F54D00BD8B0F5807F68D0B0F510
S214000F30C07F40D040F2DB114248FFF7E2FD37E0C9
S214000F40B0F5607F44D0F5D8B0F5207F36D0B0F548
S214000F50407FEFD1FFF7C4FC04464FF42070FFF744
S214000F6065FFB4FBF0F0400821E0B0F5C06F59D043
S214000F700DD8B0F5A06F39D0B0F5B06F3BD0B0F556
S214000F80906FD7D1002102A8FFF71CFE10E0B0F545
S214000F90E06F4CD0B0F5F06F4ED0B0F5D06FC9D141
S214000FA0002102A8FFF770FE02E0FFF77FFC029028
S214000FB0029805B030BDFFF793FCF8E7FFF790FC0A
S214000FC004464FF42070FFF731FFB4FBF0F0EEE775
S214000FD0FFF76CFC05462046FFF728FFB5FBF0F050
S214000FE0E5E7002102A8FFF799FDE1E7002102A846
S214000FF0FFF7CEFEDCE7002102A8FFF7B9FDD7E732
S21400100003934FF0E0231B695B0705D5FFF768FCE9
S2140010100390039B0293CBE70DF1070103A8FFF7AC
S21400102009FEF6E7002102A8FFF704FEC0E700214C
S21400103002A8FFF759FEBBE7002102A8FFF77EFED5
S214001040B6E700BF8049020008B58020FFF730FFF2
S214001050034B98429EBF4FF48032024B1A6708BD7E
S214001060005A620200A000404FF400320F4B70B5E9
S2140010709A66064600200D46FFF7D8FE41F6713206
S2140010800B4B7043DC690B49DA639A68884204F4B8
S214001090803422F4401203D9012D18BF42F4801286
S2140010A09A600CB10022DA6370BD00BF0090004069
S2140010B000000340005A620208B5FFF723FCBDE8B3
S2140010C008400021FFF7D0BF002307B5B0F5807FAA
S2140010D08DF8023000F0888028D8382800F0A880E4
S2140010E00CD8243883B2092B10D809280ED8DFE88C
S2140010F000F0757575750D0D6B0D378F52286DD018
S21400110007D83D283CD03E2800F0988040F2A371D6
S21400111056E08028FAD14C4B1B6F03F00703013BC7
S214001120032B4BD8DFE803F048444280B0F5D06F7D
S2140011306ED01BD8B0F5A06F7AD00BD8B0F5806F04
S2140011404CD0B0F5906FE1D100200DF10201FFF711
S21400115039FD3EE0B0F5B06F36D0B0F5C06FD5D1F2
S21400116000200DF10201FFF765FD32E0B0F5006FDB
S214001170EAD00BD8B0F5E06F60D0B0F5F06FC5D10F
S21400118000200DF10201FFF7D9FD22E0B0F5086F4F
S214001190BCD12D4BD3F8003103F00303022B3DD016
S2140011A0032B3FD0012B41D1FFF7B0FB032300E018
S2140011B005238DF802300CE00223FAE740F20B71AB
S2140011C02248FFF79EFC04E000200DF10201FFF725
S2140011D0CFFC9DF8020003B05DF804FB00200DF183
S2140011E00201FFF79BFCF4E701934FF0E0231B6935
S2140011F05B0707D5FFF774FB0C238DF803309DF8CB
S2140012000330D6E70DF1030101A8FFF713FDF6E75B
S21400121000200DF10201FFF737FDDAE7FFF798FB34
S2140012200823C6E7FFF788FB0723C2E70123C0E7CA
S21400123000200DF10201FFF7ABFDCAE700200DF11B
S2140012400201FFF751FDC4E700800040804902001C
S21400125008B5FFF739FF082812D00938C0B20128B0
S21400126011D84FF40012094B4FF6FF705A6603F57B
S214001270D8335B6A13F0010F18BF4FF4FA7008BD3D
S214001280034B1888FBE74FF6FF70F8E70090004026
S2140012904010002070B5037804460F2B04D940F6A2
S2140012A001416B48FFF72DFC63780F2B04D940F6FD
S2140012B004416748FFF725FCA3780F2B04D940F6B6
S2140012C007416348FFF71DFCE3780F2B04D940F66F
S2140012D00A415F48FFF715FC23790F2B04D940F627
S2140012E00D415B48FFF70DFC63793F2B04D94FF4A3
S2140012F041615748FFF705FCA3793F2B04D940F618
S21400130013415348FFF7FDFBE379032B04D940F65E
S21400131016414F48FFF7F5FB237A032B04D940F616
S21400132019414B48FFF7EDFB637B012B04D940F6D0
S2140013301C414748FFF7E5FB8020FFF7C5FE032862
S2140013407CD04FF40022434B43495A6645F60E03C1
S2140013500222C1F88030414B9A62012203F5805385
S2140013609A628A6D12F48032FBD1637820781B056E
S21400137043EA0063A079257C0343E078667C43EA71
S2140013800043207943EA0033607943EA80130B6117
S2140013908B69E07A03F000430343E07943EA806315
S2140013A0207A43EA0063607A43EA0043A07A43EA7D
S2140013B000238B61637B096A002B18BF0822207B01
S2140013C021F00D0143EA010343EA800342EA0302E7
S2140013D0214B1A62A27B4FEA421230D1986AE17B17
S2140013E020F0330042EA0112024342F001029A6200
S2140013F01B4A996D32EA0101FBD1022217498A6223
S2140014001A659A6D5200FCD41869A27820F4700010
S21400141040EA02504FF000421861104B9A611DB925
S214001420022203F580539A6216B901220D4B9A6286
S214001430A37C1BB1084B0C4AC3F8802070BD996A88
S21400144021F0330131430A4342EA4502EFE700BF89
S214001450804902000090004000C0004000D00040DC
S2140014600300014000E00040F1A7FFFF014B93F9A5
S21400147000007047841D002010B583780446072BB3
S21400148004D940F6E9412A48FFF73BFBE378032BF3
S21400149004D940F6EB412648FFF733FB2378032BAD
S2140014A004D940F6ED412248FFF72BFB94F90130B2
S2140014B0002B04DA40F6EF411D48FFF722FB4FF4FD
S2140014C080011C4A637851664FF4D151022002F520
S2140014D0B832516218494F2B48604FF0010028BFC0
S2140014E04F2301F5805148601169C903FCD4217867
S2140014F043EA01235361E378A1781B0143EA012301
S21400150061790B43217943EA41039360E379A1793A
S2140015101B0143EA4113617A0B43217A43EA4103F4
S2140015205360A37A13B16FF4D153536210BD00BF5A
S214001530804902000090004000100240014B1880D5
S214001540704700BF401000204FF4001208B5184B3B
S2140015505A660223174A5360936813F48033FBD10C
S214001560012822D1FFF7D2F9134B984215D003F584
S214001570122303F5F863984213D0104B00EB800259
S214001580400AB3FBF0F0520A0A4BDA6201221863F3
S2140015905A620022074B5A6008BD45F67A10084A80
S2140015A0F2E745F61A00074AEEE75362F1E700BF96
S2140015B0009000400040024000F049026466666603
S2140015C0D8B80500BBCF05000029CCBF01210021FB
S2140015D0FFF74ABDB0F5207F10B565D00ED8B0F540
S2140015E0007F4FD003D800B3B0F5C07F1DD040F2C7
S2140015F0E161BDE810403448FFF783BAB0F5607F7C
S214001600F5D14C1E012C06D9042904D040F2C7613E
S2140016102D48FFF776FA2D4AD2F8803023F03003B3
S21400162043EA0413C2F8803010BD102901F1FF34DC
S21400163004D8274B23FA01F1CB0704D440F29E616D
S2140016402148FFF75EFAFFF737FD00F045F84FF444
S2140016508031204B1D4A1967136F23F4704343EA09
S21400166004331367FFF73CF90446FFF74BFAC0F163
S21400167002012046FFF7A8FF00F034F8BDE810404E
S214001680FFF7E2BC4C1E1F2C04D940F2D5610E4871
S214001690FFF737FA0D4BD3F8901021F0F85141EAD6
S2140016A00461C3F89010BFE74C1E012C04D940F229
S2140016B0DB610548FFF725FA044B196F21F48061BA
S2140016C041EA84211967AFE78049020000800040A4
S2140016D0160101000090004002214FF42070FFF731
S2140016E079BF000008B54FF4C070FFF7E1FBBDE816
S2140016F00840044988428CBF022101214FF4207023
S214001700FFF768BF80F0FA02B0F5807F70B50C4630
S21400171000F00C812CD8382800F0A48111D8243889
S21400172083B2092B16D8092814D8DFE810F0E40095
S214001730E400E400E40013001300CF0013004900A7
S2140017405301522800F0D78007D83D2853D03E28B2
S21400175000F09F8140F6662122E18028FAD18B1E98
S214001760052B00F2A880DFE803F0A394A6AEA667D8
S214001770B0F5D06F00F02E8132D8B0F5A06F00F033
S214001780718116D8B0F5806F00F0B580B0F5906F17
S214001790E0D1023CE4B2052C00F21581A84B195D9D
S2140017A0A84AD2F8243123F007030B43C2F82431A9
S2140017B06EE0B0F5B06F00F08980B0F5C06FC9D1AB
S2140017C0083CE4B2032C00F2F0809F4B195D9D4A62
S2140017D0D2F8403123F003030B43C2F8403157E000
S2140017E0B0F5006FD5D016D8B0F5E06F00F0518197
S2140017F0B0F5F06FAED1083CE4B2032C00F2DC800A
S214001800924B195D8F4AD2F8603123F003030B43E5
S214001810C2F860313CE0B0F5086F9BD14C1E072C37
S21400182000F20481DFE814F0070102010901020159
S214001830020102010001F600002504260121022013
S21400184000F096F9FFF738FCFFF746FF4FF48031BB
S2140018507F4B7C4A1967136F23F0070333431367E4
S214001860FFF73EF80646FFF74DF9C0F10201304695
S214001870FFF7AAFE0121002000F0D2F9FFF732FFA1
S214001880FFF7E2FB25B9032C02D10122714B9A62C5
S21400189070BD4FF400226E4B03265A66012203F5F4
S2140018A040539D6A03F58053C5F340059A62C5E729
S2140018B000250126C2E7002540F2DD716648FFF7E5
S2140018C020F92E46BAE700250226B7E7022C07D0F5
S2140018D00F2C0ED040F621015F48FFF712F90024C6
S2140018E0584AD2F8803123F003031C43C2F88041E3
S2140018F0CEE70124F4E7032C12D0052C12D0022CDC
S21400190012D040F652015448FFF7FBF800224D492A
S214001910D1F8203123F003031343C1F82031B7E791
S2140019200222F4E70122F2E70322F0E7A1F108041D
S214001930082C33D8DFE804F0050532051C323232B5
S21400194005004FF480323F4B4449586E03F58053F0
S2140019505A660B6A43F001030B62C1035CBF404B3F
S2140019605A664FF0E022136923F0040313618FE7F1
S2140019704FF48032334B3949586E03F580535A661C
S2140019800B6A23F001030B62C3035CBF344B5A6639
S2140019904FF0E022136943F00403E7E740F67A01CC
S2140019A0BDE870402C48FFF7ACB840F695012A48D1
S2140019B0FFF7A7F800210AE74FF40B612648FFF768
S2140019C0A0F800211EE740F6D5012348FFF799F856
S2140019D00021E5E6083C062C13D8DFE804F00419DD
S2140019E0190E1212100002221649D1F8003223F006
S2140019F007031343C1F800324AE70322F4E7042240
S214001A00F2E740F6F5011448FFF77BF80022EBE713
S214001A100122E9E702220B49D1F8003123F0030343
S214001A201343C1F8003133E70322F4E740F63111DF
S214001A300948FFF766F80022EDE70122EBE700BF52
S214001A40F949020000800040F5490200F54902000D
S214001A500090004000E000408049020000C00740BF
S214001A6000A000400F2C10D0102C10D040F676119D
S214001A701348FFF746F800221249D1F8203223F027
S214001A8003031343C1F8203202E70122F4E70222DF
S214001A90F2E7083CE4B2032C0AD80B4B195D094A5E
S214001AA0D2F8403223F003030B43C2F84032EFE68D
S214001AB040F6CA110248FFF724F80021EFE700BFFE
S214001AC08049020000800040F5490200EFF31080D4
S214001AD072B6704700B962B67047EFF311803023D4
S214001AE083F31188704780F311887047194B10B53F
S214001AF01B6873B3184A5268012A2AD0174A8020F6
S214001B00C2F80031FFF7E0FA05281FD14FF4C07085
S214001B10FFF78CF90128044604D102214FF4C07067
S214001B20FFF758FD07220E4B1A610122A3F58053DA
S214001B305A60094A1369DB07FCD5012C09D12146F6
S214001B40BDE810404FF4C070FFF744BD0122054BBE
S214001B505A6010BD881D002000C001400080004073
S214001B6000E0014000D001407047FFF7BFBF000013
S214001B702DE9F0414FF040230446D3F88420D006E8
S214001B80FBD4D3F88430C3F381139C423FD0FEF7D6
S214001B908DFE012C05460BD11E4B984204D940F20F
S214001BA016611D48FEF7ADFF01212846FFF70CFD24
S214001BB0FFF78CFF4FF00072184B07465A66204618
S214001BC0FFF7D2FF4FF480634FF04026621E93402B
S214001BD0DFF844803367736E9A0103D4D6F88430F6
S214001BE09B060AD53846FFF775FF022C0FD128460C
S214001BF0BDE8F0410021FFF7E7BCD6F8843099062F
S214001C00E9D540F224614046FEF77BFFE3E7BDE8F6
S214001C10F08100BF005A6202FF49020000600040E7
S214001C2007B518B90191FEF741FE0199064B1B78DE
S214001C3043B1064B984205D8012003B05DF804EB8B
S214001C40FFF796BF0220F8E78C1D0020005A6202BC
S214001C500278034B012100201A70FFF7E1BF00BF96
S214001C608C1D00204FF04022536F417823F44073C0
S214001C7043EA0123536770474FF04022D36E017941
S214001C8023F030030B43D366704700004FF000424A
S214001C9010B501244AF6CD31144B5A66144A03F5A2
S214001CA00B2354605A6C1964224078B9996811F075
S214001CB0010F104903D08C60D86AC007FCD50123F9
S214001CC04B6012B10C4B0D4A1A6410BDD96A090755
S214001CD0FCD42021074B59620121A3F5805399605B
S214001CE005494B6A9B06FCD5EBE700BF0090004019
S214001CF00050094000600940004009403254FFFF90
S214001D004FF0004238B5184B184C5A66012203F5BE
S214001D100C235A604AF6CD33656C2364437815402D
S214001D20934013434FF04022D363A368827823F096
S214001D30740343EA0213C278002A14BF0422002266
S214001D401343A3600279837943EA0223236142792D
S214001D50C37943EA022363610078FFF797FF0DB16A
S214001D60034B2364012038BD00900040004009402A
S214001D703254FFFFC36C0B42FCD1704708B5436872
S214001D800246DB0714D50A2350210363FFF7F2FF50
S214001D90136C9907FCD1936A012110469362FFF7F2
S214001DA0E9FF136C1B0604D4012302F500525360AE
S214001DB008BD536BF5E7000010B50446FFF7DEFFDD
S214001DC0002341F202020849E360A360226104F5A1
S214001DD00052E3616361A36123626362E362A3640A
S214001DE05164A36210BD00BF7F370C0138B5154B98
S214001DF0044698420D4604D040F251111248FEF7B0
S214001E0080FE25B92046BDE83840FFF7B7BF01225F
S214001E1004F580535A6040F2FF71204605F00F0229
S214001E20FFF7A8FF22637821FFF7A4FF05F0010360
S214001E306A0748BF43F00203226C02F003029A428C
S214001E40FAD138BD0000034A744A0200036C1B0630
S214001E50FCD5406BC0B27047036C5B06FCD5C16313
S214001E6070470000F8B506460C46174622B940F201
S214001E70F5114148FEF745FE404B9E4278D040F2B1
S214001E80FF113D48FEF73DFE44B93B4840F22B317A
S214001E90FEF737FE2046FFF70BF804467368012B63
S214001EA004D040F22D213448FEF72BFEB16801F035
S214001EB0E001402946D009D8B9B1202938D04FF4DE
S214001EC01A71BDE8F8402C48FEF71BBE602945D0C5
S214001ED08029F4D107EB4703A34204D940F26221DC
S214001EE02548FEF70EFE012308E0B7EB141F04D9C1
S214001EF040F24E212048FEF704FE10237B43640187
S214001F00B4FBF3F31E4D203BB5EBC30F4FEAC304FF
S214001F1004D240F273211848FEF7F3FD30462C40F9
S214001F200121FFF727FFB462BDE8F840FFF722BFA4
S214001F30B7EBD40F04D940F253210F48FEF7E1FD6A
S214001F400823DBE70625B4FBF5F3BB4204D24FF4C7
S214001F5016710948FEF7D5FD2B46CFE7B7EB940F71
S214001F6004D940F25D210448FEF7CBFD0423C5E703
S214001F70002C93D138208EE7744A02000000034AF2
S214001F80F8FF7F00436870B504460D4616461BB141
S214001F9040F2FF71FFF7EEFE2046FFF70DFFE989DE
S214001FA06B7B22690B43298A22F44C520B4322F0A6
S214001FB0030213432361A2682B7B297E22F0804212
S214001FC022F0E2020B4313436A691343A360AB6833
S214001FD01BB9A36843F00043A360EB69002B52D003
S214001FE0A268197A42EA8152A260A268997A42EA05
S214001FF04142A2609A88A16802F4C0420A43A260E5
S214002000A268597842EA8102A260A268597B42EA35
S214002010C102A260A268997B42EA0112A260A2688D
S214002020997842EA8122A260DA799979520242EAE4
S2140020308122E2601A7802F0FD01012908BFE168FA
S214002040A2F1020204BF41F00401E160012A4FF050
S214002050010294BF20492149C1F8C0205A7A04F5EC
S21400206080510A621AB1E26842F40062E260DA7AEB
S2140020704AB1E26842F40042E2601B7B184A03F071
S2140020800F03C2F8803036B196F8203004F5805140
S214002090ABB101238B6105212046FFF7A7FEAA6896
S2140020A01AB120466968FFF7DDFE20462978FFF75B
S2140020B09DFE236CDB4313F4405FFAD170BD62696A
S2140020C096F8223096F8210022F0090203431343C3
S2140020D043F001034B61DEE700D4034000E4034015
S2140020E00090034038B5294B054698420C463AD036
S2140020F08A212748FEF705FD002C35D09D2124486F
S214002100FEF7FFFC637B032B03D9A1212048FEF7D3
S214002110F8FC237B802B03D0A3211D48FEF7F1FC9F
S2140021206369B3F1804F03D0A5211948FEF7E9FC97
S214002130238A23F400539BB2B3F5805F03D0A72114
S2140021401348FEF7DEFCA368013BB3F5165F03D326
S214002150A9210F48FEF7D5FC21462846BDE83840A1
S2140021600022FFF70FBF31B98C210948FEF7C9FCE2
S214002170064B9D42C2D13820FEF7A6FF0B28C1D0E1
S214002180A0F10803DBB2012BBCD9B7E70000034A75
S214002190744A020038B5114B054698420C4603D0E7
S2140021A070210F48FEF7ADFC1CB972210C48FEF7F3
S2140021B0A8FC237B802B03D176210948FEF7A1FCDF
S2140021C0637B032B03D979210548FEF79AFC214649
S2140021D02846BDE838400022FFF7D4BE0000034A78
S2140021E0744A020038B50D460446D8B101281BD003
S2140021F002281BD0032803D10346EB40DB0704D498
S21400220040F213410A48FEF77CFC3020012141F2DF
S2140022101003444304F1804401FA05F504F57034D4
S214002220E55038BD7F23E8E70723E6E73F23E4E7EA
S214002230EC4A020038B50D460446D8B101281BD03A
S21400224002281BD0032803D10346EB40DB0704D447
S2140022504FF479710A48FEF754FC3020012142F20F
S2140022601003444304F1804401FA05F504F5703484
S214002270E55038BD7F23E8E70723E6E73F23E4E79A
S214002280EC4A02002DE9F0410D4616461F468046F0
S21400229078B301282FD002282FD0032803D1034675
S2140022A0EB40DB0704D440F21D112048FEF729FC62
S2140022B026B12946404617B3FFF794FF302404FBA7
S2140022C008F4072D04F1804404F570341AD80F2161
S2140022D06368AA00914023EA010306FA02F2134358
S2140022E0636006BB29464046CFB1BDE8F041FFF724
S2140022F079BF7F23D4E70723D2E73F23D0E7FFF752
S21400230099FFDBE70F21A5F10803E2689B009940DF
S21400231022EA010206FA03F31343E360E1E7BDE8AD
S214002320F041FFF787BFBDE8F08100BF634B0200B6
S2140023304FF40032054B9A6641F6713203F51C33B2
S214002340DA63012203F50053DA607047009000401C
S21400235041F671320121064BDA6303F50052D16073
S2140023600022DA634FF40032A3F518339A667047FA
S214002370000003404FF090435A6812B19A6A002A50
S214002380FAD17047022838B505460C4603D94C21C9
S2140023900C48FEF7B6FBE378627821785B0143EAE7
S2140023A0820322790B4343EA02130C226A4302F1AA
S2140023B090421363012902BFA278034B43F82520FD
S2140023C038BD00BF4E4C0200E880034008B54FF011
S2140023D090435A6802B960B15B680BB1FFF7CAFF59
S2140023E04FF0904130B10120074B5860FFF7C2FF15
S2140023F0C86008BDFFF7BEFF0223CB60FFF7BAFF39
S2140024000122024B5A60F4E7001000480020004802
S2140024104FF090435B6870B50BB1FFF7ABFF01213F
S214002420104B4578596083780679002BC37814BF23
S21400243002240024002B14BF042200224379DB0070
S21400244043EA06132B43234313434FF09042936013
S214002450054B59600378002B14BF0B460223D3604C
S21400246070BD00BF00200048001000484FF48032C6
S214002470064B5A6603F5E6235B69C3F38512827042
S21400248003F03F021B0B4270037070470090004041
S21400249070B506460C46154622B94FF422710C4814
S2140024A0FEF72FFB24B94FF42070FEF701FD04461B
S2140024B06D00013CB4FBF5F4064B250213EA042339
S2140024C004D040F2A5210248FEF71BFBF56170BD63
S2140024D0C44C0200070080FF194B10B59842044612
S2140024E008D003F58043984204D040F22E411548A8
S2140024F0FEF707FB012204F580535A6040F6AA63F4
S21400250041F20502636100230F49A360E365E260C0
S21400251004F500522361E361E36491640849A3650E
S2140025208C4202D00948844207D18C42236502D0EF
S214002530064B9C4201D1002363650123536010BD06
S21400254000C00540C44C0200FFFF0100000006402A
S21400255038B5304B044698420D4608D003F5804304
S214002560984204D04FF456712B48FEF7CAFA20461C
S214002570FFF7B2FF0122A97B04F580535A602A8A2E
S214002580A368002914BF4FF48061002142F00102C5
S21400259013432A7D0B43002A14BF4FF0005200223B
S2140025A0A360A3681343A360AB7C5BB1194AEB7CC2
S2140025B0944227D1A2F51032C2F88C31E36D43F075
S2140025C08003E3652B7B2046D5E9011243F4805354
S2140025D0E360FFF75DFF6B7B0BB1102363616B7DE0
S2140025E01BB1A36843F48033A360AB7DEA7D1B0771
S2140025F0120503F0E04302F4E0021343A3652B78D0
S214002600636138BD054A944204BFA2F52032C2F881
S2140026109C31D3E700C00540C44C020000000640D1
S21400262083695A06FCD5C16383699B06FCD5406A5C
S214002630C0B2704738B50446054D1AF01FFB0FCCE4
S2140026400FC594E8030085E80300002038BD00BFEE
S214002650901D002047F6FF739A42F0B55ED002291F
S2140026605ED8304ECF0016F8313006EBC100012B95
S21400267085780DD1C3785B1B23B1416831F91310FF
S214002680914202DCE818C0B2F0BD013B1BB2F3E792
S21400269040680028F8D0B0F90030934204DBB0F967
S2140026A002309342B8BF134682883E44FF2A19BFC1
S2140026B0C8242821B0F90640B0F90810A4EB03049A
S2140026C00CBF0122002294FBF1F47678224414B267
S2140026D0721EA242A8BF22464FF47A7700EBC204CD
S2140026E0E188A468013213FB014112B221EAE171CC
S2140026F001F5FA71B242B1FBF7F104DA00EBC2045D
S214002700A4888C42EAD200EBC20232F8040C88425B
S21400271028BF0846A84238BF2846B4E7FF20B3E7DC
S2140027200020B1E7901D00200229F0B554D82B48B0
S21400273000EBC10310F831105C6801290FD19878BE
S214002740D978914294BFC0EB0103C0EB0203091A8B
S214002750DBB28B42C8BF002334F91300F0BD002C57
S2140027603AD09978914202D3B4F90200F6E7D978C4
S214002770B4F900009142F1D9A1885B78FF294FF0A7
S214002780000114BF03F1FF33023BDBB2251D04F149
S2140027900C071FFA82FCCEB2B34216D805EBC10175
S2140027A04FF47A756A43B1F902304968521A03EB5E
S2140027B0D37102EB610292FBF3F29042CEDBB4F9E6
S2140027C002009042CADC10B2C8E737F831E04E1C6F
S2140027D0E645E3D33146DEE70148BFE7901D00201B
S2140027E00080FFFF08B50448FFF724FFBDE8084057
S2140027F001201AF045BA00BF3C4D020007B56B46F3
S214002800054A1068516803C36846FFF779FA002046
S21400281003B05DF804FB00BFC04D02004FF040223D
S21400282013B50024536F684643F0010353670094C2
S2140028308DF80440FFF720FA204602B010BD0000D5
S21400284070B586B001AA1546184B03F1100614465B
S21400285018685968083303C4B3422246F7D119886A
S2140028609B782180A370124BD3F84C21120314D40A
S214002870D3F85041E4B28DF80E40FEF7F7FD204441
S21400288080F308008DF80D000A48FEF745F8284644
S214002890FEF700FD002006B070BD074B1C884FF603
S2140028A0FF739C4208BF7824E5E700BFC84D0200CE
S2140028B00080E00F00F049020001E00F08B501209B
S2140028C0FEF742FE002008BD1FB50B4A01AB10689C
S2140028D0516803C31189927A19809A70252301A83A
S2140028E08DF80530FEF7C8FD6420FEF727FE0020B1
S2140028F005B05DF804FB00BFDB4D02006FF004027C
S214002900502110B50A480B4C12F0800FD3B21BBFF3
S21400291003F00F03043BA3181B1802F101020CBFBF
S21400292083F800131976402AEED1002010BD00BFB0
S21400293000ED00E000E100E000F07EB838B501F000
S2140029406FF90446E0B901F071FA4FF41673434389
S2140029500C4803F5742303F23F23B3FBF0F30A4A53
S2140029600A4913600A220D680948013A12F0FF026C
S21400297040F8043BF9D103EBC3022B4413440B602D
S214002980204638BD40420F00E41D0020B01D002048
S214002990B41D002085210148FEF7B3B8E64D0200BD
S2140029A0012208B5034B1A7001F019FA024B1860A1
S2140029B008BD00BFAC1D0020E01D0020F8B5144C7B
S2140029C0237823B301F00BFA124B134D1B68134EFA
S2140029D0C01A012838BF0120114B124F18602B78FF
S2140029E056F8232046F82300111A3A680E48521A61
S2140029F00A213A600932B2FBF1F20133DBB202601F
S214002A00B3FBF1F201FB12332B7000232370F8BDE9
S214002A10AC1D0020E01D0020DC1D0020B41D0020A1
S214002A20A81D0020B01D0020E41D0020014B1868E2
S214002A30704700BFE41D002020234FF400220A49FF
S214002A4081F82C33094B5A66094A03F5A0404267C1
S214002A5002674FF4805003F540530344C1F88401E5
S214002A6048605A67704700BF00E100E000900040F1
S214002A70010000A0054B064A1B78916DC90700D5DA
S214002A8013B10028F9D1704701207047FC1D0020C3
S214002A9000C000402DE9F843894B1E6F9D6A9C6A72
S214002AA0F00705F0020504F001044CD5012785491E
S214002AB0854A91F80090DFF834821767B9F1000F65
S214002AC000F0F0800020087098F80010B94200F27C
S214002AD0E48002219762A2F5805291629A6DD1033A
S214002AE0FCD47A495A6B096822F470620A435A6326
S214002AF07748784A99690068126821F47F01024392
S214002B0021F47F410A439A617348744A196912682E
S214002B10006821F47F6121F00F0102430A431A6125
S214002B206F499A69096822F0FF020A439A610223F4
S214002B30002D40F0AE80644A93620123002C00F022
S214002B40AA80684A936216F0005200F082805E4BBC
S214002B505C4F1A673B7823B140F215116248FDF7C7
S214002B60D0FF4FF0010C614A5849137887F800C02F
S214002B7063441370524B564F5A6BDFF864E102F40D
S214002B80706008609869534900F47F40086099694E
S214002B9001F47F0139609F69FFB2CEF800701F69AB
S214002BA0DFF838E107F47C67CEF800701F69DFF8BD
S214002BB028E107F03F07CEF800704FF0020E424FB4
S214002BC0C7F828C0DFF81CC1CCF828E04FF0004E4C
S214002BD0CCF828E0D3F858C01CF4803FFAD14FF068
S214002BE0004C22F4706242F40072B0F5C84FC7F889
S214002BF028C05A6302D8B1F5C80F0CD9304A3C49F0
S214002C009369096823F47F0323F47F4343EA01238F
S214002C1043EA014393612A4A36491369096823F453
S214002C207F6323F00F03880843EA910343EA801387
S214002C301361936923F0FF030B4393610223002D76
S214002C4037D102F5005293620123002C33D0254A77
S214002C509362002E1BDA4FF000421B4B18491A678E
S214002C60254A12789AB101229A620222A3F580536D
S214002C709A628A6DD203FCD44FF000429A61022217
S214002C8005B9114B9A620123BCB1164A9362BDE89E
S214002C90F883144A50E70C4A54E7FFF77BFE164BBE
S214002CA01F7050E7FFF78AFE00F0CEFD88F8009010
S214002CB049E70C4AC7E7044ACAE7034AE6E700BF03
S214002CC000C00040FC1D002000E00040001E002068
S214002CD0F81D0020F41D0020F01D0020EC1D002033
S214002CE0E81D002000D00040734E0200FD1D0020AD
S214002CF04810002044100020FE1D0020FFF7CABE2A
S214002D0010B50446FEF7E2FE024B1C60FEF7E2FE3C
S214002D10002010BD041E002010B5FEF7D7FE034BA2
S214002D201C68FEF7D7FE204610BD00BF041E00201C
S214002D3007B530B9CDE90012FFF7EEFFDDE9001266
S214002D4030B1436823B1006803B05DF804EB184760
S214002D50232003B05DF804FB30B51C4685B058B997
S214002D60CDE90012FFF7D8FFDDE9001204B903AC85
S214002D7020B9232005B030BD03B903AC8568002D0B
S214002D80F7D023460068A847F4E70EB477B507AB3C
S214002D9053F8046B05460193B0B9FFF7BDFF044630
S214002DA005463046019920F093FDAC42064602D017
S214002DB02046FFF7A5FF002ED4BF3720002003B023
S214002DC0BDE8704003B07047FFF7A6FF8542044693
S214002DD0E7D02846FFF794FFE3E70422836A03F56B
S214002DE080539A647047000038B50446826A136CB4
S214002DF05B06FCD50023216B1A4694F82E00FFF7DD
S214002E0041FA0023A16B1A4694F83400FFF73AFA09
S214002E1094F84C3083B10023216C1A4694F83C0099
S214002E20FFF730FA94F84C3033B10023A16C1A4601
S214002E3094F84400FFF726FA0021A06A094DFEF731
S214002E40D5FF0021A08DFDF7C7FF284604F15001ED
S214002E50FDF798FD2B6813B9034800F0D3FC00205B
S214002E6038BD00BF081E00200C1E002010B504460A
S214002E70806AFEF7F1FF0122A36A002003F5805363
S214002E809A6410BD012910B505D8064B1C68503C45
S214002E9014F1500F00D110BDA06A0521FEF7A6FF61
S214002EA0246DF4E7081E00202DE9F0431C4689B087
S214002EB00DF11008064689461746002110224046A6
S214002EC0109D20F052FB63793046002B14BF01237F
S214002ED00223CDE90233674B4A460193664B2946E7
S214002EE00093664B00F048FA0646002840F09B80A8
S214002EF0E3880121AB8563693A20AB63237C85F8C0
S214002F003430E3682B63237A85F82E30E3692B642C
S214002F10237E85F83C30636AAB6494F8203085F8ED
S214002F2044302368AB62FDF757FF01230422E168B3
S214002F30207AFFF7A7F9012302226169207CFFF7B8
S214002F40A1F93E7085F84C600121E088FDF744FF4A
S214002F506379012143BB4FF4C060FDF73DFF1021AC
S214002F60E088FEF7D1FB39462068FFF7BBF802225F
S214002F70434BE168C3F8C020227A42EA0142C3F814
S214002F80D0206169227C42EA0142C3F8CC20237932
S214002F9093B38DF81030013BC7F81C80022B67D81E
S214002FA0DFE803F015455E004FF48060FDF714FF80
S214002FB00F21E088FEF7A8FB39462068FFF7EAF8FD
S214002FC095F84C3043F0040385F84C30CFE70027E3
S214002FD095F84C3043F0010385F84C30002302226C
S214002FE0E169207EFFF74EF9E269237E43EA024359
S214002FF0244AC2F8C43007BB04232068052100F524
S2140030000052536400F580529364FEF7EFFE1E4BA9
S2140030101B681BB91D491E4800F0E2FB1A4805F163
S2140030205001FDF79FFC304609B0BDE8F08395F8E7
S2140030304C3043F0020385F84C3000230422616ACA
S21400304094F82000FFF71EF901230E4A616AC2F8C1
S214003050C03094F8203043EA0143C2F8C830CBE7CA
S21400306095F84C30012743F0030385F84C30B5E75C
S2140030702326D8E7E92D0000DB2D00006D2E00008A
S21400308000C4034000D40340081E00204C1000205B
S2140030900C1E0020826A38B5936C526C04461340AE
S2140030A059070ED500F0EAF9E8B1A06AFEF7CEFEA1
S2140030B00146204600F0EAF90422A36A03F500530D
S2140030C05A64A36A5A6CD2070CD5012503F500533F
S2140030D05D6420469D6400F0F9F918B9A36A03F50B
S2140030E080539D6438BD0422A36A03F500539A6496
S2140030F0E7E700207047FEE74FF4005300204B60E0
S2140031007047012070470020704707B5002001ABCC
S2140031100190FFF721FE0198002808BF4FF0FF300E
S21400312003B05DF804FB000010B500201446FFF75E
S214003130FFFD18B1BF210248FDF7E3FC204610BD95
S214003140074F0200034B02221868002380681946C6
S21400315020F0F0BA4411002090F8233001223BB151
S21400316090F82730022B03D180F8272018467047A6
S2140031701346FBE780F82010704790F82000704751
S21400318090F8240070472DE9F8434FF000080446F5
S21400319017461D46C3F800804E1E2B68BB4206D35A
S2140031A02B68002B0CBF1B200020BDE8F883FEF721
S2140031B094FCD4F81490FEF796FCB9F1000FEFD00B
S2140031C0A269E368D35C06F8013FE068E369013072
S2140031D0984208BF4046E060FEF77FFC6369013B0B
S2140031E06361FEF780FC6368204698472B680133CE
S2140031F02B60D2E738B50546FEF768FC044600218A
S214003200284600F015FA2046BDE83840FEF762BCB6
S2140032102DE9F04104460D46164690F82070FEF75C
S21400322055FC012394F8238084F82330FEF752FCE3
S214003230B8F1000F03D194F82600FFF7DBFF2E4409
S2140032409FB1AE4213D02B780A2B03D10D21204616
S214003250236898472046236815F8011B9847F0E72F
S2140032602046236815F8011B9847B542F8D194F814
S2140032702660FEF72BFC05460121304600F0D8F903
S2140032802846FEF727FC002084F82300BDE8F081DE
S214003290002809DB0122430900F01F0002FA00F0B3
S2140032A0024A603342F82300704700BF00E100E0A6
S2140032B070B504460568FFF72FFD844202D1002052
S2140032C0FFF71EFD95F92100FFF7E2FF95F9213083
S2140032D0002B0DDB01215A0903F01F0301FA03F34B
S2140032E01449203241F82230BFF34F8FBFF36F8F5F
S2140032F095F92200FFF7CCFF95F92230002B0DDB65
S21400330001215A0903F01F0301FA03F30949203289
S21400331041F82230BFF34F8FBFF36F8F002328464C
S214003320C4E90033C4E90433A360AB68BDE8704069
S214003330184700BF00E100E070B590F8243004465E
S2140033400D4681B173B990F82560FEF7BFFB0546C0
S2140033500121304600F06CF92846FEF7BBFB01233E
S21400336084F8243070BD002BFCD090F82500FFF7C1
S21400337041FF84F82450F5E7F8B51F465368064623
S2140033800C461546002B63D09368002B62D028228B
S2140033900021204620F0E9F86B682046A361AB6860
S2140033A0E3612B7B2760012784F82030069B63604F
S2140033B0079BA3602B7884F821306B7884F8223042
S2140033C0254B34607360254BB360254B3361254B2A
S2140033D07361254BF360254B3362254B84F82770C9
S2140033E0B361244BF3619DF8243084F8237084F88D
S2140033F026309DF8203084F825300023697B84F839
S2140034002430FFF799FF95F90100FFF741FF95F982
S2140034100130002B06DB5A0903F01F039F40164BB2
S21400342043F8227095F90000FFF732FF95F9003057
S214003430002B08DB0122590903F01F0302FA03F3ED
S2140034400D4A42F821303046FFF75AFC0020F8BDFE
S2140034502220FCE72120FAE7113200008731000025
S214003460753100007B310000B13200005931000098
S214003470393300008131000000E100E04269C06994
S21400348082422CBF002001207047000038B54269F8
S214003490C36904469A420D4604D34FF4AF710A48F6
S2140034A0FDF72FFB2369A269D554626923690132AF
S2140034B06261E26901339342236104BF0023236102
S2140034C0042384F8273038BD9B4F020090F8233041
S2140034D010B504464BB9012380F8233090F8260037
S2140034E0FFF788FE022384F8273094F8230010BDE7
S2140034F0034B1B78002B14BF01200220704700BF2F
S214003500281E00200329F8B505460E4607D8174B97
S2140035105C5C032D19D8DFE805F0090F121540F2A0
S2140035209D211348FDF7EDFA0024F2E744F002046B
S214003530104B1F687FB9F8BD44F00804F8E744F064
S2140035402004F5E744F08004F2E740F2B221084890
S214003550FDF7D7FAECE77B681A68144203D03146C9
S21400356028465B6898473F68E4E700BFB45002000F
S21400357025500200241E002038B5104D2B78ABB124
S2140035800F4C23781BB100F02FFA00232370002085
S21400359000F04CFA0B4C50B100F052FA0023012117
S2140035A020782B70FFF7AEFF0123237038BD012271
S2140035B0054B1A702278054B1A70F7E7211E00207B
S2140035C01D1E0020141E0020201E0020301E00207D
S2140035D070B5FEF77BFA114E054633788BB900F0CE
S2140035E01FFB044620B12846FEF774FA204670BD3D
S2140035F000F01CFC0A4B18600A48FDF7AFF90A4BAE
S2140036001C6000F06DF900F039FA084B00241860D1
S214003610012328463370FEF75DFAE7E71E1E0020FA
S2140036202C1E0020241E0020341E0020181E002001
S2140036302DE9F341441EE3B2012B0D4604D94FF4A5
S214003640AC712D48FDF75DFA2C4E335DFF2B05D18E
S21400365065B140F25B112848FDF753FA335D2BB98C
S21400366025B940F25D112448FDF74BFA002D14BF32
S2140036700122FF22335D13443355214E3278012A4E
S21400368036D9FFF735FF8242044631D91D4FFEF783
S2140036901DFA3B781BB31C4D2B781BB901222A70F0
S2140036A01A4A1370DFF8688098F8003033B101903A
S2140036B000F09AF90023019888F80030FEF70AFA1D
S2140036C0012000F0B3F9FEF701FA2B782BB1019038
S2140036D000F0B6F9002301982B7000233B70FEF72C
S2140036E0F9F93078A04203D02146FFF70BFF34707B
S2140036F002B0BDE8F08100BF25500200281E002061
S214003700141E0020211E00201C1E0020201E00204B
S2140037101D1E002070B50446FEF7D8F9194D064662
S2140037202B78FF2B05D164B14FF4C2711648FDF714
S214003730E8F92B782BB924B94FF4C3711248FDF77A
S214003740E0F9124B1B78022B14D9C4B140F2891150
S2140037500D48FDF7D6F901232A7830461344DBB22C
S2140037602B70B3FA83F3BDE87040094A5B09137007
S214003770FEF7B0B9002C0CBFFF230123ECE7FF23B4
S214003780EAE700BF2B1E002025500200141E002072
S2140037902A1E002068B5FEF799F9094B06461B78E5
S2140037A0012B04D8FEF796F90025284668BD054B80
S2140037B01D6800F067F905443046FEF78BF9F4E71C
S2140037C0141E0020341E002007B5FEF77FF9019076
S2140037D0FFF7D2FE019803B05DF804EBFEF77AB966
S2140037E038B541600446FEF771F90546214604489F
S2140037F0FDF7B8F82846BDE83840FEF76BB900BFBD
S214003800241E002013B50190FEF760F904460199C6
S2140038100448FDF7B7F8204602B0BDE81040FEF7B2
S21400382059B900BF241E0020054B1B685843054BA2
S21400383000F5742000F23F20B0FBF3F0704700BFA5
S2140038402C1E002040420F0038B50B4D2B788BB154
S2140038500A4C237873B100F0F3F8094B012118786D
S214003860FFF750FE00220123064922700A70064A1E
S2140038702B70137038BD00BF141E0020201E0020C1
S214003880301E0020211E00201F1E00207047000052
S21400389073B5114E04463378834212D000238DF858
S2140038A0043080B102238DF8053001A8FEF7DAF95E
S2140038B00A4D402054B1FFF7B7FF2B68181A28604E
S2140038C0347002B070BD8DF80500EEE7FFF7ACFF70
S2140038D02B681844F3E700BF54100020401E002059
S2140038E073B5002401A88DF80440FEF7B1F9204610
S2140038F04FF40024FFF7CCFF3449354B0A6F02F033
S21400390007021A60D1F82031D1F8240101F5805160
S2140039104C664FF400344C6601F598318969032AE9
S21400392000F0070001F002013BD003F003039C1EE9
S21400393063426341022808BF43F001032548264D31
S2140039400370002939D0214A3BB9D2F8003103F080
S2140039500303591E4B424B410370D2F8003103F06B
S2140039600303022B1FD0032B20D0012B21D1FCF701
S214003970CDFF10B3194B411EDC68002302460846F3
S2140039801946C4F30B04164E013404EB8404E4FB1E
S21400399006011FF0CDFBFFF747FF2B681844286091
S2140039A00BE00123C6E7FCF7D3FFE2E7FCF7C4FF12
S2140039B0DFE7CA210B48FDF7A4F86420FFF734FFC1
S2140039C02B681844286002B070BD00BF008000401D
S2140039D0381E00203D1E0020401E002000C0014072
S2140039E040420F00B850020038B50C4B1B786BB144
S2140039F00B4C23787BB90B4B0B4D9A6D12F4803F22
S214003A0005D0DB6D9B0702D50123AB6238BDFEF700
S214003A10C7FF0123AB6200232370F7E73D1E00209B
S214003A203C1E002000C0004000D00040034B1B7826
S214003A300BB1FFF71FB80120704700BF3D1E0020E6
S214003A4008B5FEF792F8094A0949136F096823F08A
S214003A5007030B431367074B1B7813B10122064B72
S214003A609A62BDE80840FCF73BBF00BF00800040FC
S214003A70381E00203D1E002000E000404FF4C870B5
S214003A80FFF7D2BE08B5054B187818B1FEF7CEFF83
S214003A9000EBD000024B1B68184408BD3D1E0020FA
S214003AA0401E00200122014B1A7070473D1E002068
S214003AB038B500F0DFFA094B094A196839B11368BE
S214003AC04C69C51AAC4204D323441B1A4B611060E0
S214003AD003E00023001B10604B6138BD5C1E002015
S214003AE0481E0020C38870B504460D463BB9FFF754
S214003AF051FE8542064602D2FFF766FE35460F495E
S214003B0065610B68ABB90C60A36011E0AD1A9A68EA
S214003B10184665612AB113465A69AA42F6D950B1C9
S214003B201A4613468460A36013B15969491B59614C
S214003B3070BD0020F0E70C60F5E700BF5C1E0020BB
S214003B4038B50F4B0F4D1C682B6802205B691C4470
S214003B5000F0C4FA204600F095FA00230A492A68C5
S214003B600B70D088800702D501230B7038BD926891
S214003B70002AFBD050690344012BF2D9F6E700BFB8
S214003B80481E00205C1E0020501E002070B59DF8C8
S214003B901450164605710025049A8560BDF8185025
S214003BA00446C580C0E903360D46026029B9416166
S214003BB00BB11146984796B13546FDF78EFF06467F
S214003BC0FFF776FF29462046FFF78CFF054B1B685C
S214003BD0A34201D1FFF7B4FF3046FDF784FF002073
S214003BE070BD00BF5C1E002000220C490B687BB134
S214003BF083420AD183687AB1936083681BB15A699D
S214003C0041690A445A61002070471A469B68EEE7ED
S214003C100028EFD0022070470B60EEE75C1E002005
S214003C2070B5FDF75AFF144E05463478FCB9134BB1
S214003C301C60134B1C60134B1C8000F0D7F901204E
S214003C4000F04CFA00F098FA0F4B0246186020B9C4
S214003C502846FDF748FF232070BD234640F2E73193
S214003C600A481FF065FA0A4B18600123337028468D
S214003C70FDF739FF0020EFE7441E00205C1E002001
S214003C80481E0020521E0020581E002018FCFFFF71
S214003C904C1E00202DE9F0410546F8B1FDF71DFF4A
S214003CA00F4F0646FFF704FF2846D7F80080FFF7B9
S214003CB09BFF044628B13046FDF715FF2046BDE8B9
S214003CC0F081A8453B6803D123B1FFF739FFF2E73F
S214003CD0002BF0D1022000F00DFAECE72224EDE7ED
S214003CE05C1E002070B586B015461E46044605913B
S214003CF080B1FFF7CFFFBDF82C30002202939DF86D
S214003D0028302046CDE9006305992B46FFF73EFF95
S214003D1006B070BD2220FBE738B50C46054698B1C4
S214003D2091B100230B70FDF7D8FE0121074B1B68ED
S214003D300BB122781AB1FDF7D6FE002038BDAB4293
S214003D4014BF9B682170F3E72220F7E75C1E002073
S214003D50F0B51F46002387B00D46164604468DF87C
S214003D601730A0B10DF11701FFF7D6FF9DF8172009
S214003D707AB9BDF83430294602939DF83030204693
S214003D80CDE900733346FFF701FF07B0F0BD2220F0
S214003D90FBE70320F9E7F0B51F46002387B00D4682
S214003DA0164604468DF81730A8B10DF11701FFF737
S214003DB0B3FF9DF8173083B9BDF834302A46029316
S214003DC09DF830302946CDE9007320463346FFF78C
S214003DD0DDFE07B0F0BD2220FBE70220F9E738B58C
S214003DE0FDF77BFE054600F045F904462846FDF73C
S214003DF07AFE204638BD000070B5FDF76EFE06461A
S214003E0000F038F9084B04461D880120ADB200F0DA
S214003E1089F918B100F02EF9044601353046FDF751
S214003E2062FE2046294670BD521E0020014B1868CF
S214003E30704700BF581E0020044B1B6858434FF4C1
S214003E407A73B0FBF3F00130704700BF581E0020B5
S214003E500A4B10B51B680C4683420CD3084B4FF434
S214003E607A7219680023A0FB01011FF061F9013086
S214003E702060002010BD2120FCE700BF4C1E002063
S214003E80581E00200F4B10B51A689AB14FF47A717D
S214003E90531E1342A0FB01010ED1B2FA82F2C2F108
S214003EA01F04531CD243E04001FA03F3184321FADF
S214003EB002F20243104610BD00231FF039F90246F5
S214003EC0F8E700BF581E0020C2072DE9F84F044649
S214003ED00BD5414A138801339BB21380FFF7E8FDE8
S214003EE03E4B1B680BB1FFF72BFEA30771D500F006
S214003EF0C1F8DFF8F0904FF00008D9F800700646D9
S214003F00C71BFDF7EAFDC34605464246334B1C6811
S214003F1014B16369BB4219D90021314BB8F1010FC6
S214003F20197005D122B1D288022A08BF83F8008012
S214003F30002C4AD06369C9F80060DB1B6361FFF799
S214003F40FFFD2846BDE8F84FFDF7CDBD23463A46AF
S214003F50C9F800605969914209D8187994F804C0E4
S214003F60521A844588BF1C469B68002BF2D128460F
S214003F70FDF7B9FD6569C4F814B0FDF7AEFD8246DD
S214003F802046FFF731FE5046FDF7ADFD23694BB1E5
S214003F90FDF7A3FD824621692046FFF7A3FD5046A4
S214003FA0FDF7A1FDE36813B120462168984700F0AD
S214003FB061F835447F1B82460744FDF78EFD564662
S214003FC00546224608F10108A0E7022000F092F814
S214003FD0B7E7BDE8F88F00BF521E00205C1E002029
S214003FE0541E0020481E0020002070471FB50024E5
S214003FF01D4B012118689A880290D3F806009B7A18
S21400400000903E20ADF80C208DF80430FCF7E4FE5E
S2140040108DF80840FFF7E8FF8DF80C0002A8FEF7C1
S214004020F7F9694601208DF80040FEF7ABF94FF02E
S214004030904240F2FF31936923F47F7323F0030329
S21400404093610A4B5961936A13F00803FBD113621C
S2140040500120FEF7BBF94FF48052054BC3F88021D0
S2140040601A6004B010BD00BF4E5102000020004888
S21400407000E100E04FF090439A6A1207FCD4186AF9
S214004080704700004FF09042936A1907FCD4136AF9
S214004090116C5269520604D4CA1A032A01D88B42FC
S2140040A00ED1C21A022A98BFD81CB0F1FF3F38BF03
S2140040B001384FF0904318649A6942F040029A61C2
S2140040C0054A13783BB14FF09041CB6B43F00203A7
S2140040D0CB630023137070475510002082074FF003
S2140040E0904200F00103916948BF43F040030B4340
S2140040F093617047820700F001030AD50121084A40
S21400410043F0400311704FF09041CA6B22F0030257
S214004110CA634FF090418A6922EA03038B617047B5
S214004120551000204FF0904301285B6904D0022808
S21400413005D1C3F38010704703F0010070470020DC
S2140041407047000010B5FDF7C8FC4FF090430446DA
S2140041505B695A06074A03F0010003F0510348BFA3
S21400416040F002005361FFF7AFFE2046BDE8104066
S214004170FDF7B9BC0020004808B53E20FCF798FEC5
S2140041800346FFF731FF23FA00F008BD08B5FCF739
S214004190D7F9FCF70DFAFCF70CFAFCF717FABDE8AE
S2140041A00840FCF71ABA08B5FCF719FAFCF718FA33
S2140041B0FCF717FABDE80840FCF715BA10B5044638
S2140041C0FCF78EFB4FF47A735C43B0FBF3F30748BF
S2140041D0B0FBF3F0B4FBF0F0022806D9BDE81040BF
S2140041E00323B0FBF3F000F003B810BD40420F000D
S2140041F0013800D0FCE7704738B50446FDF766FC8A
S214004200054620461FF06AF904462846FDF762FC7C
S214004210204638BD37B504460191FDF757FC019995
S214004220054620461FF014F904462846FDF752FCC2
S214004230204603B030BD38B50546FDF747FC0446BA
S21400424028461FF053F92046BDE83840FDF742BC2B
S2140042500A4619B1024B00211B681847704700BF79
S2140042605810002000F4E040B0F5805F04D0A0F5C0
S214004270005358425841704701207047B0F5105F10
S2140042800DD009D8B0F5885F10D0B0F5905F0DD08E
S21400429041F20103984209D06FF08500704721F083
S2140042A04003802B02D0B1F5807F06D111F0070FB6
S2140042B014BF6FF08600002070476FF086007047CE
S2140042C00E4B0340B3F1607F06D1B1F5885F14BF93
S2140042D06FF0860000207047B3F1707F0BD101F4B9
S2140042E0E043B3F5005F06D111F4E06F0CBF6FF04A
S2140042F08600002070476FF0860070470000C07F81
S2140043008A422DE9F04180460D4600F01981944B13
S214004310944802EA030181420BD0934922F0FF043D
S2140043208C4206D0914C22F47F7121F00301A14209
S2140043301ED12B4083420BD08B4B25F0FF019942B8
S21400434006D08A4925F47F7323F003038B420FD1EE
S21400435015F0FF030CD0864943F000738B4207D15B
S2140043606A4032F0FF030CBF01200020BDE8F08158
S21400437005F0FE43B3F1A06F17D102F0FE43B3F190
S214004380A06F40F0DF8082EA050333F47E1340F02E
S214004390D98015F40040E9D0C5F30540C2F30542C4
S2140043A090428CBF00200120E0E7B3F1407F40F050
S2140043B0B48002F0FE43B3F1407F40F0C38082EA4F
S2140043C0050333F47E1640F0BD8041462846FFF7CD
S2140043D077FF002840F0B680664C12F47C1704EA9B
S2140043E002043AD0B4F1607FC2F305477BD1D3B262
S2140043F043F0007303F17E410139022977D903F1B6
S2140044007E410439012974D95B498B4275D001314C
S2140044108B4274D001318B4273D001318B426AD00B
S21400442001318B4269D001318B4268D003318B4217
S21400443063D001318B4262D001318B4261D00131B1
S2140044408B4208BF402615F47C1FC5F305435AD19E
S214004450BE4214BF0020012088E7B4F1607F2CD153
S214004460D3B243F0007303F17E41013902296BD9C0
S21400447003F17E410439012968D93F498B4269D04E
S21400448001318B4268D001318B4267D001318B42BB
S2140044905ED001318B425DD001318B425CD003315E
S2140044A08B4257D001318B4256D001318B4255D0CA
S2140044B001318B4208BF402799E7B4F1707FC2D123
S2140044C008F4E043B3F5005F03D10127C8F30223E5
S2140044D09F4008F4E043B3F5005FB4D10126C8F36B
S2140044E002239E40AFE7B4F1707FACD1F1E710260F
S2140044F0A9E71426A7E74026A5E71C26A3E720265B
S214004500A1E730269FE712F47C1F01D1B34217D0F3
S2140045102A047FF52BAFBB4243E7B3F1106F11D1EE
S21400452025F01F6323F4702363B902F0FE43B3F152
S214004530106F07D11148104040F01060A84288E77D
S214004540012013E7002011E7102750E714274EE755
S21400455040274CE71C274AE7202748E7302746E74E
S21400456000FEFFFF00020006000900060004000629
S214004570FF0000020000C07F080000020000FFF6F7
S21400458043680A461B0A10B403D05DF8044B00F0DB
S21400459077BD4388B3B1018801F4E040B0F5805F91
S2140045A002D0B0F5005F02D10733DB1009E047F216
S2140045B0010081420AD15B080133DB1003EBC30321
S2140045C03B33136000205DF8044B704744F2010053
S2140045D0814202D1DB081033F3E747F20200814242
S2140045E004D1DB0803EB43035A33EAE744F2020044
S2140045F0814204D1DB0803EB43034A33E1E721F0B1
S214004600FF01B1F5E24FCFD0B1F5824F04D10733A9
S214004610DB105B000133D4E76FF08500D3E70000C2
S2140046202DE9F843884617461C4600F0F9FE054675
S21400463000283FD1D8F80060B6F8009009F4E043AF
S214004640B3F5804FF36808BF27F0010737EA030386
S21400465028D17CB3224A24F4FF7323F0010393424B
S2140046600BD0204B24F0FF029A4206D01E4A24F4B8
S2140046707F7323F0030393421FD114F0FF0304D08B
S2140046801A4A43F0007393421ED0224648463169C8
S214004690FFF736FE074668B9224648467169FFF7B7
S2140046A02FFED0B96FF0840500233046C8F80030DE
S2140046B000F0F6FE2846BDE8F88304F0FE43B3F1AA
S2140046C0407F04D12304E0D56FF08605ECE7B3F114
S2140046D0A06FF7D0054B9C42D6E73D46EAE700BF01
S2140046E0000200060009000600040006FF000002A3
S2140046F038B5037904460D4633B9A36820462B60C7
S21400470000F0CEFE38B938BDD0E9081200F0B8FF88
S2140047100028F2D0F7E700232B60F4E700232DE90A
S214004720F341D0E9016804460F463046114613604F
S21400473000F0C0FE054688B9304600F0BDFE0546CE
S21400474060B9F6B276B9B8F1000F05D1E36823F484
S214004750FE4323F0030363B16FF08605284602B0DC
S214004760BDE8F0810146A06800F0B0FD0028EDD15C
S214004770F2E74FF6F87362889A421CD8238B23F030
S2140047800103002BE8D1394601A800F007FE0546D4
S2140047900028E3D10FCC3F683E460FC694E80700DA
S2140047A03B7986E807000BB9019BBB603B8B23F087
S2140047B001033B83D2E76FF08505CFE770B5046A47
S2140047C005460E463CB90120FFF724FD286228B1B5
S2140047D020466E6270BD6FF08A00FBE76FF08C00BB
S2140047E0F8E773B50E46114605460192FFF7E6FF59
S2140047F0044620B93146019A286A1EF08FFE2046EC
S21400480002B070BD2DE9F041089E88461F46048818
S21400481022B96FF085042046BDE8F0812046FFF7F8
S21400482021FD0028F5D033680BB9D3003360B2F110
S214004830005FEED24FF6F87331689942E9D8204609
S214004840FFF71CFD04460028E5D1CD1D0699EB08B0
S214004850B1EBD50F0BD393420CD1414638461EF030
S2140048605DFE3368079A0733DB081360D3E76FF003
S2140048708904D0E76FF08604CDE710B50446006AD9
S21400488010B1616AFFF7E4FC206AFFF7D4FC002051
S214004890C4E9080010BD38B50446FFF7EEFFE3692B
S2140048A02822012B0CBF05466FF0960500212046F6
S2140048B01EF05BFE284638BD13B5044660B101A95C
S2140048C000F0AEFD044638B90198C369012B06D93D
S2140048D000F0E6FD6FF08304204602B010BD0379B9
S2140048E01BB1806800F022FE04460198FFF7D3FF54
S2140048F0002C08BF0446EFE72DE9F0411E460023D2
S21400490088B0054688461746CDE9043307923360DB
S214004910002A4CD005AA04A9FFF700FF0446D0B928
S214004920284607A9FFF72CFE0446A0B90498036A98
S214004930B3B1049B41465A882846069206AA0292BC
S21400494003F1240201925A6A00921B6A3A4600F06A
S21400495007FC044658B1049800B3FFF79CFF1DE01F
S2140049600799FFF72BFF04460028E2D0F3E70498E8
S214004970069B4288B2B943802B8813B102889A42BC
S21400498012D12B6A83B96B8813B142889A420BD135
S2140049903146FFF7ADFE04460028DCD1204608B0BD
S2140049A0BDE8F0819A42E7D06FF08604D3E76FF057
S2140049B08604F3E7036810B5044653B100F07DFCA7
S2140049C000232360A38823F4FF7323F00103A3804E
S2140049D010BD1846FCE700002DE9F04105461F46CD
S2140049E02B68084616468CB0002B40F0F18002F08B
S2140049F0FE43B3F1407F40F0EE80002F134602A93D
S214004A0014BF4FF480524FF40052FFF709FE0028FF
S214004A1040F0CC80DDF8088003ACC446CDE90A003F
S214004A20BCE80F000FC49CE8070084E80700304687
S214004A30BDF80C10FFF744FC0446002840F0AD809B
S214004A406B7916F47C1F67F300036B7105D0C6F311
S214004A500544032C2C710FD876E0604B3340B3F13D
S214004A60607F74D1F3B243F0007303F17E42013AE3
S214004A70022A3AD810242C71584B3340B3F1607F89
S214004A8073D1F3B243F0007303F17E42013A022A77
S214004A9040F28F8003F17E42043A012A40F28B8076
S214004AA04F4A934200F089800132934200F087809B
S214004AB00132934200F085800132934200F08380F9
S214004AC00132934279D00132934278D00332934236
S214004AD073D00132934272D00132934271D00132C8
S214004AE0934270D06FF0860457E003F17E42043A9A
S214004AF0012A01D81424BEE7394A934201D11C2466
S214004B00B9E7384A934201D12024B4E7364A9342A3
S214004B1001D13024AFE7354A934201D14024AAE7B9
S214004B20334A9342EBD001329342EDD003329342A4
S214004B30E5D001329342E7D001329342E9D0013208
S214004B409342EBD000232B716FF0850425E0B3F180
S214004B50707FF7D101F4E043B3F5005FF2D1012492
S214004B60C1F302239C40E4B273E7B3F1707FB9D17E
S214004B7001F4E043B3F5005FB4D1C1F30223012191
S214004B8099408C42AED8D8E908232846009603A957
S214004B90DFB100F055FB044610B12846FFF70AFFC8
S214004BA0029800F07DFC002C18BF20460CB0BDE833
S214004BB0F0811021E5E71421E3E71C21E1E720213D
S214004BC0DFE73021DDE74021DBE700F04CFBE2E7E2
S214004BD06FF08800EAE76FF08600E7E70000C07F26
S214004BE008000002090000020A0000020B00000292
S214004BF00C0000020123FFF7EFBE38B50368054638
S214004C0014464BB132B100F041FB044610B12846C1
S214004C10FFF7D0FE204638BD6FF08804FAE71A602A
S214004C202DE9F0411446026805460F46984602B341
S214004C304279D2071DD50279DAB1A2421CD800F01B
S214004C402EFB064678B92879A04204D22121221AE2
S214004C5038441EF08AFC2846FFF7ACFE002E18BF2C
S214004C603046BDE8F081224621213846C8F800408B
S214004C70EFE76FF08800F4E76FF08900F1E703686C
S214004C8010B504463BB100F0D2FA00232360237926
S214004C9023F003032371002010BD00002DE9F0412E
S214004CA00646012B98463368154608460CBF4FF457
S214004CB080724FF400728CB0002B68D105F0FE4372
S214004CC0B3F1806F66D12B4602A9FFF7A9FC044614
S214004CD0002841D13379314A23F00303954218BFA7
S214004CE043F00103DDF808C03371BCF8003003F46C
S214004CF0E042B2F5005F3BD113F4E06FC3F302204D
S214004D0036D0274A25F4807191420AD002F5007207
S214004D10954206D0234A954203D0A2F53F429142DF
S214004D2026D101228240D2B200236746727103ACBC
S214004D30CDE90A330FCF0FC497E80700B8F1010F8B
S214004D4084E80700DCE908233046009503A91BD158
S214004D5000F02DFA044610B13046FFF790FF029897
S214004D6000F09EFB002C18BF20460CB0BDE8F0817A
S214004D7042F20402934205D10B4A95420CBF0C2224
S214004D800022D1E70022CFE700F024FAE2E76FF036
S214004D908800EAE76FF08600E7E700BF00444004BB
S214004DA00010C00400FF4004000180040123FFF748
S214004DB075BF37B50468054694B1047904F003045A
S214004DC0012C0DD0079C0194069C009400F015FA67
S214004DD0044610B12846FFF752FF204603B030BD08
S214004DE06FF08804F9E770B5046805461E46A4B15E
S214004DF0047904F00304012C0FD000F00AFA0446EC
S214004E0020B92846BDE87040FFF739BF0023284682
S214004E103360FFF734FF204670BD6FF08804FAE772
S214004E2037B50C4D0C462B7ADB070FD500230A4608
S214004E300193014601AB284602F05AFC20B9019BBB
S214004E40A34218BF6FF0930003B030BD6FF0880028
S214004E50FAE700BF601E0020034610B50C46114658
S214004E60DA6900880AB91B6A3BB9FFF7FBF938B163
S214004E702046BDE81040FFF7D3BF6FF0860010BD98
S214004E806FF08500FBE72DE9FF410023CDE90133F4
S214004E900B60438806460D46002B00F0878002AA6A
S214004EA001A9FFF73BFC044600BB019B1B6A73B1DC
S214004EB00199304601F12403D1E9081200F032F9D5
S214004EC00446002875D00198FFF7D7FC0EE07268FC
S214004ED0170A60D1B6F8008071884046FFF7C2F91D
S214004EE060B14046FFF7CAF9044660B1019808B1C0
S214004EF0FFF7D1FC204604B0BDE8F08128F0FF03A0
S214004F00B3F5E24F4FD108F4E043B3F5805F02D02B
S214004F10B3F5005F02D1CA1DD7100AE047F20103BD
S214004F2098450FD14A080132D21002EBC20202F1B4
S214004F303B07039703990198FFF740FC04460028B7
S214004F40B6D0D3E744F20103984503D1CA0802F16C
S214004F501007EEE747F20203984505D1CA0802EBB0
S214004F60420202F15A07E4E744F20203984505D1EB
S214004F70CA0802EB420202F14A07DAE728F0FF000D
S214004F80B0F5E24FC7D0B0F5824F01BFCA1DD210B0
S214004F905200571CCDE7304603A900F071F80446CE
S214004FA00028C7D0A2E76FF085049FE76FF086045D
S214004FB0A0E729460198FFF79BFB0446002899D0F6
S214004FC094E7000008B500F0D3F90748037A13F019
S214004FD0060F03D0082200211EF0C7FABDE80840DD
S214004FE00C210148FFF734B9601E002038B5124D79
S214004FF0297A11F0010102D00024204638BD08228B
S21400500028461EF0B2FA02222B7A62F342032B7273
S21400501000F0A2F9044660B900F030F810F1860FEF
S214005020044600D028B92B7A43F001032B72002CDB
S214005030E2D0FFF7C7FFE0E7601E00202DE9F04151
S21400504005460F4690461C469BB119460120FFF7C1
S214005050E1F8064678B1224641461EF05FFAE86956
S21400506008B1FFF7E8F80020C5E907642F80BDE81F
S214005070F0811E46F3E76FF08C00F8E702F036BBCF
S214005080028843884068000A47D102F4E040B0F541
S214005090805F02D0B0F5005F05D10733DB0863B947
S2140050A06FF08500704747F2010082420FD15B081F
S2140050B00133DB0803EBC3033B3322F0FF02B2F5F8
S2140050C0824F01D1012BEBD000200B60704744F2D9
S2140050D00100824202D1DB081033EEE747F20200FD
S2140050E0824204D1DB0803EB43035A33E5E744F27C
S2140050F00200824204D1DB0803EB43034A33DCE7B9
S21400510022F0FF00B0F5E24FC7D0B0F5824FC7D10E
S2140051100733DB085B000133CFE700236FF0860020
S2140051200B6070472DE9F041476804463F0A0D467C
S2140051301646984611D107887F0407D44346324660
S21400514029462046BDE8F041FFF786BE02F06AF821
S21400515010F1860FF2D0BDE8F0816FF08600FAE716
S2140051602DE9F04F456885B02D0A0446DDE90E7A34
S214005170894616469846DDF840B013D1CDE901AB16
S214005180009702F0BFF810F1860F0DD14346324665
S21400519049462046CDE90FAB0E9705B0BDE8F04F67
S2140051A0FFF730BB6FF0860005B0BDE8F08F13B593
S2140051B004464868000A0AD10498009004F10800E2
S2140051C001F0CEFD08B90623236002B010BD6FF0D3
S2140051D08600FAE713B504464868000A0AD1049820
S2140051E0009004F1080001F009FE08B906232360C8
S2140051F002B010BD6FF08600FAE770B40668062E9F
S21400520003D170BC083001F047BE6FF0860070BC5A
S214005210704710B40468062C04D15DF8044B0830BF
S21400522001F0D8BF6FF086005DF8044B7047036846
S214005230062B02D1083001F0EDBF6FF086007047F4
S21400524013B504464868000A0AD10498009004F191
S214005250080002F05FF908B90623236002B010BD0B
S2140052606FF08600FAE713B504464868000A0AD1CC
S2140052700498009004F1080002F07EF908B90623AD
S214005280236002B010BD6FF08600FAE70368062BB5
S21400529002D1083002F072B96FF08600704710B481
S2140052A00468062C04D15DF8044B083002F0B6B949
S2140052B06FF086005DF8044B70470368062B02D13A
S2140052C0083002F0FFB96FF0860070476FF0404379
S2140052D0421E9A4208D329B100F1404098428CBF42
S2140052E000210121084670470121FBE700F100423A
S2140052F00732062A38B504460D4609D82821154B2C
S21400530001FB02339A6882420FD06FF08B0038BDE3
S2140053100121FFF7DBFFB0B10E480022034681688B
S214005320A1420AD1282101FB0233DA69511C0DD0B3
S2140053300132DA6100202B60E9E70132072A00F12A
S2140053402800ECD1E1E76FF08700E0E76FF0960009
S214005350DDE700BF6C1E0020044A002092F81831DA
S21400536043F0010382F81831704700BF6C1E00201E
S214005370F8B5094C0725264601272046E761FFF7C2
S2140053808AFA013D04F12804F7D196F8183165F33E
S214005390000386F81831F8BD6C1E0020F8B51E4CC8
S2140053A0064694F818310F46D8072ED50025234612
S2140053B0294618881A46A8B12DB91A791AB1DA6999
S2140053C0002A08BF1D460131072903F12803F0D142
S2140053D015B96FF08C001AE001232846EB61FFF741
S2140053E05AFA2A46D369591C02D16FF096000EE08D
S2140053F000200133D361141B084BE4105C4304F116
S2140054000044073C34603A60F8BD6FF08800002323
S2140054103B603360F8E700BF6C1E0020CDCCCCCCE0
S2140054200023F0B50B601D4B074693F818310D4668
S214005430DB0785B02ED5FFF759FF10F18C0F044619
S21400544025D1294601A8FFF7A9FF0446F8B901238C
S2140054502E68CDE90200B7603046736003AA02A941
S21400546000F067F9044628B9DDE902123046FFF776
S214005470B8F90446DDE9020100F051F93CB12868AC
S214005480FFF709FA14F18C0F08BF6FF08704204667
S21400549005B0F0BD6FF08804F9E700BF6C1E002071
S2140054A038B1C3691BB1013BC361002070476FF080
S2140054B096007047002070470020704737B50C46AE
S2140054C001A90546FFF7ACFF40B1002310F1880F95
S2140054D008BF6FF08B00236003B030BD01982560D5
S2140054E0FFF7DEFFF8E707B540B101A9FFF7FEFEBC
S2140054F038B110F18C0F08BF6FF0870003B05DF86D
S21400550004FB0198C369012B02D8FFF7C4F9F5E73D
S214005510FFF7C6FFF2E707B500216A4600F04EFB2C
S2140055208C3018BF012003B05DF804FB13B50021D2
S2140055306A46044600F042FB8C3002D1002002B0DE
S21400554010BD0021204600F065FB014628B96A46DA
S214005550204600F033FB8C30F0D06FF09800EEE77A
S214005560F8B515460E4607460822184621491C4639
S2140055701DF0D4FF002323726372A372E3726B687C
S21400558039461A0A237362731A0C1B0EA273E3734E
S2140055902B8804F1240023741B0A63746B88A3749D
S2140055A01B0AE374EB681A0A237562751A0C1B0E45
S2140055B0A275E3752B691A0A237662761A0C1B0EFF
S2140055C0A276E3766B6984F820601A0A23776277FE
S2140055D01A0C1B0EE377330A84F82130330CA277BB
S2140055E084F82230330E324684F82330BDE8F84083
S2140055F01DF094BF595102002DE9F84323290446B3
S2140056000F4691469846089E04D86FF0980528469F
S214005610BDE8F883082219491DF070FF05460028EA
S214005620F3D1A368002BF0D1216A243FB942C8F811
S2140056300010EAD8B1F5005FE7D271B9C9F80000EA
S214005640E3687360238A3380638A73806369F360D8
S214005650A3693361E3697361D9E70120FEF7DAFDD8
S214005660C9F8000030B1D8F8002004F124011DF07C
S21400567055FFE5E76FF08C05C9E700BF59510200FA
S2140056802DE9FF4106461446884600293ED0002AEA
S2140056903CD0B2F5005F3CD202F124073946012027
S2140056A0FEF7B8FD0546B8B30346324621464046E7
S2140056B0FFF756FFB66800243046FFF72CFF012898
S2140056C01ED021462B463A463046009400F096F906
S2140056D00146C0B9304602AA00F070FA044620B966
S2140056E0029B9F4205D06FF098043046002100F0E0
S2140056F091FA2846FEF79FFD204604B0BDE8F081EB
S2140057006FF08A04F5E76FF09804F2E76FF086040E
S214005710F2E76FF08D04EFE76FF08C04ECE710B55E
S214005720044608B1FEF794FD2046BDE81040FEF79B
S21400573082BD2DE9F047D0F808A086B081460F4616
S21400574016465046002104AA00F038FA044610BB5C
S214005750DDF8108001204146FEF75CFD0546002876
S21400576035D02146504604AA039400F027FA044692
S21400577070B903AB02462146CDE900535046434676
S21400578000F0C0F9039B0446984508D06FF09804D3
S2140057902846FEF750FD204606B0BDE8F0870028F4
S2140057A0F6D133463A4641462846CDF80090FFF7F4
S2140057B023FF04460028EBD13B682BB13368002B4F
S2140057C008BF6FF09104E3E76FF09104E0E76FF035
S2140057D08C04E0E70020704708B5FFF7FBFF18B120
S2140057E035210448FBF78DF901F00CFABDE80840B6
S2140057F001F052BA615102000123A0F50320074AC6
S214005800A0F58070410900F01F0003FA00F052F87E
S2140058102130184342F82100704700BF881F00203F
S2140058202DE9F04780460F461E46154688B00AB159
S214005830002313600EB1002333604FF0100ADFF828
S214005840A09000233A464146D9F80000CDF800A0C3
S21400585016F054FA044658BB3A681D4B9A422BD1B0
S2140058604FF0180A03464146D9F80000CDF800A0CC
S21400587002AA16F043FA0446D0B9069B7B60DDE91F
S2140058800423C7E90223134B3B600DB1C5F800A003
S214005890114C3A680F4B9A4218D14DB146B1334677
S2140058A04146D9F8000002AA16F07CFA48B1044630
S2140058B0204608B0BDE8F087002DEAD0C5F800A065
S2140058C0E7E733682A689B1A3360F1E7034CEFE793
