S01100006E65775F626561636F6E2E733337D2
S21400000000100020990700009507000095070000E3
S214000010950700009507000095070000950700006B
S214000020950700009507000095070000950700005B
S2140000309507000095070000610400009507000082
S214000040950700009507000095070000950700003B
S214000050950700009507000095070000950700002B
S214000060950700009507000095070000950700001B
S214000070094000009507000095070000950700005E
S21400008095070000950700009507000095070000FB
S21400009095070000950700009507000095070000EB
S2140000A095070000950700009507000095070000DB
S2140000B095070000BD190200950700000D230200F9
S2140000C0C5220200C1220200851B0200092302008D
S2140000D0C9220200E1220200CD22020065230200AE
S2140000E08DFE0100550002004D230200950700001A
S2140000F03D2C0000950700009507000095070000BE
S214000100950700009507000095070000950700007A
S214000110950700009507000095070000950700006A
S214000120950700009507000095070000950700005A
S2140001309507000095070000110600001D06000048
S21400014010B5054C237833B9044B13B1044800E0CE
S21400015000BF0123237010BDA8130020000000007C
S214000160EC88020008B5034B1BB10349034800E0C6
S21400017000BF08BD00000000AC130020EC880200A1
S214000180A3F5803A704700BF174B002B08BF134BF0
S2140001909D46FFF7F5FF00218B460F461348144A8D
S2140001A0121A22F0AAFB0E4B002B00D098470D4BDC
S2140001B0002B00D098470020002104000D000D48B9
S2140001C0002802D00C4800E000BF22F02BFB2000E5
S2140001D0290000F099F822F011FB00BF000008008B
S2140001E0000000000000000000100020A8130020FF
S2140001F0502F00200000000000000000FA22162108
S214000200014822F07ABB00BFC4130020FA2808B5C4
S21400021002460B460BD106480821007814F098FCDD
S214000220014620B1BDE80840024822F023BC08BDC4
S21400023000100020383802000B7813B9014822F06D
S21400024019BC70476D3802007047000010B503688F
S214000250234A23F47F4323F00703934286B03CD11E
S2140002600DF10F0104A814F0F3FC1E4814F024FC52
S21400027010B11D4822F0FEFB64221A4C00231146E2
S214000280207814F0BBFC10B1184822F0F3FBFA22D9
S2140002900821174B207814F05BFC10B1154822F0AB
S2140002A0E9FB154814F008FC10B1144822F0E2FBF4
S2140002B00023114C009360223021207814F01AFCA1
S2140002C010B10F4822F0D6FB00220421207814F04B
S2140002D073FC10B10B4822F0CDFB06B010BD00BF7A
S2140002E0A0000100001000207E3802009F380200A7
S2140002F0C4130020C538020001100020E6380200B2
S21400030002390200193902002DE9F04FCDB003F092
S2140003109FFEFFF773FF012100230422084601F029
S21400032051FF03F0EBFB00234EF660200DA98DF87D
S2140003301B3003F0EFFC07AC0AAD50B9CDE9000066
S2140003403F4A20460D990DF11B0303F092FC00284E
S2140003506AD095E807008DE807003A4894E80E0052
S21400036022F088FBDFF8F0A0DFF8F0B003F07DFEA7
S2140003700025FFF769FF03F0ADFC022380462C46FC
S214000380314A0DF13409136408224946002022F050
S21400039099FB064603F09EFC0746059103F09AFC7F
S2140003A0059BC01B61EB03011B2871F10003F5D30D
S2140003B0002E41DA22F01CFA2A460168504622F046
S2140003C059FB01351F2D09F10809DDD10222002055
S2140003D04BA922F077FB002830DA22F009FA0168F0
S2140003E0584622F047FB0222184B20461A640DA9F5
S2140003F0FFF70CFF03F06EFCA0EB080003F0A4FC74
S21400040021460246124822F035FB03F063FC044600
S2140004100D4603F05FFC001B61EB0501B0F5F06FC5
S21400042071F10003A2D2F4E795E807008DE8070013
S214000430084894E80E0093E73444C2E70444D2E741
S214000440390200003639020000D0034000E00340C5
S2140004509639020053390200773902008A390200C1
S21400046007F04EBB08B5064807F020F9054807F028
S2140004704DF907F0F6FCBDE808400FF0E9BF00BFF5
S214000480B4390200AC3902000120704700B5C3B091
S21400049007F076FA07F09FFA48B1FFF7F5FF30B19C
S2140004A001A814F003FB10B901A8FFF7CFFE43B074
S2140004B05DF804FB00F0BDB808B50321802001F00C
S2140004C0C3F803214FF4806001F0BEF803214FF417
S2140004D0906001F0B9F808214FF4C06001F0B4F85C
S2140004E008214FF4F06001F0AFF808213E2001F03B
S2140004F0ABF808212D2001F0A7F8002008BD000069
S21400050008B5174B1B68C3F30743012B0ED1154BD9
S21400051004205A6E4FF480231349520358BF134ADF
S2140005204B6601F51041086258BF536602F086F923
S21400053000F095F802F002F902F09EF902F020F9B8
S21400054002F05CF902F060F9FFF7B6FF02F006F978
S21400055000F078F800F0DAF9BDE8084002F0A6BF2F
S2140005600080E00F008000400090004000A00040A7
S214000570704708B503F0C2FA02F080F900F046F8BA
S214000580BDE8084005F090B808B502F0CBF8BDE825
S2140005900840FFF767BF704770477047FFF776BFA2
S2140005A07047000070B5154C98B006AD0FCC0FC55F
S2140005B094E80F0004F1100685E80F000FCE0EAD8C
S2140005C00FC50FCE0FC596E80300383485E8030044
S2140005D094E80F0002AD85E80F00094B294600930A
S2140005E008480EAB06AA02F0D7FB044618B16021F5
S2140005F0054800F026FA204618B070BD343A0200CE
S214000600C014002014160020043A0200FFF7CABFE8
S214000610014B186802F0B6BC14160020FFF7F8BFAE
S214000620042208B511460123002001F0CBFD00206E
S21400063008BD042208B500231146184601F0C2FD85
S214000640002008BD08B501213A2000F065FBFFF741
S21400065031FFFFF7E5FFBDE8084000F011B80121C3
S2140006603A2000F059BB00000822014B1A67704779
S21400067000D003400822014B1A67704700E0034091
S214000680F0B587B06C463F4D3F4F0FCD0FC495E891
S214000690030084E80300012401213A2000F03CFB1B
S2140006A00121282000F038FB384B69463846029373
S2140006B08DF80E4001F0ECFE2346042200210220B5
S2140006C001F080FD224621460023022001F07AFD3B
S2140006D0022123460846042201F074FD0422032169
S2140006E02346022001F06EFD4FF00213284D02262D
S2140006F0C5F83036A3F58033C5F82C361C23C5F86C
S21400070034664FF44870C5F81C3603F0B9FC142064
S214000710FFF7B0FF03F0B4FC2320FFF7A5FF03F0BC
S214000720AFFCB9213846FFF7A5FF01F019FFFFF728
S2140007309BFF002330461A46194601F043FD00236E
S21400074021461A46304601F03DFD234631463046E6
S214000750002201F037FD234600220321304601F037
S21400076031FD384601F058FE00212820C5F8301625
S214000770C5F82C16C5F83416C5F81C1600F0CCFAC9
S21400078007B0F0BD8C3A020000C0054000127A00A7
S21400079000C00340FEE7000008B500F013F8064B63
S2140007A0064A07498B4201D3FFF7EEFC52F8040BCA
S2140007B043F8040BF6E700BF00100020F4880200A0
S2140007C0A8130020044B054A9A60D3F8882042F408
S2140007D07002C3F88820704700ED00E000000000BB
S2140007E0014B1868704700BF08100020084B1B6FAD
S2140007F003F00703022B04D0032B05D0012B05D0F2
S214000800FEE7044B18687047034BFBE70348704746
S21400081000800040081000200C100020002D310140
S21400082008B5FFF7E3FF054B1B6FC3F30333013334
S214000830B0FBF3F0024B186008BD00BF008000401C
S214000840041000200048704700B4C404014B186828
S214000850704700BF0C100020054B1860054B1B6F3F
S21400086003F00703032B01D1FFF7DABF704700BF81
S2140008700C100020008000400020704700487047A1
S214000880002D31014FF4004070474FF47A707047E6
S214000890014B1868704700BF10100020002303604B
S2140008A07047000038B504460D4601B118B9382126
S2140008B0034800F0C6F823682B60256038BD00BFEB
S2140008C0A43A020038B504460D4601B118B97C2199
S2140008D0054800F0B6F823681BB1AB4202D12B687E
S2140008E0236038BD1C46F6E7A43A020005490A68AC
S2140008F01318054883428CBF4FF0FF320B6010463A
S214000900704700BF1410002000800020024B1968BA
S214000910024B18681AF052BA1C100020181000205B
S2140009207047000037B5920004460D46019222F04B
S21400093073FF431C0BD060B929462046019A21F06C
S214000940A5FF0028044808BF002003B030BD0348B8
S214000950FBE70348F9E700BF10E000F021E000F0F5
S21400096024E000F013B5044601A801F01FFD9DF831
S2140009700630012223804FF4807300206380054BED
S2140009809B680A3303F01F0302FA03F3636002B0A6
S21400099010BD00BF0080E00F01F07ABC08B501F082
S2140009A067FC002008BD10B5044644EA010313F0B6
S2140009B00303084609D1934201D1002010BD54F824
S2140009C0231040F823100133F5E72146920021F06A
S2140009D06DFFF2E710B5044622F026FF431C15D043
S2140009E0B0B90C4B20469B680A3303F01F02012364
S2140009F0934023F003032344984201D1002010BD06
S214000A0050F8042B0132F7D00348F8E70348F6E71E
S214000A100348F4E70080E00F0EE000F021E000F06D
S214000A2024E000F008B500F0F1FF014B186008BDA7
S214000A30C81C0020014B186800F0ECBFC81C002042
S214000A407047FEE74FF04023D3F88420D206FBD44D
S214000A50D3F88400C0F381107047000038B5124BFD
S214000A600546D3F820310C4603F00303022B0BD0C7
S214000A70032B0DD0012B0FD1FFF7B2FE052305B1D6
S214000A80286004B1237038BDFFF7E0FE0323F6E7C5
S214000A90FFF7F4FE0223F2E7044840F67B61FFF717
S214000AA0D0FF00231846EAE700800040403B0200E3
S214000AB0F7B50024114B0194D3F88051074605F092
S214000AC00305012D0E4607D0022D11D040F6B67153
S214000AD00B48FFF7B6FF04E0214601A8FFF7BEFF6C
S214000AE00F240FB1019B3B6006B1347003B0F0BD1C
S214000AF0FFF7C4FE2C460190F3E700BF00800040DD
S214000B00403B020038B5194B0546D3F824310C4655
S214000B1003F00703013B052B20D8DFE803F0030FA3
S214000B20171B0B13FFF75CFE052305B1286004B105
S214000B30237038BDFFF754FE0623F6E7FFF786FE60
S214000B400323F2E7FFF782FE0423EEE7FFF796FEA5
S214000B500223EAE7FFF790FE0723E6E7044840F2A1
S214000B601621FFF76EFF00231846DEE700800040E0
S214000B70403B020038B5124B0546D3F840310C46D0
S214000B8003F00303022B0BD0032B0DD0012B0FD148
S214000B90FFF778FE092305B1286004B1237038BD3D
S214000BA0FFF776FE0823F6E7FFF76FFE0B23F2E764
S214000BB0044840F6A961FFF744FF00231846EAE719
S214000BC000800040403B020038B5154B0546D3F880
S214000BD000320C4603F00703013B032B18D8DFE86E
S214000BE003F0020A0E12FFF74DFE092305B1286036
S214000BF004B1237038BDFFF74BFE0823F6E7FFF776
S214000C0044FE0B23F2E7FFF70BFE0E23800AEDE708
S214000C10044841F26B01FFF714FF00231846E5E78E
S214000C2000800040403B020038B5124B0546D3F822
S214000C3040320C4603F00303022B0BD0032B0DD0DF
S214000C40012B0FD1FFF71EFE092305B1286004B162
S214000C50237038BDFFF71CFE0823F6E7FFF715FEE6
S214000C600B23F2E7044840F6FE71FFF7EAFE002386
S214000C701846EAE700800040403B020038B5124BB9
S214000C800546D3F860310C4603F00303022B0BD065
S214000C90032B0DD0012B0FD1FFF7F4FD092305B16F
S214000CA0286004B1237038BDFFF7F2FD0823F6E78D
S214000CB0FFF7EBFD0B23F2E7044840F6F661FFF77B
S214000CC0C0FE00231846EAE700800040403B0200D2
S214000CD010B40F4C0B46D4F8204204F00304012C49
S214000CE00ED0022C10D008B1002101600BB10022FA
S214000CF01A704FF4107107485DF8044BFFF7A1BE59
S214000D005DF8044BFFF7AABE5DF8044BFFF732BF51
S214000D1000800040403B020070B5460904460D4680
S214000D200FD140F205110D48FFF78BFE334604F055
S214000D301F0485B103F58053012000FA04F41C60FB
S214000D4070BD012E05D0064B064A022E18BF13466C
S214000D50EDE7054BEBE703F50053EDE7403B0200FC
S214000D60688000406082004064800040B0F5207FCC
S214000D7010B534D009D8B0F5007F2AD003D898B182
S214000D80B0F5C07F10D0002421E0B0F5607FFAD126
S214000D90154BD3F88030C3F301149B0617D5032CEC
S214000DA015D04FF4CE610FE00F4B1C6F230B13F0E2
S214000DB00E0FC4F303340AD0032C08D0072C06D039
S214000DC00F2C04D04FF4CC610848FFF73AFE601CA5
S214000DD010BD054BD3F89040C4F30464F7E7024B0C
S214000DE01C6FC4F38024F2E700800040403B020002
S214000DF0002330B5802885B00446029375D02BD8E2
S214000E00002878D0A0F12004A3B2412B32D8412C80
S214000E1030D8DFE804F07073707386868686737346
S214000E20903FA7653F7373732F2F2F2F2F2F8B574E
S214000E30737373B1AC732F2F2F2F2F2F2F2F2F2FAE
S214000E402F2F2F702F707070862F2F2F2F2F2F2F52
S214000E502F2F2F2F2F2F7070B0F5806F61D024D8D2
S214000E60B0F5007F54D00BD8B0F5807F68D0B0F5D1
S214000E70C07F40D040F2DB114248FFF7E2FD37E08A
S214000E80B0F5607F44D0F5D8B0F5207F36D0B0F509
S214000E90407FEFD1FFF7C4FC04464FF42070FFF705
S214000EA065FFB4FBF0F0400821E0B0F5C06F59D004
S214000EB00DD8B0F5A06F39D0B0F5B06F3BD0B0F517
S214000EC0906FD7D1002102A8FFF71CFE10E0B0F506
S214000ED0E06F4CD0B0F5F06F4ED0B0F5D06FC9D102
S214000EE0002102A8FFF770FE02E0FFF77FFC0290E9
S214000EF0029805B030BDFFF793FCF8E7FFF790FCCB
S214000F0004464FF42070FFF731FFB4FBF0F0EEE735
S214000F10FFF76CFC05462046FFF728FFB5FBF0F010
S214000F20E5E7002102A8FFF799FDE1E7002102A806
S214000F30FFF7CEFEDCE7002102A8FFF7B9FDD7E7F2
S214000F4003934FF0E0231B695B0705D5FFF768FCAA
S214000F500390039B0293CBE70DF1070103A8FFF76D
S214000F6009FEF6E7002102A8FFF704FEC0E700210D
S214000F7002A8FFF759FEBBE7002102A8FFF77EFE96
S214000F80B6E700BF403B020008B58020FFF730FF01
S214000F90034B98429EBF4FF48032024B1A6708BD3F
S214000FA0005A620200A000404FF400320F4B70B5AA
S214000FB09A66064600200D46FFF7D8FE41F67132C7
S214000FC00B4B7043DC690B49DA639A68884204F479
S214000FD0803422F4401203D9012D18BF42F4801247
S214000FE09A600CB10022DA6370BD00BF009000402A
S214000FF000000340005A620208B5FFF723FCBDE874
S21400100008400021FFF7D0BF002307B5B0F5807F6A
S2140010108DF8023000F0888028D8382800F0A880A4
S2140010200CD8243883B2092B10D809280ED8DFE84C
S21400103000F0757575750D0D6B0D378F52286DD0D8
S21400104007D83D283CD03E2800F0988040F2A37197
S21400105056E08028FAD14C4B1B6F03F00703013B88
S214001060032B4BD8DFE803F048444280B0F5D06F3E
S2140010706ED01BD8B0F5A06F7AD00BD8B0F5806FC5
S2140010804CD0B0F5906FE1D100200DF10201FFF7D2
S21400109039FD3EE0B0F5B06F36D0B0F5C06FD5D1B3
S2140010A000200DF10201FFF765FD32E0B0F5006F9C
S2140010B0EAD00BD8B0F5E06F60D0B0F5F06FC5D1D0
S2140010C000200DF10201FFF7D9FD22E0B0F5086F10
S2140010D0BCD12D4BD3F8003103F00303022B3DD0D7
S2140010E0032B3FD0012B41D1FFF7B0FB032300E0D9
S2140010F005238DF802300CE00223FAE740F20B716C
S2140011002248FFF79EFC04E000200DF10201FFF7E5
S214001110CFFC9DF8020003B05DF804FB00200DF143
S2140011200201FFF79BFCF4E701934FF0E0231B69F5
S2140011305B0707D5FFF774FB0C238DF803309DF88B
S2140011400330D6E70DF1030101A8FFF713FDF6E71C
S21400115000200DF10201FFF737FDDAE7FFF798FBF5
S2140011600823C6E7FFF788FB0723C2E70123C0E78B
S21400117000200DF10201FFF7ABFDCAE700200DF1DC
S2140011800201FFF751FDC4E700800040403B02002B
S21400119008B5FFF739FF082812D00938C0B2012871
S2140011A011D84FF40012094B4FF6FF705A6603F53C
S2140011B0D8335B6A13F0010F18BF4FF4FA7008BDFE
S2140011C0034B1888FBE74FF6FF70F8E700900040E7
S2140011D03C10002070B5037804460F2B04D940F667
S2140011E001416B48FFF72DFC63780F2B04D940F6BE
S2140011F004416748FFF725FCA3780F2B04D940F677
S21400120007416348FFF71DFCE3780F2B04D940F62F
S2140012100A415F48FFF715FC23790F2B04D940F6E7
S2140012200D415B48FFF70DFC63793F2B04D94FF463
S21400123041615748FFF705FCA3793F2B04D940F6D8
S21400124013415348FFF7FDFBE379032B04D940F61F
S21400125016414F48FFF7F5FB237A032B04D940F6D7
S21400126019414B48FFF7EDFB637B012B04D940F691
S2140012701C414748FFF7E5FB8020FFF7C5FE032823
S2140012807CD04FF40022434B43495A6645F60E0382
S2140012900222C1F88030414B9A62012203F5805346
S2140012A09A628A6D12F48032FBD1637820781B052F
S2140012B043EA0063A079257C0343E078667C43EA32
S2140012C00043207943EA0033607943EA80130B61D8
S2140012D08B69E07A03F000430343E07943EA8063D6
S2140012E0207A43EA0063607A43EA0043A07A43EA3E
S2140012F000238B61637B096A002B18BF0822207BC2
S21400130021F00D0143EA010343EA800342EA0302A7
S214001310214B1A62A27B4FEA421230D1986AE17BD7
S21400132020F0330042EA0112024342F001029A62C0
S2140013301B4A996D32EA0101FBD1022217498A62E3
S2140013401A659A6D5200FCD41869A27820F47000D1
S21400135040EA02504FF000421861104B9A611DB9E6
S214001360022203F580539A6216B901220D4B9A6247
S214001370A37C1BB1084B0C4AC3F8802070BD996A49
S21400138021F0330131430A4342EA4502EFE700BF4A
S214001390403B02000090004000C0004000D00040EB
S2140013A00300014000E00040F1A7FFFF014B93F966
S2140013B0000070477C1D002010B583780446072B7C
S2140013C004D940F6E9412A48FFF73BFBE378032BB4
S2140013D004D940F6EB412648FFF733FB2378032B6E
S2140013E004D940F6ED412248FFF72BFB94F9013073
S2140013F0002B04DA40F6EF411D48FFF722FB4FF4BE
S21400140080011C4A637851664FF4D151022002F5E0
S214001410B832516218494F2B48604FF0010028BF80
S2140014204F2301F5805148601169C903FCD4217827
S21400143043EA01235361E378A1781B0143EA0123C1
S21400144061790B43217943EA41039360E379A179FB
S2140014501B0143EA4113617A0B43217A43EA4103B5
S2140014605360A37A13B16FF4D153536210BD00BF1B
S214001470403B02000090004000100240014B1880E4
S214001480704700BF3C1000204FF4001208B5184B00
S2140014905A660223174A5360936813F48033FBD1CD
S2140014A0012822D1FFF7D2F9134B984215D003F545
S2140014B0122303F5F863984213D0104B00EB80021A
S2140014C0400AB3FBF0F0520A0A4BDA6201221863B4
S2140014D05A620022074B5A6008BD45F67A10084A41
S2140014E0F2E745F61A00074AEEE75362F1E700BF57
S2140014F0009000400040024000F0490264666666C4
S214001500D8B80500BBCF05000029CCBF01210021BB
S214001510FFF74ABDB0F5207F10B565D00ED8B0F500
S214001520007F4FD003D800B3B0F5C07F1DD040F287
S214001530E161BDE810403448FFF783BAB0F5607F3C
S214001540F5D14C1E012C06D9042904D040F2C761FF
S2140015502D48FFF776FA2D4AD2F8803023F0300374
S21400156043EA0413C2F8803010BD102901F1FF349D
S21400157004D8274B23FA01F1CB0704D440F29E612E
S2140015802148FFF75EFAFFF737FD00F045F84FF405
S2140015908031204B1D4A1967136F23F4704343EACA
S2140015A004331367FFF73CF90446FFF74BFAC0F124
S2140015B002012046FFF7A8FF00F034F8BDE810400F
S2140015C0FFF7E2BC4C1E1F2C04D940F2D5610E4832
S2140015D0FFF737FA0D4BD3F8901021F0F85141EA97
S2140015E00461C3F89010BFE74C1E012C04D940F2EA
S2140015F0DB610548FFF725FA044B196F21F480617B
S21400160041EA84211967AFE7403B020000800040B2
S214001610160101000090004002214FF42070FFF7F1
S21400162079BF000008B54FF4C070FFF7E1FBBDE8D6
S2140016300840044988428CBF022101214FF42070E3
S214001640FFF768BF80F0FA02B0F5807F70B50C46F1
S21400165000F00C812CD8382800F0A48111D824384A
S21400166083B2092B16D8092814D8DFE810F0E40056
S214001670E400E400E40013001300CF001300490068
S2140016805301522800F0D78007D83D2853D03E2873
S21400169000F09F8140F6662122E18028FAD18B1E59
S2140016A0052B00F2A880DFE803F0A394A6AEA66799
S2140016B0B0F5D06F00F02E8132D8B0F5A06F00F0F4
S2140016C0718116D8B0F5806F00F0B580B0F5906FD8
S2140016D0E0D1023CE4B2052C00F21581A84B195D5E
S2140016E0A84AD2F8243123F007030B43C2F824316A
S2140016F06EE0B0F5B06F00F08980B0F5C06FC9D16C
S214001700083CE4B2032C00F2F0809F4B195D9D4A22
S214001710D2F8403123F003030B43C2F8403157E0C0
S214001720B0F5006FD5D016D8B0F5E06F00F0518157
S214001730B0F5F06FAED1083CE4B2032C00F2DC80CA
S214001740924B195D8F4AD2F8603123F003030B43A6
S214001750C2F860313CE0B0F5086F9BD14C1E072CF8
S21400176000F20481DFE814F007010201090102011A
S214001770020102010001F6000025042601210220D4
S21400178000F096F9FFF738FCFFF746FF4FF480317C
S2140017907F4B7C4A1967136F23F0070333431367A5
S2140017A0FFF73EF80646FFF74DF9C0F10201304656
S2140017B0FFF7AAFE0121002000F0D2F9FFF732FF62
S2140017C0FFF7E2FB25B9032C02D10122714B9A6286
S2140017D070BD4FF400226E4B03265A66012203F5B5
S2140017E040539D6A03F58053C5F340059A62C5E7EA
S2140017F000250126C2E7002540F2DD716648FFF7A6
S21400180020F92E46BAE700250226B7E7022C07D0B5
S2140018100F2C0ED040F621015F48FFF712F9002486
S214001820584AD2F8803123F003031C43C2F88041A3
S214001830CEE70124F4E7032C12D0052C12D0022C9C
S21400184012D040F652015448FFF7FBF800224D49EB
S214001850D1F8203123F003031343C1F82031B7E752
S2140018600222F4E70122F2E70322F0E7A1F10804DE
S214001870082C33D8DFE804F0050532051C32323276
S21400188005004FF480323F4B4449586E03F58053B1
S2140018905A660B6A43F001030B62C1035CBF404B00
S2140018A05A664FF0E022136923F0040313618FE7B2
S2140018B04FF48032334B3949586E03F580535A66DD
S2140018C00B6A23F001030B62C3035CBF344B5A66FA
S2140018D04FF0E022136943F00403E7E740F67A018D
S2140018E0BDE870402C48FFF7ACB840F695012A4892
S2140018F0FFF7A7F800210AE74FF40B612648FFF729
S214001900A0F800211EE740F6D5012348FFF799F816
S2140019100021E5E6083C062C13D8DFE804F004199D
S214001920190E1212100002221649D1F8003223F0C6
S21400193007031343C1F800324AE70322F4E7042200
S214001940F2E740F6F5011448FFF77BF80022EBE7D4
S2140019500122E9E702220B49D1F8003123F0030304
S2140019601343C1F8003133E70322F4E740F63111A0
S2140019700948FFF766F80022EDE70122EBE700BF13
S214001980B93B020000800040B53B0200B53B0200B8
S2140019900090004000E00040403B020000C00740CE
S2140019A000A000400F2C10D0102C10D040F676115E
S2140019B01348FFF746F800221249D1F8203223F0E8
S2140019C003031343C1F8203202E70122F4E70222A0
S2140019D0F2E7083CE4B2032C0AD80B4B195D094A1F
S2140019E0D2F8403223F003030B43C2F84032EFE64E
S2140019F040F6CA110248FFF724F80021EFE700BFBF
S214001A00403B020000800040B53B0200EFF3108030
S214001A1072B6704700B962B67047EFF31180302394
S214001A2083F31188704780F311887047194B10B5FF
S214001A301B6873B3184A5268012A2AD0174A8020B6
S214001A40C2F80031FFF7E0FA05281FD14FF4C07046
S214001A50FFF78CF90128044604D102214FF4C07028
S214001A60FFF758FD07220E4B1A610122A3F580539B
S214001A705A60094A1369DB07FCD5012C09D12146B7
S214001A80BDE810404FF4C070FFF744BD0122054B7F
S214001A905A6010BD801D002000C00140008000403C
S214001AA000E0014000D001407047FFF7BFBF0000D4
S214001AB02DE9F0414FF040230446D3F88420D006A9
S214001AC0FBD4D3F88430C3F381139C423FD0FEF797
S214001AD08DFE012C05460BD11E4B984204D940F2D0
S214001AE016611D48FEF7ADFF01212846FFF70CFDE5
S214001AF0FFF78CFF4FF00072184B07465A662046D9
S214001B00FFF7D2FF4FF480634FF04026621E9340EB
S214001B10DFF844803367736E9A0103D4D6F88430B6
S214001B209B060AD53846FFF775FF022C0FD12846CC
S214001B30BDE8F0410021FFF7E7BCD6F884309906EF
S214001B40E9D540F224614046FEF77BFFE3E7BDE8B7
S214001B50F08100BF005A6202BF3B020000600040F6
S214001B6007B518B90191FEF741FE0199064B1B789F
S214001B7043B1064B984205D8012003B05DF804EB4C
S214001B80FFF796BF0220F8E7841D0020005A620285
S214001B900278034B012100201A70FFF7E1BF00BF57
S214001BA0841D00204FF04022536F417823F4407389
S214001BB043EA0123536770474FF04022D36E017902
S214001BC023F030030B43D366704700004FF000420B
S214001BD010B501244AF6CD31144B5A66144A03F563
S214001BE00B2354605A6C1964224078B9996811F036
S214001BF0010F104903D08C60D86AC007FCD50123BA
S214001C004B6012B10C4B0D4A1A6410BDD96A090715
S214001C10FCD42021074B59620121A3F5805399601B
S214001C2005494B6A9B06FCD5EBE700BF00900040D9
S214001C300050094000600940004009403254FFFF50
S214001C404FF0004238B5184B184C5A66012203F57F
S214001C500C235A604AF6CD33656C236443781540EE
S214001C60934013434FF04022D363A368827823F057
S214001C70740343EA0213C278002A14BF0422002227
S214001C801343A3600279837943EA022323614279EE
S214001C90C37943EA022363610078FFF797FF0DB12B
S214001CA0034B2364012038BD0090004000400940EB
S214001CB03254FFFFC36C0B42FCD1704708B5436833
S214001CC00246DB0714D50A2350210363FFF7F2FF11
S214001CD0136C9907FCD1936A012110469362FFF7B3
S214001CE0E9FF136C1B0604D4012302F5005253606F
S214001CF008BD536BF5E7000010B50446FFF7DEFF9E
S214001D00002341F202020849E360A360226104F561
S214001D100052E3616361A36123626362E362A364CA
S214001D205164A36210BD00BF7F370C0138B5154B58
S214001D30044698420D4604D040F251111248FEF770
S214001D4080FE25B92046BDE83840FFF7B7BF012220
S214001D5004F580535A6040F2FF71204605F00F02EA
S214001D60FFF7A8FF22637821FFF7A4FF05F0010321
S214001D706A0748BF43F00203226C02F003029A424D
S214001D80FAD138BD0000034A343C0200036C1B063F
S214001D90FCD5406BC0B27047036C5B06FCD5C163D4
S214001DA070470000F8B506460C46174622B940F2C2
S214001DB0F5114148FEF745FE404B9E4278D040F272
S214001DC0FF113D48FEF73DFE44B93B4840F22B313B
S214001DD0FEF737FE2046FFF70BF804467368012B24
S214001DE004D040F22D213448FEF72BFEB16801F0F6
S214001DF0E001402946D009D8B9B1202938D04FF49F
S214001E001A71BDE8F8402C48FEF71BBE602945D085
S214001E108029F4D107EB4703A34204D940F262219C
S214001E202548FEF70EFE012308E0B7EB141F04D981
S214001E3040F24E212048FEF704FE10237B43640147
S214001E40B4FBF3F31E4D203BB5EBC30F4FEAC304C0
S214001E5004D240F273211848FEF7F3FD30462C40BA
S214001E600121FFF727FFB462BDE8F840FFF722BF65
S214001E70B7EBD40F04D940F253210F48FEF7E1FD2B
S214001E800823DBE70625B4FBF5F3BB4204D24FF488
S214001E9016710948FEF7D5FD2B46CFE7B7EB940F32
S214001EA004D940F25D210448FEF7CBFD0423C5E7C4
S214001EB0002C93D138208EE7343C02000000034A01
S214001EC0F8FF7F00436870B504460D4616461BB102
S214001ED040F2FF71FFF7EEFE2046FFF70DFFE9899F
S214001EE06B7B22690B43298A22F44C520B4322F067
S214001EF0030213432361A2682B7B297E22F08042D3
S214001F0022F0E2020B4313436A691343A360AB68F3
S214001F101BB9A36843F00043A360EB69002B52D0C3
S214001F20A268197A42EA8152A260A268997A42EAC5
S214001F304142A2609A88A16802F4C0420A43A260A5
S214001F40A268597842EA8102A260A268597B42EAF6
S214001F50C102A260A268997B42EA0112A260A2684E
S214001F60997842EA8122A260DA799979520242EAA5
S214001F708122E2601A7802F0FD01012908BFE168BB
S214001F80A2F1020204BF41F00401E160012A4FF011
S214001F90010294BF20492149C1F8C0205A7A04F5AD
S214001FA080510A621AB1E26842F40062E260DA7AAC
S214001FB04AB1E26842F40042E2601B7B184A03F032
S214001FC00F03C2F8803036B196F8203004F5805101
S214001FD0ABB101238B6105212046FFF7A7FEAA6857
S214001FE01AB120466968FFF7DDFE20462978FFF71C
S214001FF09DFE236CDB4313F4405FFAD170BD62692B
S21400200096F8223096F8210022F009020343134383
S21400201043F001034B61DEE700D4034000E40340D5
S2140020200090034038B5294B054698420C463AD0F6
S2140020308A212748FEF705FD002C35D09D2124482F
S214002040FEF7FFFC637B032B03D9A1212048FEF794
S214002050F8FC237B802B03D0A3211D48FEF7F1FC60
S2140020606369B3F1804F03D0A5211948FEF7E9FC58
S214002070238A23F400539BB2B3F5805F03D0A721D5
S2140020801348FEF7DEFCA368013BB3F5165F03D3E7
S214002090A9210F48FEF7D5FC21462846BDE8384062
S2140020A00022FFF70FBF31B98C210948FEF7C9FCA3
S2140020B0064B9D42C2D13820FEF7A6FF0B28C1D0A2
S2140020C0A0F10803DBB2012BBCD9B7E70000034A36
S2140020D0343C020038B5114B054698420C4603D0F6
S2140020E070210F48FEF7ADFC1CB972210C48FEF7B4
S2140020F0A8FC237B802B03D176210948FEF7A1FCA0
S214002100637B032B03D979210548FEF79AFC214609
S2140021102846BDE838400022FFF7D4BE0000034A38
S214002120343C020038B50D460446D8B101281BD011
S21400213002281BD0032803D10346EB40DB0704D458
S21400214040F213410A48FEF77CFC3020012141F2A0
S2140021501003444304F1804401FA05F504F5703495
S214002160E55038BD7F23E8E70723E6E73F23E4E7AB
S214002170AC3C020038B50D460446D8B101281BD049
S21400218002281BD0032803D10346EB40DB0704D408
S2140021904FF479710A48FEF754FC3020012142F2D0
S2140021A01003444304F1804401FA05F504F5703445
S2140021B0E55038BD7F23E8E70723E6E73F23E4E75B
S2140021C0AC3C02002DE9F0410D4616461F468046FF
S2140021D078B301282FD002282FD0032803D1034636
S2140021E0EB40DB0704D440F21D112048FEF729FC23
S2140021F026B12946404617B3FFF794FF302404FB68
S21400220008F4072D04F1804404F570341AD80F2121
S2140022106368AA00914023EA010306FA02F2134318
S214002220636006BB29464046CFB1BDE8F041FFF7E4
S21400223079BF7F23D4E70723D2E73F23D0E7FFF712
S21400224099FFDBE70F21A5F10803E2689B009940A0
S21400225022EA010206FA03F31343E360E1E7BDE86E
S214002260F041FFF787BFBDE8F08100BF233D0200C5
S2140022704FF40032054B9A6641F6713203F51C3373
S214002280DA63012203F50053DA60704700900040DD
S21400229041F671320121064BDA6303F50052D16034
S2140022A00022DA634FF40032A3F518339A667047BB
S2140022B0000003404FF090435A6812B19A6A002A11
S2140022C0FAD17047022838B505460C4603D94C218A
S2140022D00C48FEF7B6FBE378627821785B0143EAA8
S2140022E0820322790B4343EA02130C226A4302F16B
S2140022F090421363012902BFA278034B43F82520BE
S21400230038BD00BF0E3E0200E880034008B54FF01F
S21400231090435A6802B960B15B680BB1FFF7CAFF19
S2140023204FF0904130B10120074B5860FFF7C2FFD5
S214002330C86008BDFFF7BEFF0223CB60FFF7BAFFF9
S2140023400122024B5A60F4E70010004800200048C3
S2140023504FF090435B6870B50BB1FFF7ABFF012100
S214002360104B4578596083780679002BC37814BFE4
S21400237002240024002B14BF042200224379DB0031
S21400238043EA06132B43234313434FF090429360D4
S214002390054B59600378002B14BF0B460223D3600D
S2140023A070BD00BF00200048001000484FF4803287
S2140023B0064B5A6603F5E6235B69C3F38512827003
S2140023C003F03F021B0B4270037070470090004002
S2140023D070B506460C46154622B94FF422710C48D5
S2140023E0FEF72FFB24B94FF42070FEF701FD0446DC
S2140023F06D00013CB4FBF5F4064B250213EA0423FA
S21400240004D040F2A5210248FEF71BFBF56170BD23
S214002410843E0200070080FF194B10B59842044620
S21400242008D003F58043984204D040F22E41154868
S214002430FEF707FB012204F580535A6040F6AA63B4
S21400244041F20502636100230F49A360E365E26081
S21400245004F500522361E361E36491640849A365CF
S2140024608C4202D00948844207D18C42236502D0B0
S214002470064B9C4201D1002363650123536010BDC7
S21400248000C00540843E0200FFFF01000000064039
S21400249038B5304B044698420D4608D003F58043C5
S2140024A0984204D04FF456712B48FEF7CAFA2046DD
S2140024B0FFF7B2FF0122A97B04F580535A602A8AEF
S2140024C0A368002914BF4FF48061002142F0010286
S2140024D013432A7D0B43002A14BF4FF000520022FC
S2140024E0A360A3681343A360AB7C5BB1194AEB7C83
S2140024F0944227D1A2F51032C2F88C31E36D43F036
S2140025008003E3652B7B2046D5E9011243F4805314
S214002510E360FFF75DFF6B7B0BB1102363616B7DA0
S2140025201BB1A36843F48033A360AB7DEA7D1B0731
S214002530120503F0E04302F4E0021343A3652B7890
S214002540636138BD054A944204BFA2F52032C2F842
S2140025509C31D3E700C00540843E020000000640E0
S21400256083695A06FCD5C16383699B06FCD5406A1D
S214002570C0B2704738B50446054D19F047FD0FCC7C
S2140025800FC594E8030085E80300002038BD00BFAF
S214002590881D002047F6FF739A42F0B55ED00229E8
S2140025A05ED8304ECF0016F8313006EBC100012B56
S2140025B085780DD1C3785B1B23B1416831F91310C0
S2140025C0914202DCE818C0B2F0BD013B1BB2F3E753
S2140025D040680028F8D0B0F90030934204DBB0F928
S2140025E002309342B8BF134682883E44FF2A19BF82
S2140025F0C8242821B0F90640B0F90810A4EB03045B
S2140026000CBF0122002294FBF1F47678224414B227
S214002610721EA242A8BF22464FF47A7700EBC2048D
S214002620E188A468013213FB014112B221EAE1718C
S21400263001F5FA71B242B1FBF7F104DA00EBC2041D
S214002640A4888C42EAD200EBC20232F8040C88421C
S21400265028BF0846A84238BF2846B4E7FF20B3E79D
S2140026600020B1E7881D00200229F0B554D82B4879
S21400267000EBC10310F831105C6801290FD198787F
S214002680D978914294BFC0EB0103C0EB0203091A4C
S214002690DBB28B42C8BF002334F91300F0BD002C18
S2140026A03AD09978914202D3B4F90200F6E7D97885
S2140026B0B4F900009142F1D9A1885B78FF294FF068
S2140026C0000114BF03F1FF33023BDBB2251D04F10A
S2140026D00C071FFA82FCCEB2B34216D805EBC10136
S2140026E04FF47A756A43B1F902304968521A03EB1F
S2140026F0D37102EB610292FBF3F29042CEDBB4F9A7
S21400270002009042CADC10B2C8E737F831E04E1C2F
S214002710E645E3D33146DEE70148BFE7881D0020E3
S2140027200080FFFF08B50448FFF724FFBDE8084017
S214002730012019F06DBC00BFFC3E020007B56B46D9
S214002740054A1068516803C36846FFF779FA002007
S21400275003B05DF804FB00BF803F02004FF040224C
S21400276013B50024536F684643F001035367009483
S2140027708DF80440FFF720FA204602B010BD000096
S21400278070B586B001AA1546184B03F1100614461C
S21400279018685968083303C4B3422246F7D119882B
S2140027A09B782180A370124BD3F84C21120314D4CB
S2140027B0D3F85041E4B28DF80E40FEF7F7FD204402
S2140027C080F308008DF80D000A48FEF745F8284605
S2140027D0FEF700FD002006B070BD074B1C884FF6C4
S2140027E0FF739C4208BF7824E5E700BF883F0200DD
S2140027F00080E00F00F049020001E00F08B501205C
S214002800FEF742FE002008BD1FB50B4A01AB10685C
S214002810516803C31189927A19809A70252301A8FA
S2140028208DF80530FEF7C8FD6420FEF727FE002071
S21400283005B05DF804FB00BF9B3F02006FF004028A
S214002840502110B50A480B4C12F0800FD3B21BBFB4
S21400285003F00F03043BA3181B1802F101020CBF80
S21400286083F800131976402AEED1002010BD00BF71
S21400287000ED00E000E100E000F07EB838B501F0C1
S2140028803DF90446E0B901F03FFA4FF416734343AE
S2140028900C4803F5742303F23F23B3FBF0F30A4A14
S2140028A00A4913600A220D680948013A12F0FF022D
S2140028B040F8043BF9D103EBC3022B4413440B60EE
S2140028C0204638BD40420F00DC1D0020A81D002019
S2140028D0AC1D002085210148FEF7B3B8A63F0200D4
S2140028E0012208B5034B1A7001F0E7F9024B186095
S2140028F008BD00BFA41D0020D81D0020F8B5144C4C
S214002900237823B301F0D9F9124B134D1B68134EED
S214002910C01A012838BF0120114B124F18602B78BF
S21400292056F8232046F82300111A3A680E48521A21
S2140029300A213A600932B2FBF1F20133DBB20260DF
S214002940B3FBF1F201FB12332B7000232370F8BDAA
S214002950A41D0020D81D0020D41D0020AC1D002082
S214002960A01D0020A81D0020DC1D0020014B1868BB
S214002970704700BFDC1D002020234FF400220A49C8
S21400298081F82C33094B5A66094A03F5A040426782
S21400299002674FF4805003F540530344C1F88401A6
S2140029A048605A67704700BF00E100E000900040B2
S2140029B0010000A0054B064A1B78916DC90700D59B
S2140029C013B10028F9D1704701207047F41D00208C
S2140029D000C000402DE9F843894B1E6F9D6A9C6A33
S2140029E0F00705F0020504F001044CD501278549DF
S2140029F0854A91F80090DFF834821767B9F1000F26
S214002A0000F0F0800020087098F80010B94200F23C
S214002A10E48002219762A2F5805291629A6DD103FA
S214002A20FCD47A495A6B096822F470620A435A63E6
S214002A307748784A99690068126821F47F01024352
S214002A4021F47F410A439A617348744A19691268EF
S214002A50006821F47F6121F00F0102430A431A61E6
S214002A606F499A69096822F0FF020A439A610223B5
S214002A70002D40F0AE80644A93620123002C00F0E3
S214002A80AA80684A936216F0005200F082805E4B7D
S214002A905C4F1A673B7823B140F215116248FDF788
S214002AA0D0FF4FF0010C614A5849137887F800C0F0
S214002AB063441370524B564F5A6BDFF864E102F4CE
S214002AC0706008609869534900F47F40086099690F
S214002AD001F47F0139609F69FFB2CEF800701F696C
S214002AE0DFF838E107F47C67CEF800701F69DFF87E
S214002AF028E107F03F07CEF800704FF0020E424F75
S214002B00C7F828C0DFF81CC1CCF828E04FF0004E0C
S214002B10CCF828E0D3F858C01CF4803FFAD14FF028
S214002B20004C22F4706242F40072B0F5C84FC7F849
S214002B3028C05A6302D8B1F5C80F0CD9304A3C49B0
S214002B409369096823F47F0323F47F4343EA012350
S214002B5043EA014393612A4A36491369096823F414
S214002B607F6323F00F03880843EA910343EA801348
S214002B701361936923F0FF030B4393610223002D37
S214002B8037D102F5005293620123002C33D0254A38
S214002B909362002E1BDA4FF000421B4B18491A674F
S214002BA0254A12789AB101229A620222A3F580532E
S214002BB09A628A6DD203FCD44FF000429A610222D8
S214002BC005B9114B9A620123BCB1164A9362BDE85F
S214002BD0F883144A50E70C4A54E7FFF77BFE164B7F
S214002BE01F7050E7FFF78AFE00F09CFD88F8009003
S214002BF049E70C4AC7E7044ACAE7034AE6E700BFC4
S214002C0000C00040F41D002000E00040F81D002039
S214002C10F01D0020EC1D0020E81D0020E41D002013
S214002C20E01D002000D0004033400200F51D0020CB
S214002C304410002040100020F61D0020FFF7CABEFA
S214002C4010B50446FEF7E2FE024B1C60FEF7E2FEFD
S214002C50002010BDFC1D002010B5FEF7D7FE034B6C
S214002C601C68FEF7D7FE204610BD00BFFC1D0020E6
S214002C7007B530B9CDE90012FFF7EEFFDDE9001227
S214002C8030B1436823B1006803B05DF804EB184721
S214002C90232003B05DF804FB30B51C4685B058B958
S214002CA0CDE90012FFF7D8FFDDE9001204B903AC46
S214002CB020B9232005B030BD03B903AC8568002DCC
S214002CC0F7D023460068A847F4E70422836A03F592
S214002CD080539A647047000038B50446826A136CC5
S214002CE05B06FCD50023216B1A4694F82E00FFF7EE
S214002CF069FA0023A16B1A4694F83400FFF762FACB
S214002D0094F84C3083B10023216C1A4694F83C00AA
S214002D10FFF758FA94F84C3033B10023A16C1A46EA
S214002D2094F84400FFF74EFA0021A06A094DFEF71A
S214002D30FDFF0021A08DFDF7EFFF284604F15001AE
S214002D40FDF7C0FD2B6813B9034800F0C9FC00204E
S214002D5038BD00BF001E0020041E002010B504462B
S214002D60806AFFF719F80122A36A002003F5805352
S214002D709A6410BD012910B505D8064B1C68503C56
S214002D8014F1500F00D110BDA06A0521FEF7CEFF4A
S214002D90246DF4E7001E00202DE9F0431C4689B0A0
S214002DA00DF11008064689461746002110224046B7
S214002DB0109D1FF0A2FD63793046002B14BF01233F
S214002DC00223CDE90233674B4A460193664B2946F8
S214002DD00093664B00F03EFA0646002840F09B80C3
S214002DE0E3880121AB8563693A20AB63237C85F8D1
S214002DF03430E3682B63237A85F82E30E3692B643E
S214002E00237E85F83C30636AAB6494F8203085F8FE
S214002E1044302368AB62FDF77FFF01230422E1689C
S214002E20207AFFF7CFF9012302226169207CFFF7A1
S214002E30C9F93E7085F84C600121E088FDF76CFF0B
S214002E406379012143BB4FF4C060FDF765FF102195
S214002E50E088FEF7F9FB39462068FFF7E3F8022220
S214002E60434BE168C3F8C020227A42EA0142C3F825
S214002E70D0206169227C42EA0142C3F8CC20237943
S214002E8093B38DF81030013BC7F81C80022B67D82F
S214002E90DFE803F015455E004FF48060FDF73CFF69
S214002EA00F21E088FEF7D0FB39462068FFF712F9BD
S214002EB095F84C3043F0040385F84C30CFE70027F4
S214002EC095F84C3043F0010385F84C30002302227D
S214002ED0E169207EFFF776F9E269237E43EA024342
S214002EE0244AC2F8C43007BB04232068052100F535
S214002EF00052536400F580529364FEF717FF1E4B92
S214002F001B681BB91D491E4800F0D8FB1A4805F17E
S214002F105001FDF7C7FC304609B0BDE8F08395F8D0
S214002F204C3043F0020385F84C3000230422616ADB
S214002F3094F82000FFF746F901230E4A616AC2F8AA
S214002F40C03094F8203043EA0143C2F8C830CBE7DB
S214002F5095F84C30012743F0030385F84C30B5E76D
S214002F602326D8E7D92C0000CB2C00005D2D0000CE
S214002F7000C4034000D40340001E00204810002078
S214002F80041E0020826A38B5936C526C04461340C7
S214002F9059070ED500F0E0F9E8B1A06AFEF7F6FE94
S214002FA00146204600F0E0F90422A36A03F5005328
S214002FB05A64A36A5A6CD2070CD5012503F5005350
S214002FC05D6420469D6400F0EFF918B9A36A03F526
S214002FD080539D6438BD0422A36A03F500539A64A7
S214002FE0E7E700207047FEE74FF4005300204B60F1
S214002FF07047012070470020704707B5002001ABDE
S2140030000190FFF749FE0198002808BF4FF0FF30F7
S21400301003B05DF804FB000010B500201446FFF76F
S21400302027FE18B1BF210248FDF70BFD204610BD54
S214003030C740020090F8233001223BB190F82730B9
S214003040022B03D180F82720184670471346FBE76B
S21400305080F82010704790F82000704790F8240001
S21400306070472DE9F8434FF00008044617461D4602
S214003070C3F800804E1E2B68BB4206D32B68002B7D
S2140030800CBF1B200020BDE8F883FEF7C6FCD4F872
S2140030901490FEF7C8FCB9F1000FEFD0A269E36800
S2140030A0D35C06F8013FE068E3690130984208BF48
S2140030B04046E060FEF7B1FC6369013B6361FEF7E2
S2140030C0B2FC6368204698472B6801332B60D2E732
S2140030D038B50546FEF79AFC04460021284600F05F
S2140030E015FA2046BDE83840FEF794BC2DE9F041BD
S2140030F004460D46164690F82070FEF787FC01231E
S21400310094F8238084F82330FEF784FCB8F1000F8F
S21400311003D194F82600FFF7DBFF2E449FB1AE42A2
S21400312013D02B780A2B03D10D212046236898470D
S2140031302046236815F8011B9847F0E720462368C9
S21400314015F8011B9847B542F8D194F82660FEF7AB
S2140031505DFC05460121304600F0D8F92846FEF70A
S21400316059FC002084F82300BDE8F081002809DB24
S2140031700122430900F01F0002FA00F0024A603301
S21400318042F82300704700BF00E100E070B5044637
S2140031900568FFF761FD844202D10020FFF750FD6D
S2140031A095F92100FFF7E2FF95F92130002B0DDBA2
S2140031B001215A0903F01F0301FA03F314492032D0
S2140031C041F82230BFF34F8FBFF36F8F95F922007F
S2140031D0FFF7CCFF95F92230002B0DDB01215A09B1
S2140031E003F01F0301FA03F30949203241F82230A5
S2140031F0BFF34F8FBFF36F8F00232846C4E9003319
S214003200C4E90433A360AB68BDE87040184700BF4C
S21400321000E100E070B590F8243004460D4681B118
S21400322073B990F82560FEF7F1FB0546012130469C
S21400323000F06CF92846FEF7EDFB012384F82430F5
S21400324070BD002BFCD090F82500FFF741FF84F8F6
S2140032502450F5E7F8B51F46536806460C46154653
S214003260002B63D09368002B62D0282200212046D2
S2140032701FF043FB6B682046A361AB68E3612B7BC2
S2140032802760012784F82030069B6360079BA360B5
S2140032902B7884F821306B7884F82230254B346004
S2140032A07360254BB360254B3361254B7361254B0B
S2140032B0F360254B3362254B84F82770B361244BAB
S2140032C0F3619DF8243084F8237084F826309DF846
S2140032D0203084F825300023697B84F82430FFF7FB
S2140032E099FF95F90100FFF741FF95F90130002B92
S2140032F006DB5A0903F01F039F40164B43F8227063
S21400330095F90000FFF732FF95F90030002B08DB37
S2140033100122590903F01F0302FA03F30D4A42F88B
S21400332021303046FFF78CFC0020F8BD2220FCE759
S2140033302120FAE7ED300000633000005130000035
S214003340573000008D310000353000001532000087
S2140033505D30000000E100E04269C06982422CBF97
S214003360002001207047000038B54269C369044652
S2140033709A420D4604D34FF4AF710A48FDF761FB3D
S2140033802369A269D5546269236901326261E269E0
S21400339001339342236104BF00232361042384F88E
S2140033A0273038BD5B41020090F8233010B5044644
S2140033B04BB9012380F8233090F82600FFF788FEEB
S2140033C0022384F8273094F8230010BD034B1B78A3
S2140033D0002B14BF01200220704700BF201E0020D3
S2140033E00329F8B505460E4607D8174B5C5C032D37
S2140033F019D8DFE805F0090F121540F29D21134891
S214003400FDF71FFB0024F2E744F00204104B1F6890
S2140034107FB9F8BD44F00804F8E744F02004F5E767
S21400342044F08004F2E740F2B2210848FDF709FBB9
S214003430ECE77B681A68144203D0314628465B687E
S21400344098473F68E4E700BF74420200E541020087
S2140034501C1E002038B5104D2B78ABB10F4C2378CE
S2140034601BB100F02FFA00232370002000F04CFA66
S2140034700B4C50B100F052FA0023012120782B703B
S214003480FFF7AEFF0123237038BD0122054B1A70EB
S2140034902278054B1A70F7E7191E0020151E00202B
S2140034A00C1E0020181E0020281E002070B5FEF7F7
S2140034B0ADFA114E054633788BB900F01FFB044673
S2140034C020B12846FEF7A6FA204670BD00F01CFC88
S2140034D00A4B18600A48FDF7E1F90A4B1C6000F039
S2140034E06DF900F039FA084B0024186001232846CD
S2140034F03370FEF78FFAE7E7161E0020241E002022
S2140035001C1E00202C1E0020101E00202DE9F3415A
S214003510441EE3B2012B0D4604D94FF4AC712D487E
S214003520FDF78FFA2C4E335DFF2B05D165B140F2C7
S2140035305B112848FDF785FA335D2BB925B940F2B3
S2140035405D112448FDF77DFA002D14BF0122FF22ED
S214003550335D13443355214E3278012A36D9FFF7AE
S21400356035FF8242044631D91D4FFEF74FFA3B78AD
S2140035701BB31C4D2B781BB901222A701A4A1370F4
S214003580DFF8688098F8003033B1019000F09AF9BF
S2140035900023019888F80030FEF73CFA012000F07E
S2140035A0B3F9FEF733FA2B782BB1019000F0B6F999
S2140035B0002301982B7000233B70FEF72BFA30781F
S2140035C0A04203D02146FFF70BFF347002B0BDE8DF
S2140035D0F08100BFE5410200201E00200C1E0020E6
S2140035E0191E0020141E0020181E0020151E002084
S2140035F070B50446FEF70AFA194D06462B78FF2BDF
S21400360005D164B14FF4C2711648FDF71AFA2B784B
S2140036102BB924B94FF4C3711248FDF712FA124BB6
S2140036201B78022B14D9C4B140F289110D48FDF75E
S21400363008FA01232A7830461344DBB22B70B3FA1B
S21400364083F3BDE87040094A5B091370FEF7E2B9E0
S214003650002C0CBFFF230123ECE7FF23EAE700BFA3
S214003660231E0020E54102000C1E0020221E002022
S21400367068B5FEF7CBF9094B06461B78012B04D834
S214003680FEF7C8F90025284668BD054B1D6800F002
S21400369067F905443046FEF7BDF9F4E70C1E002036
S2140036A02C1E002007B5FEF7B1F90190FFF7D2FEF9
S2140036B0019803B05DF804EBFEF7ACB938B541608D
S2140036C00446FEF7A3F9054621460448FDF7EAF846
S2140036D02846BDE83840FEF79DB900BF1C1E0020F6
S2140036E013B50190FEF792F9044601990448FDF7D8
S2140036F0E9F8204602B0BDE81040FEF78BB900BFDF
S2140037001C1E0020054B1B685843054B00F5742013
S21400371000F23F20B0FBF3F0704700BF241E0020ED
S21400372040420F0038B50B4D2B788BB10A4C2378EE
S21400373073B100F0F3F8094B01211878FFF750FE3B
S21400374000220123064922700A70064A2B70137065
S21400375038BD00BF0C1E0020181E0020281E0020AA
S214003760191E0020171E00207047000073B5114E6A
S21400377004463378834212D000238DF8043080B19B
S21400378002238DF8053001A8FEF70CFA0A4D4020FA
S21400379054B1FFF7B7FF2B68181A2860347002B0D0
S2140037A070BD8DF80500EEE7FFF7ACFF2B681844F8
S2140037B0F3E700BF50100020381E002073B5002429
S2140037C001A88DF80440FEF7E3F920464FF40024E4
S2140037D0FFF7CCFF3449354B0A6F02F007021A6038
S2140037E0D1F82031D1F8240101F580514C664FF410
S2140037F000344C6601F598318969032A00F0070009
S21400380001F002013BD003F003039C1E63426341B8
S214003810022808BF43F001032548264D03700029FF
S21400382039D0214A3BB9D2F8003103F00303591EC0
S2140038304B424B410370D2F8003103F00303022BD6
S2140038401FD0032B20D0012B21D1FCF7FFFF10B394
S214003850194B411EDC680023024608461946C4F38D
S2140038600B04164E013404EB8404E4FB06011EF040
S21400387027FEFFF747FF2B68184428600BE001235C
S214003880C6E7FDF705F8E2E7FCF7F6FFDFE7CA2133
S2140038900B48FDF7D6F86420FFF734FF2B68184472
S2140038A0286002B070BD00BF00800040301E0020BF
S2140038B0351E0020381E002000C0014040420F0088
S2140038C07842020038B50C4B1B786BB10B4C237852
S2140038D07BB90B4B0B4D9A6D12F4803F05D0DB6D18
S2140038E09B0702D50123AB6238BDFEF7F9FF012323
S2140038F0AB6200232370F7E7351E0020341E00203D
S21400390000C0004000D00040034B1B780BB1FFF70F
S21400391051B80120704700BF351E002008B5FEF7DD
S214003920C4F8094A0949136F096823F007030B43D3
S2140039301367074B1B7813B10122064B9A62BDE84A
S2140039400840FCF76DBF00BF00800040301E00201E
S214003950351E002000E000404FF4C870FFF7D2BECE
S21400396008B5054B187818B1FFF700F800EBD00043
S214003970024B1B68184408BD351E0020381E002068
S2140039800122014B1A707047351E002038B500F032
S214003990D3FA094B094A196839B113684C69C51A34
S2140039A0AC4204D323441B1A4B61106003E000238F
S2140039B0001B10604B6138BD541E0020401E0020C6
S2140039C0C38870B504460D463BB9FFF751FE8542E5
S2140039D0064602D2FFF766FE35460F4965610B685C
S2140039E0ABB90C60A36011E0AD1A9A681846656121
S2140039F02AB113465A69AA42F6D950B11A46134656
S214003A008460A36013B15969491B596170BD0020D9
S214003A10F0E70C60F5E700BF541E002038B50F4BEA
S214003A200F4D1C682B6802205B691C4400F0B8FA36
S214003A30204600F089FA00230A492A680B70D088CD
S214003A40800702D501230B7038BD9268002AFBD090
S214003A5050690344012BF2D9F6E700BF401E002050
S214003A60541E0020481E002070B59DF814501646BF
S214003A7005710025049A8560BDF818500446C58077
S214003A80C0E903360D46026029B941610BB1114603
S214003A90984796B13546FDF7C0FF0646FFF776FF16
S214003AA029462046FFF78CFF054B1B68A34201D131
S214003AB0FFF7B4FF3046FDF7B6FF002070BD00BF2D
S214003AC0541E002000220C490B687BB183420AD1A9
S214003AD083687AB1936083681BB15A6941690A4466
S214003AE05A61002070471A469B68EEE70028EFD020
S214003AF0022070470B60EEE7541E002070B5FDF7FD
S214003B008CFF144E05463478FCB9134B1C60134BDF
S214003B101C60134B1C8000F0CBF9012000F040FA2B
S214003B2000F08CFA0F4B0246186020B92846FDF7C5
S214003B307AFF232070BD234640F2E7310A481EF084
S214003B40BFFC0A4B1860012333702846FDF76BFF55
S214003B500020EFE73C1E0020541E0020401E0020E0
S214003B604A1E0020501E002018FCFFFF441E0020A6
S214003B702DE9F0410546F8B1FDF74FFF0F4F064619
S214003B80FFF704FF2846D7F80080FFF79BFF0446A0
S214003B9028B13046FDF747FF2046BDE8F081A8452E
S214003BA03B6803D123B1FFF739FFF2E7002BF0D1D2
S214003BB0022000F001FAECE72224EDE7541E002074
S214003BC070B586B015461E460446059180B1FFF7CF
S214003BD0CFFFBDF82C30002202939DF828302046F7
S214003BE0CDE9006305992B46FFF73EFF06B070BD92
S214003BF02220FBE738B50C46054698B191B1002364
S214003C000B70FDF70AFF0121074B1B680BB12278EA
S214003C101AB1FDF708FF002038BDAB4214BF9B6801
S214003C202170F3E72220F7E7541E0020F0B51F4668
S214003C30002387B00D46164604468DF81730A0B10F
S214003C400DF11701FFF7D6FF9DF817207AB9BDF8DA
S214003C503430294602939DF830302046CDE9007373
S214003C603346FFF701FF07B0F0BD2220FBE7032035
S214003C70F9E7F0B51F46002387B00D461646044602
S214003C808DF81730A8B10DF11701FFF7B3FF9DF8B7
S214003C90173083B9BDF834302A4602939DF8303089
S214003CA02946CDE9007320463346FFF7DDFE07B010
S214003CB0F0BD2220FBE70220F9E738B5FDF7ADFEA0
S214003CC0054600F039F904462846FDF7ACFE2046C6
S214003CD038BD000070B5FDF7A0FE064600F02CF9D2
S214003CE0084B04461D880120ADB200F07DF918B1DE
S214003CF000F022F9044601353046FDF794FE2046D2
S214003D00294670BD4A1E0020014B1868704700BF48
S214003D10501E00200A4B10B51B680C4683420CD37D
S214003D20084B4FF47A7219680023A0FB01011EF0BD
S214003D30C7FB01302060002010BD2120FCE700BF3B
S214003D40441E0020501E00200F4B10B51A689AB172
S214003D504FF47A71531E1342A0FB01010ED1B2FA42
S214003D6082F2C2F11F04531CD243E04001FA03F36F
S214003D70184321FA02F20243104610BD00231EF03B
S214003D809FFB0246F8E700BF501E0020C2072DE941
S214003D90F84F04460BD5414A138801339BB2138073
S214003DA0FFF7F4FD3E4B1B680BB1FFF737FEA3078A
S214003DB071D500F0C1F8DFF8F0904FF00008D9F8A0
S214003DC000700646C71BFDF728FEC346054642465A
S214003DD0334B1C6814B16369BB4219D90021314BBF
S214003DE0B8F1010F197005D122B1D288022A08BF96
S214003DF083F80080002C4AD06369C9F80060DB1B9A
S214003E006361FFF70BFE2846BDE8F84FFDF70BBED3
S214003E1023463A46C9F800605969914209D818798C
S214003E2094F804C0521A844588BF1C469B68002B31
S214003E30F2D12846FDF7F7FD6569C4F814B0FDF722
S214003E40ECFD82462046FFF73DFE5046FDF7EBFDB3
S214003E5023694BB1FDF7E1FD824621692046FFF755
S214003E60AFFD5046FDF7DFFDE36813B1204621683D
S214003E70984700F061F835447F1B82460744FDF7FB
S214003E80CCFD56460546224608F10108A0E702206A
S214003E9000F092F8B7E7BDE8F88F00BF4A1E002092
S214003EA0541E00204C1E0020401E0020002070479C
S214003EB01FB500241D4B012118689A880290D3F87C
S214003EC006009B7A00903E20ADF80C208DF804305A
S214003ED0FCF722FF8DF80840FFF7E8FF8DF80C008E
S214003EE002A8FEF735FA694601208DF80040FEF775
S214003EF0E9F94FF0904240F2FF31936923F47F7363
S214003F0023F0030393610A4B5961936A13F0080385
S214003F10FBD113620120FEF7F9F94FF48052054BEE
S214003F20C3F880211A6004B010BD00BF0E43020023
S214003F300020004800E100E04FF090439A6A120724
S214003F40FCD4186A704700004FF09042936A190735
S214003F50FCD4136A116C5269520604D4CA1A032A96
S214003F6001D88B420ED1C21A022A98BFD81CB0F1D3
S214003F70FF3F38BF01384FF0904318649A6942F00B
S214003F8040029A61054A13783BB14FF09041CB6BE3
S214003F9043F00203CB6300231370704751100020D8
S214003FA082074FF0904200F00103916948BF43F04A
S214003FB040030B4393617047820700F001030AD564
S214003FC00121084A43F0400311704FF09041CA6B3C
S214003FD022F00302CA634FF090418A6922EA030383
S214003FE08B617047511000204FF0904301285B69A9
S214003FF004D0022805D1C3F38010704703F00100F7
S214004000704700207047000010B5FDF706FD4FF022
S214004010904304465B695A06074A03F0010003F022
S214004020510348BF40F002005361FFF7AFFE204641
S214004030BDE81040FDF7F7BC0020004808B53E205C
S214004040FCF7D6FE0346FFF731FF23FA00F008BD63
S21400405008B5FCF755FAFCF78BFAFCF78AFAFCF77A
S21400406093FABDE80840FCF796BA08B5FCF794FA50
S214004070FCF793FAFCF792FABDE80840FCF790BA12
S21400408010B50446FCF7CCFB4FF47A735C43B0FBE8
S214004090F3F30748B0FBF3F0B4FBF0F0022806D9C0
S2140040A0BDE810400323B0FBF3F000F009B810BDE4
S2140040B040420F000000000000000000000000006A
S2140040C0013800D0FCE7704738B50446FDF79EFC83
S2140040D0054620461EF0CAFB04462846FDF79AFC15
S2140040E0204638BD37B504460191FDF78FFC01998F
S2140040F0054620461EF074FB04462846FDF78AFC5B
S214004100204603B030BD38B50546FDF77FFC0446B3
S21400411028461EF0B3FB2046BDE83840FDF77ABCC3
S2140041200A4619B1024B00211B681847704700BFAA
S2140041305410002000F4E040B0F5805F04D0A0F5F5
S214004140005358425841704701207047B0F5105F41
S2140041500DD009D8B0F5885F10D0B0F5905F0DD0BF
S21400416041F20103984209D06FF08500704721F0B4
S2140041704003802B02D0B1F5807F06D111F0070FE7
S21400418014BF6FF08600002070476FF086007047FF
S2140041900E4B0340B3F1607F06D1B1F5885F14BFC4
S2140041A06FF0860000207047B3F1707F0BD101F4EA
S2140041B0E043B3F5005F06D111F4E06F0CBF6FF07B
S2140041C08600002070476FF0860070470000C07FB2
S2140041D08A422DE9F04180460D4600F01981944B45
S2140041E0944802EA030181420BD0934922F0FF046F
S2140041F08C4206D0914C22F47F7121F00301A1423B
S2140042001ED12B4083420BD08B4B25F0FF019942E9
S21400421006D08A4925F47F7323F003038B420FD11F
S21400422015F0FF030CD0864943F000738B4207D18C
S2140042306A4032F0FF030CBF01200020BDE8F08189
S21400424005F0FE43B3F1A06F17D102F0FE43B3F1C1
S214004250A06F40F0DF8082EA050333F47E1340F05F
S214004260D98015F40040E9D0C5F30540C2F30542F5
S21400427090428CBF00200120E0E7B3F1407F40F081
S214004280B48002F0FE43B3F1407F40F0C38082EA80
S214004290050333F47E1640F0BD8041462846FFF7FE
S2140042A077FF002840F0B680664C12F47C1704EACC
S2140042B002043AD0B4F1607FC2F305477BD1D3B293
S2140042C043F0007303F17E410139022977D903F1E7
S2140042D07E410439012974D95B498B4275D001317E
S2140042E08B4274D001318B4273D001318B426AD03D
S2140042F001318B4269D001318B4268D003318B4249
S21400430063D001318B4262D001318B4261D00131E2
S2140043108B4208BF402615F47C1FC5F305435AD1CF
S214004320BE4214BF0020012088E7B4F1607F2CD184
S214004330D3B243F0007303F17E41013902296BD9F1
S21400434003F17E410439012968D93F498B4269D07F
S21400435001318B4268D001318B4267D001318B42EC
S2140043605ED001318B425DD001318B425CD003318F
S2140043708B4257D001318B4256D001318B4255D0FB
S21400438001318B4208BF402799E7B4F1707FC2D154
S21400439008F4E043B3F5005F03D10127C8F3022316
S2140043A09F4008F4E043B3F5005FB4D10126C8F39C
S2140043B002239E40AFE7B4F1707FACD1F1E7102640
S2140043C0A9E71426A7E74026A5E71C26A3E720268C
S2140043D0A1E730269FE712F47C1F01D1B34217D025
S2140043E02A047FF52BAFBB4243E7B3F1106F11D120
S2140043F025F01F6323F4702363B902F0FE43B3F184
S214004400106F07D11148104040F01060A84288E7AE
S214004410012013E7002011E7102750E714274EE786
S21400442040274CE71C274AE7202748E7302746E77F
S21400443000FEFFFF0002000600090006000400065A
S214004440FF0000020000C07F080000020000FFF628
S21400445043680A461B0A10B403D05DF8044B00F00C
S21400446077BD4388B3B1018801F4E040B0F5805FC2
S21400447002D0B0F5005F02D10733DB1009E047F247
S214004480010081420AD15B080133DB1003EBC30352
S2140044903B33136000205DF8044B704744F2010084
S2140044A0814202D1DB081033F3E747F20200814273
S2140044B004D1DB0803EB43035A33EAE744F2020075
S2140044C0814204D1DB0803EB43034A33E1E721F0E2
S2140044D0FF01B1F5E24FCFD0B1F5824F04D10733DB
S2140044E0DB105B000133D4E76FF08500D3E70000F4
S2140044F02DE9F843884617461C4600F0F9FE0546A7
S21400450000283FD1D8F80060B6F8009009F4E043E0
S214004510B3F5804FF36808BF27F0010737EA0303B7
S21400452028D17CB3224A24F4FF7323F0010393427C
S2140045300BD0204B24F0FF029A4206D01E4A24F4E9
S2140045407F7323F0030393421FD114F0FF0304D0BC
S2140045501A4A43F0007393421ED0224648463169F9
S214004560FFF736FE074668B9224648467169FFF7E8
S2140045702FFED0B96FF0840500233046C8F800300F
S21400458000F0F6FE2846BDE8F88304F0FE43B3F1DB
S214004590407F04D12304E0D56FF08605ECE7B3F145
S2140045A0A06FF7D0054B9C42D6E73D46EAE700BF32
S2140045B0000200060009000600040006FF000002D4
S2140045C038B5037904460D4633B9A36820462B60F8
S2140045D000F0CEFE38B938BDD0E9081200F0B8FFBA
S2140045E00028F2D0F7E700232B60F4E700232DE93C
S2140045F0F341D0E9016804460F4630461146136081
S21400460000F0C0FE054688B9304600F0BDFE0546FF
S21400461060B9F6B276B9B8F1000F05D1E36823F4B5
S214004620FE4323F0030363B16FF08605284602B00D
S214004630BDE8F0810146A06800F0B0FD0028EDD18D
S214004640F2E74FF6F87362889A421CD8238B23F061
S2140046500103002BE8D1394601A800F007FE054605
S2140046600028E3D10FCC3F683E460FC694E807000B
S2140046703B7986E807000BB9019BBB603B8B23F0B8
S21400468001033B83D2E76FF08505CFE770B5046A78
S21400469005460E463CB90120FFF724FD286228B1E6
S2140046A020466E6270BD6FF08A00FBE76FF08C00EC
S2140046B0F8E773B50E46114605460192FFF7E6FF8A
S2140046C0044620B93146019A286A1EF0EFF82046C3
S2140046D002B070BD2DE9F041089E88461F4604884A
S2140046E022B96FF085042046BDE8F0812046FFF72A
S2140046F021FD0028F5D033680BB9D3003360B2F142
S214004700005FEED24FF6F87331689942E9D820463A
S214004710FFF71CFD04460028E5D1CD1D0699EB08E1
S214004720B1EBD50F0BD393420CD1414638461EF061
S214004730BDF83368079A0733DB081360D3E76FF0DA
S2140047408904D0E76FF08604CDE710B50446006A0A
S21400475010B1616AFFF7E4FC206AFFF7D4FC002082
S214004760C4E9080010BD38B50446FFF7EEFFE3695C
S2140047702822012B0CBF05466FF096050021204627
S2140047801EF0BBF8284638BD13B5044660B101A933
S21400479000F0AEFD044638B90198C369012B06D96E
S2140047A000F0E6FD6FF08304204602B010BD0379EA
S2140047B01BB1806800F022FE04460198FFF7D3FF85
S2140047C0002C08BF0446EFE72DE9F0411E46002303
S2140047D088B0054688461746CDE90433079233600D
S2140047E0002A4CD005AA04A9FFF700FF0446D0B95A
S2140047F0284607A9FFF72CFE0446A0B90498036ACA
S214004800B3B1049B41465A882846069206AA0292ED
S21400481003F1240201925A6A00921B6A3A4600F09B
S21400482007FC044658B1049800B3FFF79CFF1DE050
S2140048300799FFF72BFF04460028E2D0F3E7049819
S214004840069B4288B2B943802B8813B102889A42ED
S21400485012D12B6A83B96B8813B142889A420BD166
S2140048603146FFF7ADFE04460028DCD1204608B0EE
S214004870BDE8F0819A42E7D06FF08604D3E76FF088
S2140048808604F3E7036810B5044653B100F07DFCD8
S21400489000232360A38823F4FF7323F00103A3807F
S2140048A010BD1846FCE700002DE9F04105461F46FE
S2140048B02B68084616468CB0002B40F0F18002F0BC
S2140048C0FE43B3F1407F40F0EE80002F134602A96E
S2140048D014BF4FF480524FF40052FFF709FE002831
S2140048E040F0CC80DDF8088003ACC446CDE90A0071
S2140048F0BCE80F000FC49CE8070084E807003046B9
S214004900BDF80C10FFF744FC0446002840F0AD80CC
S2140049106B7916F47C1F67F300036B7105D0C6F342
S2140049200544032C2C710FD876E0604B3340B3F16E
S214004930607F74D1F3B243F0007303F17E42013A14
S214004940022A3AD810242C71584B3340B3F1607FBA
S21400495073D1F3B243F0007303F17E42013A022AA8
S21400496040F28F8003F17E42043A012A40F28B80A7
S2140049704F4A934200F089800132934200F08780CC
S2140049800132934200F085800132934200F083802A
S2140049900132934279D00132934278D00332934267
S2140049A073D00132934272D00132934271D00132F9
S2140049B0934270D06FF0860457E003F17E42043ACB
S2140049C0012A01D81424BEE7394A934201D11C2497
S2140049D0B9E7384A934201D12024B4E7364A9342D5
S2140049E001D13024AFE7354A934201D14024AAE7EB
S2140049F0334A9342EBD001329342EDD003329342D6
S214004A00E5D001329342E7D001329342E9D0013239
S214004A109342EBD000232B716FF0850425E0B3F1B1
S214004A20707FF7D101F4E043B3F5005FF2D10124C3
S214004A30C1F302239C40E4B273E7B3F1707FB9D1AF
S214004A4001F4E043B3F5005FB4D1C1F302230121C2
S214004A5099408C42AED8D8E908232846009603A988
S214004A60DFB100F055FB044610B12846FFF70AFFF9
S214004A70029800F07DFC002C18BF20460CB0BDE864
S214004A80F0811021E5E71421E3E71C21E1E720216E
S214004A90DFE73021DDE74021DBE700F04CFBE2E713
S214004AA06FF08800EAE76FF08600E7E70000C07F57
S214004AB008000002090000020A0000020B000002C3
S214004AC00C0000020123FFF7EFBE38B50368054669
S214004AD014464BB132B100F041FB044610B12846F3
S214004AE0FFF7D0FE204638BD6FF08804FAE71A605C
S214004AF02DE9F0411446026805460F46984602B373
S214004B004279D2071DD50279DAB1A2421CD800F04C
S214004B102EFB064678B92879A04204D22121221A13
S214004B2038441DF0EAFE2846FFF7ACFE002E18BFFC
S214004B303046BDE8F081224621213846C8F80040BC
S214004B40EFE76FF08800F4E76FF08900F1E703689D
S214004B5010B504463BB100F0D2FA00232360237957
S214004B6023F003032371002010BD00002DE9F0415F
S214004B700646012B98463368154608460CBF4FF488
S214004B8080724FF400728CB0002B68D105F0FE43A3
S214004B90B3F1806F66D12B4602A9FFF7A9FC044645
S214004BA0002841D13379314A23F00303954218BFD8
S214004BB043F00103DDF808C03371BCF8003003F49D
S214004BC0E042B2F5005F3BD113F4E06FC3F302207E
S214004BD036D0274A25F4807191420AD002F5007239
S214004BE0954206D0234A954203D0A2F53F42914211
S214004BF026D101228240D2B200236746727103ACEE
S214004C00CDE90A330FCF0FC497E80700B8F1010FBC
S214004C1084E80700DCE908233046009503A91BD189
S214004C2000F02DFA044610B13046FFF790FF0298C8
S214004C3000F09EFB002C18BF20460CB0BDE8F081AB
S214004C4042F20402934205D10B4A95420CBF0C2255
S214004C500022D1E70022CFE700F024FAE2E76FF067
S214004C608800EAE76FF08600E7E700BF00444004EC
S214004C700010C00400FF4004000180040123FFF779
S214004C8075BF37B50468054694B1047904F003048B
S214004C90012C0DD0079C0194069C009400F015FA98
S214004CA0044610B12846FFF752FF204603B030BD39
S214004CB06FF08804F9E770B5046805461E46A4B18F
S214004CC0047904F00304012C0FD000F00AFA04461D
S214004CD020B92846BDE87040FFF739BF00232846B4
S214004CE03360FFF734FF204670BD6FF08804FAE7A4
S214004CF037B50C4D0C462B7ADB070FD500230A463A
S214004D000193014601AB284602F05AFC20B9019BEC
S214004D10A34218BF6FF0930003B030BD6FF0880059
S214004D20FAE700BF581E0020034610B50C46114691
S214004D30DA6900880AB91B6A3BB9FFF7FBF938B194
S214004D402046BDE81040FFF7D3BF6FF0860010BDC9
S214004D506FF08500FBE72DE9FF410023CDE9013325
S214004D600B60438806460D46002B00F0878002AA9B
S214004D7001A9FFF73BFC044600BB019B1B6A73B10D
S214004D800199304601F12403D1E9081200F032F906
S214004D900446002875D00198FFF7D7FC0EE072682D
S214004DA0170A60D1B6F8008071884046FFF7C2F94E
S214004DB060B14046FFF7CAF9044660B1019808B1F1
S214004DC0FFF7D1FC204604B0BDE8F08128F0FF03D1
S214004DD0B3F5E24F4FD108F4E043B3F5805F02D05D
S214004DE0B3F5005F02D1CA1DD7100AE047F20103EF
S214004DF098450FD14A080132D21002EBC20202F1E6
S214004E003B07039703990198FFF740FC04460028E8
S214004E10B6D0D3E744F20103984503D1CA0802F19D
S214004E201007EEE747F20203984505D1CA0802EBE1
S214004E30420202F15A07E4E744F20203984505D11C
S214004E40CA0802EB420202F14A07DAE728F0FF003E
S214004E50B0F5E24FC7D0B0F5824F01BFCA1DD210E1
S214004E605200571CCDE7304603A900F071F80446FF
S214004E700028C7D0A2E76FF085049FE76FF086048E
S214004E80A0E729460198FFF79BFB0446002899D027
S214004E9094E7000008B500F0D3F90748037A13F04A
S214004EA0060F03D0082200211DF027FDBDE80840AC
S214004EB00C210148FFF734B9581E002038B5124DB2
S214004EC0297A11F0010102D00024204638BD0822BC
S214004ED028461DF012FD02222B7A62F342032B7243
S214004EE000F0A2F9044660B900F030F810F1860F21
S214004EF0044600D028B92B7A43F001032B72002C0D
S214004F00E2D0FFF7C7FFE0E7581E00202DE9F0418A
S214004F1005460F4690461C469BB119460120FFF7F2
S214004F20E1F8064678B1224641461DF0BFFCE86926
S214004F3008B1FFF7E8F80020C5E907642F80BDE850
S214004F40F0811E46F3E76FF08C00F8E702F036BB00
S214004F50028843884068000A47D102F4E040B0F572
S214004F60805F02D0B0F5005F05D10733DB0863B978
S214004F706FF08500704747F2010082420FD15B0850
S214004F800133DB0803EBC3033B3322F0FF02B2F529
S214004F90824F01D1012BEBD000200B60704744F20A
S214004FA00100824202D1DB081033EEE747F202002E
S214004FB0824204D1DB0803EB43035A33E5E744F2AD
S214004FC00200824204D1DB0803EB43034A33DCE7EA
S214004FD022F0FF00B0F5E24FC7D0B0F5824FC7D140
S214004FE00733DB085B000133CFE700236FF0860052
S214004FF00B6070472DE9F041476804463F0A0D46AE
S2140050001646984611D107887F0407D44346324691
S21400501029462046BDE8F041FFF786BE02F06AF852
S21400502010F1860FF2D0BDE8F0816FF08600FAE747
S2140050302DE9F04F456885B02D0A0446DDE90E7A65
S214005040894616469846DDF840B013D1CDE901AB47
S214005050009702F0BFF810F1860F0DD14346324696
S21400506049462046CDE90FAB0E9705B0BDE8F04F98
S214005070FFF730BB6FF0860005B0BDE8F08F13B5C4
S21400508004464868000A0AD10498009004F1080013
S21400509001F0CEFD08B90623236002B010BD6FF004
S2140050A08600FAE713B504464868000A0AD1049851
S2140050B0009004F1080001F009FE08B906232360F9
S2140050C002B010BD6FF08600FAE770B40668062ED0
S2140050D003D170BC083001F047BE6FF0860070BC8C
S2140050E0704710B40468062C04D15DF8044B0830F1
S2140050F001F0D8BF6FF086005DF8044B7047036878
S214005100062B02D1083001F0EDBF6FF08600704725
S21400511013B504464868000A0AD10498009004F1C2
S214005120080002F05FF908B90623236002B010BD3C
S2140051306FF08600FAE713B504464868000A0AD1FD
S2140051400498009004F1080002F07EF908B90623DE
S214005150236002B010BD6FF08600FAE70368062BE6
S21400516002D1083002F072B96FF08600704710B4B2
S2140051700468062C04D15DF8044B083002F0B6B97A
S2140051806FF086005DF8044B70470368062B02D16B
S214005190083002F0FFB96FF0860070476FF04043AA
S2140051A0421E9A4208D329B100F1404098428CBF73
S2140051B000210121084670470121FBE700F100426B
S2140051C00732062A38B504460D4609D82821154B5D
S2140051D001FB02339A6882420FD06FF08B0038BD15
S2140051E00121FFF7DBFFB0B10E48002203468168BD
S2140051F0A1420AD1282101FB0233DA69511C0DD0E5
S2140052000132DA6100202B60E9E70132072A00F15B
S2140052102800ECD1E1E76FF08700E0E76FF096003A
S214005220DDE700BF641E0020044A002092F8183113
S21400523043F0010382F81831704700BF641E002057
S214005240F8B5094C0725264601272046E761FFF7F3
S2140052508AFA013D04F12804F7D196F8183165F36F
S214005260000386F81831F8BD641E0020F8B51E4C01
S214005270064694F818310F46D8072ED50025234643
S214005280294618881A46A8B12DB91A791AB1DA69CA
S214005290002A08BF1D460131072903F12803F0D173
S2140052A015B96FF08C001AE001232846EB61FFF772
S2140052B05AFA2A46D369591C02D16FF096000EE0BE
S2140052C000200133D361141B084BE4105C4304F147
S2140052D00044073C34603A60F8BD6FF08800002355
S2140052E03B603360F8E700BF641E0020CDCCCCCC1A
S2140052F00023F0B50B601D4B074693F818310D469A
S214005300DB0785B02ED5FFF759FF10F18C0F04464A
S21400531025D1294601A8FFF7A9FF0446F8B90123BD
S2140053202E68CDE90200B7603046736003AA02A972
S21400533000F067F9044628B9DDE902123046FFF7A7
S214005340B8F90446DDE9020100F051F93CB12868DD
S214005350FFF709FA14F18C0F08BF6FF08704204698
S21400536005B0F0BD6FF08804F9E700BF641E0020AA
S21400537038B1C3691BB1013BC361002070476FF0B1
S21400538096007047002070470020704737B50C46DF
S21400539001A90546FFF7ACFF40B1002310F1880FC6
S2140053A008BF6FF08B00236003B030BD0198256006
S2140053B0FFF7DEFFF8E707B540B101A9FFF7FEFEED
S2140053C038B110F18C0F08BF6FF0870003B05DF89E
S2140053D004FB0198C369012B02D8FFF7C4F9F5E76F
S2140053E0FFF7C6FFF2E707B500216A4600F04EFB5E
S2140053F08C3018BF012003B05DF804FB13B5002104
S2140054006A46044600F042FB8C3002D1002002B00F
S21400541010BD0021204600F065FB014628B96A460B
S214005420204600F033FB8C30F0D06FF09800EEE7AB
S214005430F8B515460E4607460822184621491C466A
S2140054401DF034FA002323726372A372E3726B6852
S21400545039461A0A237362731A0C1B0EA273E3737F
S2140054602B8804F1240023741B0A63746B88A374CE
S2140054701B0AE374EB681A0A237562751A0C1B0E76
S214005480A275E3752B691A0A237662761A0C1B0E30
S214005490A276E3766B6984F820601A0A237762772F
S2140054A01A0C1B0EE377330A84F82130330CA277EC
S2140054B084F82230330E324684F82330BDE8F840B4
S2140054C01DF0F4B9194302002DE9F84323290446D8
S2140054D00F4691469846089E04D86FF098052846D1
S2140054E0BDE8F883082219491DF0D0F905460028C2
S2140054F0F3D1A368002BF0D1216A243FB942C8F843
S2140055000010EAD8B1F5005FE7D271B9C9F800001B
S214005510E3687360238A3380638A73806369F36009
S214005520A3693361E3697361D9E70120FEF7DAFD09
S214005530C9F8000030B1D8F8002004F124011DF0AD
S214005540B5F9E5E76FF08C05C9E700BF194302001F
S2140055502DE9FF4106461446884600293ED0002A1B
S2140055603CD0B2F5005F3CD202F124073946012058
S214005570FEF7B8FD0546B8B3034632462146404618
S214005580FFF756FFB66800243046FFF72CFF0128C9
S2140055901ED021462B463A463046009400F096F937
S2140055A00146C0B9304602AA00F070FA044620B997
S2140055B0029B9F4205D06FF098043046002100F011
S2140055C091FA2846FEF79FFD204604B0BDE8F0811C
S2140055D06FF08A04F5E76FF09804F2E76FF0860440
S2140055E0F2E76FF08D04EFE76FF08C04ECE710B590
S2140055F0044608B1FEF794FD2046BDE81040FEF7CD
S21400560082BD2DE9F047D0F808A086B081460F4647
S21400561016465046002104AA00F038FA044610BB8D
S214005620DDF8108001204146FEF75CFD05460028A7
S21400563035D02146504604AA039400F027FA0446C3
S21400564070B903AB02462146CDE9005350464346A7
S21400565000F0C0F9039B0446984508D06FF0980404
S2140056602846FEF750FD204606B0BDE8F087002825
S214005670F6D133463A4641462846CDF80090FFF725
S21400568023FF04460028EBD13B682BB13368002B80
S21400569008BF6FF09104E3E76FF09104E0E76FF066
S2140056A08C04E0E70020704708B5FFF7FBFF18B151
S2140056B035210448FBF7C5F901F00CFABDE80840AF
S2140056C001F052BA214302000123A0F50320074A45
S2140056D0A0F58070410900F01F0003FA00F052F8B0
S2140056E02130184342F82100704700BF801F002079
S2140056F02DE9F04780460F461E46154688B00AB18B
S214005700002313600EB1002333604FF0100ADFF859
S214005710A09000233A464146D9F80000CDF800A0F4
S21400572015F0B4FC044658BB3A681D4B9A422BD180
S2140057304FF0180A03464146D9F80000CDF800A0FD
S21400574002AA15F0A3FC0446D0B9069B7B60DDE9EF
S2140057500423C7E90223134B3B600DB1C5F800A034
S214005760114C3A680F4B9A4218D14DB146B13346A8
S2140057704146D9F8000002AA15F0DCFC48B1044600
S214005780204608B0BDE8F087002DEAD0C5F800A096
S214005790E7E733682A689B1A3360F1E7034CEFE7C4
S2140057A0D175E105105D175EFEDF00F0FFDF00F04B
S2140057B0181000202DE9F04F93B080460F46FBF7F7
S2140057C0A5F80546002831D1354E3378CBB9354C8F
S2140057D0354A234635481034944294BF00940092CC
S2140057E00068102202A915F0EBFC4FF00009824673
S2140057F00DF1080BCA451BD12D4B9C42E8D1012365
S21400580033702C4E337B002B42D1DFF8B490DFF898
S214005810B4A0DFF8B4B06A0959F8222005F01F03D7
S21400582032FA03F30BD10135812DF4D1224C1EE060
S2140058305BF8040BFFF748FF09F10109DAE70023DC
S21400584005F5032404F580741A46204602A9FFF7DE
S2140058504FFF08B150450ED1DDE904239F4208BF33
S2140058609045E0D10123C6E900873373B460204633
S21400587013B0BDE8F08F114B984201D05845D2D1F5
S2140058800A4B2146186815F0A5FC0028CBD0CDE7BA
S214005890D6E900239F4208BF9045B6D1B468E6E734
S2140058A0941F0020003108008131080018100020E5
S2140058B090310800981F002082310800FFDF00F0BA
S2140058C0801F0020FEDF00F011E000F02DE9F84F09
