S01500006E6574776F726B5F626561636F6E2E7333370E
S21400000000100020F5080000F1080000F1080000CC
S214000010F1080000F1080000F1080000F1080000F7
S214000020F1080000F1080000F1080000F1080000E7
S214000030F1080000F1080000F1080000F1080000D7
S214000040F1080000F1080000F1080000F1080000C7
S214000050F1080000F1080000F1080000F1080000B7
S214000060F1080000F1080000F1080000F1080000A7
S21400007069440000F1080000F1080000F1080000E3
S214000080F1080000F1080000F1080000F108000087
S214000090F1080000F1080000F1080000F108000077
S2140000A0F1080000F1080000F1080000F108000067
S2140000B0F10800007D890200F10800001D9402008E
S2140000C0CD930200C9930200398B020019940200F6
S2140000D0D1930200F1930200D593020071940200BE
S2140000E0496E02001170020059940200F1080000E7
S2140000F04D2E0000F1080000F1080000F108000095
S214000100F1080000F1080000F1080000F108000006
S214000110F1080000F1080000F1080000F1080000F6
S214000120F1080000F1080000F1080000F1080000E6
S214000130F1080000F1080000F1060000FD060000CE
S21400014010B5054C237833B9044B13B1044800E0CE
S21400015000BF0123237010BD18140020000000000B
S2140001608403030008B5034B1BB10349034800E0B2
S21400017000BF08BD000000001C140020840303001C
S214000180154B002B08BF134B9D46A3F5803A002164
S2140001908B460F461348144A121A29F02CFC0F4BB4
S2140001A0002B00D098470E4B002B00D0984700201D
S2140001B0002104000D000D48002802D00C4800E085
S2140001C000BF29F0B1FB2000290000F0B7F929F0A4
S2140001D085FB00BF000008000010002000000000A3
S2140001E0000000001814002024500020000000002A
S2140001F00000000008B500F009F94FF47A720021FB
S214000200044B05481A60054B1960BDE8084029F004
S214000210F2BB00BFEC3A002034140020E83A00207D
S21400022038B5104C05462268824202DA0E4829F09C
S214000230A1FC2A460D490E4829F0B9FB0D48256059
S21400024029F098FC0C480821094BF022007820F091
S214000250D1F9014620B1BDE83840084829F08ABCEB
S21400026038BD00BFEC3A002098AC0200F03A0020FF
S21400027034140020B8AC020000100020D6AC0200F7
S21400028000F0D8B870B50368514A23F47F4323F0D2
S2140002900703934286B0064605D002F1E062934219
S2140002A05DD006B070BD0DF10F0104A820F024FA51
S2140002B000B1FEE7474C484829F05CFC204620F099
S2140002C02BF900B1FEE702220121207820F070F918
S2140002D0034600B1FEE72078642200934B2120F00D
S2140002E039F9054600B1FEE73C4829F043FC0622F2
S2140002F02B461146207820F0D5F900B1FEE73848A5
S21400030029F038FCF022374B20781968364B02FB70
S2140003100133082120F06EF9044600B1FEE73348A9
S21400032029F028FC00F0C2F8314829F023FC2146C9
S21400033022464FF4004020F005FA014610B12D4841
S21400034029F018FC012100224FF4803020F0FAF941
S21400035001460028A5D0274829F00CFCA1E7037920
S21400036003BBF0241F4D1E4829F004FC2A681E4BD0
S214000370184804FB023308212246007820F03AF998
S214000380014618B11C4829F0F5FBFEE72B6801333F
S2140003902B605C43194B1B689C42C8BF28601348FF
S2140003A029F0E8FB3379012B7FF47BAF00F070F87F
S2140003B0044600283FF475AF114829F0DBFB114BCB
S2140003C01148197829F0D6FB2046FFF729FF68E781
S2140003D0A000010000100020E0AB0200FBAB020012
S2140003E0B8AC0200E83A0020341400201EAC02002C
S2140003F029AC020039AC02005AAC0200EC3A0020EC
S21400040065AC0200F03A00207AAC0200002310B57A
S214000410074C194620680222806829F0D3FB002387
S21400042020680222BDE810401946406829F0CABB81
S2140004308011002010B529F065FA43B2002B14DDB8
S2140004400D2B0E4C05D00A2B03D02368B3F5805F26
S2140004500CD10B490B4829F08DFB01220A4B1A6080
S2140004600A4B22681A600023236010BD40F6FE7215
S2140004709342FAD8024AD0540133F5E73C240020D0
S214000480F03A002000AD020038240020342400207A
S2140004900020044B1A68012A02BF1860024B186835
S2140004A0704700BF382400203424002037B51C4C89
S2140004B01C4829F05FFB204620F02EF8054608B1C0
S2140004C029460CE0184829F055FB202220781146D2
S2140004D000952B4620F03EF8024638B101461348F8
S2140004E029F048FB4FF0FF3003B030BD03212078E1
S2140004F020F0B6F805460028E2D10D4829F03AFB70
S21400050020780C4B0F22294620F074F8044608B1D8
S2140005100146E4E7084829F02DFB2046E4E700BF43
S2140005201010002016AD02004BAD020038AD0200E0
S2140005306CAD0200011000201EAC020008B503F0EE
S214000540B7FFFFF757FE03F0C0FFFFF799FE03F073
S2140005500FFAF8E708B506480BF0FEF905480BF069
S2140005602DFA14F093F8BDE8084017F0DBBE00BF84
S214000570CCAD0200B4AD02000120704700B5C3B098
S2140005800BF044FB0BF06DFB48B1FFF7F5FF30B105
S21400059001A81FF0BBFF10B901A8FFF773FE43B018
S2140005A05DF804FB00F0F0B808B50321802001F0E8
S2140005B0D1F808214FF4C06001F0CCF808214FF4C0
S2140005C0F06001F0C7F808213E2001F0C3F80821CA
S2140005D02D2001F0BFF8002008BD0000194B10B513
S2140005E01B68C3F30743012B10D1174B4FF480222F
S2140005F0596E41F2640049034FF0040458BF42F2BA
S21400060064011A501148046058BF5A5002F004FAA8
S21400061000F0D0F802F090F902F01CFA02F0AEF901
S21400062002F0DAF902F0DEF9FFF7BEFF02F094F905
S21400063000F0B3F800F018FA03F0C2FBBDE8104073
S21400064003F09AB80080E00F0080004020200140B0
S214000650704708B503F07AFC02F0FEF900F046F8A1
S214000660BDE8084006F0EAB808B502F059F9BDE85A
S2140006700840FFF76FBF704770477047FFF77EBFB1
S2140006807047000070B5154C98B006AD0FCC0FC57E
S21400069094E80F0004F1100685E80F000FCE0EADAB
S2140006A00FC50FCE0FC596E80300383485E8030063
S2140006B094E80F0002AD85E80F00094B06AA0093E8
S2140006C029460EAB074802F06BFC044618B15921C8
S2140006D0054800F062FA204618B070BDFCAD020076
S2140006E040240020B424002054AE0200FFF7CABF06
S2140006F0014B186802F044BDB4240020FFF7F8BF91
S214000700014802F087BE00BFB424002001207047D5
S2140007100120704710B50BF0E5FA0446FFF7F6FF28
S214000720002814BF2046002010BD38B503F0DAFDBF
S21400073004460BF0E5FA042817D002284FF000050F
S21400074008BF0124FFF7DCFF042810D0022808BFEA
S2140007500124FFF7DDFF04280BD0022808BF012480
S214000760002D18BF0024204638BD0125EAE70125E4
S214000770EFE70024F7E7042208B51146012300201E
S21400078001F012FE002008BD08B504220023114621
S214000790184601F009FE002008BD08B501213A20E0
S2140007A000F068FBFFF7FEFEFFF7E5FFBDE8084038
S2140007B000F014B801213A2000F05CBB41F270034F
S2140007C00821014AD150704700C0034042F270032E
S2140007D00821014AD150704700C00340F0B587B0E9
S2140007E06C463F4D3F4F0FCD0FC495E8030084E89D
S2140007F00300012401213A2000F03CFB01212820BF
S21400080000F038FB384B6946384602938DF80E40A8
S21400081001F040FF234604220021022001F0C4FD1F
S214000820224621460023022001F0BEFD0221234677
S2140008300846042201F0B8FD0422032123460220C4
S21400084001F0B2FD4FF00213284D0226C5F83036EF
S214000850A3F58033C5F82C361C23C5F834664FF450
S2140008604870C5F81C3603F03BFEFFF7AFFF1420B8
S21400087003F036FEFFF7A2FF232003F031FEFFF75A
S214000880A5FFB921384601F06DFFFFF797FF00235B
S21400089030461A46194601F087FD002321461A46BF
S2140008A0304601F081FD234631463046002201F0F5
S2140008B07BFD234600220321304601F075FD3846B5
S2140008C001F0AAFE00212820C5F83016C5F82C161F
S2140008D0C5F83416C5F81C1600F0CCFA07B0F0BD03
S2140008E084AE020000C0054000127A0000C003403B
S2140008F0FEE7000008B500F013F8064A064B074965
S2140009008B4201D3FFF73CFC52F8040F43F8040B6C
S214000910F6E700BF8803030000100020181400202C
S214000920044B054A9A60D3F8882042F47002C3F854
S2140009308820704700ED00E000000000014B1868BA
S214000940704700BF18100020084B1B6F03F007030A
S214000950022B04D0032B05D0012B05D0FEE7044B59
S21400096018687047034BFBE7034870470080004059
S214000970181000201C100020002D310108B5FFF7CC
S214000980E3FF054B1B6FC3F303330133B0FBF3F0F8
S214000990024B186008BD00BF008000401410002005
S2140009A00048704700B4C404014B1868704700BF85
S2140009B01C100020054B1860054B1B6F03F0070347
S2140009C0032B01D1FFF7DABF704700BF1C100020D1
S2140009D0008000400020704700487047002D31011D
S2140009E04FF4004070474FF47A707047014B186818
S2140009F0704700BF201000200023036070470000EF
S214000A0038B504460D4601B118B93921034800F03F
S214000A10C4F823682B60256038BD00BF9CAE02007A
S214000A2038B504460D4601B118B97D21054800F0D9
S214000A30B4F823681BB1AB4202D12B68236038BDE3
S214000A401C46F6E79CAE0200054A064913681844A1
S214000A5088428CBF4FF0FF3310601846704700BFC7
S214000A602410002000800020024B1968024B1868F2
S214000A700AF020BA2C100020281000207047000032
S214000A8070B59400224605460E462AF0A1F8431C8F
S214000A9002D018B1064800E0064870BD224631462E
S214000AA0284628F075FF0028034808BF0020F4E712
S214000AB024E000F021E000F010E000F013B504465A
S214000AC001A801F06BFD9DF80630012223804FF44B
S214000AD0807300206380054B9B680A3303F01F0376
S214000AE002FA03F3636002B010BD00BF0080E00F9F
S214000AF001F0C2BC08B501F0ABFC002008BD10B583
S214000B00044644EA010313F00303084609D193425E
S214000B1001D1002010BD54F8231040F823100133F3
S214000B20F5E79200214628F042FFF2E710B50446AA
S214000B302AF046F8431C02D018B10C4800E00C48D6
S214000B4010BD0C4B20469B680A3303F01F0201239E
S214000B50934023F003032344984201D10020EFE79B
S214000B6050F8042B0132F7D00348E9E724E000F000
S214000B7021E000F00080E00F0EE000F008B500F085
S214000B809DFF014B186008BD404B0020014B1868C4
S214000B9000F098BF404B00207047FEE7054A1368F8
S214000BA0DB06FCD44FF04023D3F88400C0F381105A
S214000BB0704700BF8440004038B5124B0546D3F856
S214000BC020310C4603F00303022B0BD0032B0DD071
S214000BD0012B0FD1FFF7B2FE052305B1286004B143
S214000BE0237038BDFFF7E0FE0323F6E7FFF7F4FEB9
S214000BF00223F2E7044840F6BC51FFF7CEFF00237D
S214000C001846EAE70080004038AF0200F7B5002437
S214000C10114B0194D3F88051074605F00305012DCA
S214000C200E4607D0022D11D040F6EA610B48FFF7BA
S214000C30B4FF04E0214601A8FFF7BEFF0D240FB164
S214000C40019B3B6006B1347003B0F0BDFFF7C4FEF5
S214000C502C460190F3E700BF0080004038AF02004A
S214000C6038B5194B0546D3F824310C4603F0070374
S214000C70013B052B20D8DFE803F0030F171B0B13EF
S214000C80FFF75CFE052305B1286004B1237038BD6C
S214000C90FFF754FE0623F6E7FFF786FE0323F2E788
S214000CA0FFF782FE0423EEE7FFF796FE0223EAE74D
S214000CB0FFF790FE0723E6E7044840F20621FFF719
S214000CC06CFF00231846DEE70080004038AF0200C5
S214000CD038B5124B0546D3F840310C4603F00303F3
S214000CE0022B0BD0032B0DD0012B0FD1FFF778FE74
S214000CF0092305B1286004B1237038BDFFF776FEDE
S214000D000823F6E7FFF76FFE0A23F2E7044840F6EB
S214000D10EE51FFF742FF00231846EAE70080004046
S214000D2038AF020038B5154B0546D3F800320C46EE
S214000D3003F00703013B032B18D8DFE803F0020A91
S214000D400E12FFF74DFE092305B1286004B123708B
S214000D5038BDFFF74BFE0823F6E7FFF744FE0A23ED
S214000D60F2E7FFF70BFE0C23800AEDE7044840F697
S214000D70A971FFF712FF00231846E5E70080004040
S214000D8038AF020038B5124B0546D3F840320C4651
S214000D9003F00303022B0BD0032B0DD0012B0FD136
S214000DA0FFF71EFE092305B1286004B1237038BD85
S214000DB0FFF71CFE0823F6E7FFF715FE0A23F2E707
S214000DC0044840F63871FFF7E8FE00231846EAE7C5
S214000DD00080004038AF020038B5124B0546D3F805
S214000DE060310C4603F00303022B0BD0032B0DD00F
S214000DF0012B0FD1FFF7F4FD092305B1286004B1DC
S214000E00237038BDFFF7F2FD0823F6E7FFF7EBFD8A
S214000E100A23F2E704484FF46261FFF7BEFE0023A0
S214000E201846EAE70080004038AF02000F4B10B4C7
S214000E30D3F820320A4603F00303012B0ED0022B10
S214000E4010D008B1002303600AB10023137040F2EB
S214000E50352107485DF8044BFFF79FBE5DF8044B4D
S214000E60FFF7AABE5DF8044BFFF732BF00800040D4
S214000E7038AF020070B5440905460E460DD1F6217E
S214000E800D48FFF78AFE05F01F058EB104F5805366
S214000E90012202FA05F51D6070BD012C06D0074A36
S214000EA0074B022C14BF14461C46ECE7054CEAE739
S214000EB004F50053ECE700BF38AF02006082004044
S214000EC06880004064800040B0F5007F10B52FD0E9
S214000ED005D8D0B1B0F5C07F17D0002426E0B0F515
S214000EE0207F2BD0B0F5607FF7D1174BD3F880402A
S214000EF0C4F30114012C19D9032C17D040F2296130
S214000F001248FFF74AFE022410E00F4B1C6FC4F392
S214000F100334012C0AD9032C08D0072C06D00F2C3A
S214000F2004D040F21B610948FFF737FE601C10BD75
S214000F30054BD3F89040C4F30464F7E7024B1C6FEC
S214000F40C4F38024F2E700BF0080004038AF020000
S214000F50002337B53E280446019300F0BA8045D8F2
S214000F602B282BD022D8232816D00FD820284CD0B8
S214000F7007D8002849D040F2C9115848FFF70DFE9F
S214000F8087E0212808D022283FD0F4E7292800F25D
S214000F9096802828C0F08980FFF7F0FC04464FF4BE
S214000FA02070FFF791FFB4FBF0F071E0312810D805
S214000FB02F28F1D22D2800F0878056D9FFF7DEFCC7
S214000FC004464FF42070FFF77FFFB4FBF0F04008B4
S214000FD05EE03C2855D83A28DED238286AD0392830
S214000FE0C9D1002101A8FFF73BFE52E0B0F5007F13
S214000FF052D01BD8522858D00AD84D2805D002D82F
S2140010003F28C9D0B7E74F28B5D3FFF7B7FC3FE076
S21400101080283BD004D8A0F16004012CF5D9AAE7BB
S214001020B0F5807F21D0B0F5C07FADE7B0F5A06FFA
S21400103040D010D8B0F5607F2ED006D8B0F5207F0F
S214001040AAD0B0F5407FB9D095E7B0F5806F2CD028
S214001050B0F5906FC4E7B0F5D06F35D00AD8B0F5CC
S214001060B06F2CD0B0F5C06F85D1002101A8FFF776
S2140010702FFE0EE0B0F5E06F2BD0B0F5F06F7FF4EA
S2140010807AAF002101A8FFF7A7FE02E0FFF75CFC9D
S2140010900190019803B030BDFFF756FC0546204688
S2140010A0FFF712FFB5FBF0F0F2E7002101A8FFF70B
S2140010B083FDEEE7002101A8FFF7B8FEE9E700216F
S2140010C001A8FFF7A3FDE4E7002101A8FFF72AFE29
S2140010D0DFE7002101A8FFF755FEDAE738AF020088
S2140010E008B58020FFF734FF044B98429FBF42F2BA
S2140010F070034FF48031024AD15008BD005A620294
S2140011000080004070B541F268030E464FF400318F
S2140011100E4A0546D1500020FFF7D6FE41F6713242
S2140011200B4B6843DC690B49DA639A68884204F41F
S214001130803422F4401203D9012E18BF42F48012E4
S2140011409A600CB10022DA6370BD00BF00800040D8
S21400115000000340005A620208B5FFF721FCBDE814
S21400116008400021FFF7CEBF002307B5B0F5807F0B
S2140011708DF807300FD030D82D2800F0868010D894
S2140011802A2841D005D82438032831D940F24171A5
S21400119071E02C28FAD10DF107010020FFF798FD29
S2140011A037E03E2844D009D838287ED03D28EDD1F7
S2140011B00DF107010020FFF70FFE2AE0522817D096
S2140011C08028E3D13C4B1B6F03F00703013B032B46
S2140011D04FD8DFE803F04C484666B0F5C06FDAD06B
S2140011E01CD8B0F5906F4AD008D8B0F5806FCDD136
S2140011F00DF107010020FFF7DFFC0AE0B0F5A06F55
S21400120053D0B0F5B06FC1D10DF107010020FFF744
S214001210FDFC9DF8070003B05DF804FBB0F5F06F29
S214001220C6D00BD8B0F5D06F2FD0B0F5E06FADD1EB
S2140012300DF107010020FFF7A5FDEAE7B0F5006F06
S2140012401DD0B0F5086FA1D11B4BD3F8003103F0C9
S2140012500303022B1FD0032B21D0012B23D1FFF732
S214001260A3FB032300E005238DF80730D1E7022314
S214001270FAE740F2B2611148FFF78FFCC9E70DF1BB
S21400128007010020FFF7ECFCC3E70DF10701002083
S214001290FFF748FDBDE7FFF7A9FB0823E4E7FFF7E4
S2140012A099FB0723E0E70123DEE70DF107010020A5
S2140012B0FFF7BCFDADE700BF0080004038AF02007E
S2140012C008B5FFF751FF082804D0092805D04FF6C7
S2140012D0FF7001E0094B188808BD41F264034FF423
S2140012E00011074A4FF6FF70D150064B5B6A13F0A9
S2140012F0010F18BF4FF4FA70EEE700BF4C10002045
S2140013000080004000400240037870B50F2B044672
S21400131004D940F664317048FFF73FFC63780F2B22
S21400132004D940F666316C48FFF737FCA3780F2BDC
S21400133004D940F668316848FFF72FFCE3780F2B96
S21400134004D940F66A316448FFF727FC23790F2B4F
S21400135004D940F66C316048FFF71FFC63793F2BD9
S21400136004D940F66E315C48FFF717FCA3793F2B93
S21400137004D94FF437615848FFF70FFCE379032B85
S21400138004D940F672315448FFF707FC237A032B42
S21400139004D940F674315048FFF7FFFB637B012BFE
S2140013A004D940F675314C48FFF7F7FB8020FFF76D
S2140013B0DBFE032800F0868041F264034FF4002130
S2140013C0464AD15045F60E0302F58042C2F88030F8
S2140013D0022141F22803D15042F228030121D150C4
S2140013E0916D11F48031FBD1637820781B0543EAB8
S2140013F00063A079657C0343E07843EA00432079E4
S21400140043EA0033607943EA801313619369E07A14
S21400141003F000430343E07943EA8063207A43EA1B
S2140014200063607A43EA0043A07A43EA00239361AC
S214001430637B126A002B18BF0821207B22F00D0266
S21400144043EA020343EA800341EA0301A27B244BFA
S2140014504FEA42161962207C35D1996AE27B21F068
S214001460330141F00101314341EA02119962194604
S2140014701C4A9E6D32EA0606FBD1022241F228067D
S2140014809A511A658B6D5B00FCD40B69A27823F425
S214001490700343EA02530B614FF0004241F2180317
S2140014A0CA5018B942F228030222CA5025B942F29D
S2140014B0280301210A4AD150A37C1BB1084B0A4AD3
S2140014C0C3F8802070BD9A6A22F033022A43324362
S2140014D042EA40029A62EFE738AF0200008000401E
S2140014E000C0004003000140F1A7FFFF837810B55D
S2140014F0072B044604D940F62E412B48FFF74DFB38
S214001500E378032B04D940F62F412748FFF745FB25
S2140015102378032B04D94FF443612348FFF73DFBA0
S21400152094F90130002B04DA40F632411E48FFF7EA
S21400153034FB41F264034FF480001C496278C850C3
S2140015404FF4D1511A4B0220596241F204014F2A3E
S214001550585042F204014FF0010028BF4F22585065
S2140015601969C903FCD4217842EA01225A61E2785B
S214001570A178120142EA012261790A43217942EAFE
S21400158041029A60E279A179120142EA4112617A37
S2140015900A43217A42EA41025A60A27A12B16FF4F3
S2140015A0D1525A6210BD00BF38AF02000080004022
S2140015B000000240014B1880704700BF4C1000200E
S2140015C010B50446FFF7F0F90F4B984204D040F6EA
S2140015D079410E48FFF7E1FA41F264034FF4001137
S2140015E00B4AD15002220B4B5A609A6812F4803292
S2140015F0FBD1012C18BF5A624FF0000208BF5C6294
S214001600044B5A6010BD00BF00F0490238AF02001C
S21400161000800040004002400029CCBF012100218C
S214001620FFF770BDB0F5007F10B553D00AD818B3D9
S214001630B0F5C07F20D0BDE8104040F28561364846
S214001640FFF7ABBAB0F5207F56D0B0F5607FF2D189
S2140016504C1E012C06D9042904D040F272612E4893
S214001660FFF79BFA2D4AD2F8803023F0300343EA86
S2140016700413C2F8803010BD102901F1FF3404D8DD
S214001680274B23FA01F1CB0704D440F256612248D7
S214001690FFF783FAFFF760FD00F044F84FF480315F
S2140016A041F270031D4AD150136F23F4704343EA8E
S2140016B004331367FFF762F90446FFF76FFAC0F1C9
S2140016C002012046FFF7A8FF00F032F8BDE8104000
S2140016D0FFF706BD4C1E1F2C04D940F279610E4858
S2140016E0FFF75BFA0D4BD3F8901021F0F85141EA62
S2140016F00461C3F89010BEE74C1E012C04D940F2DA
S2140017007F610548FFF749FA044B196F21F48061A1
S21400171041EA84211967AEE738AF02000080004036
S2140017201601010002214FF42070FFF77BBF000076
S21400173008B54FF4C070FFF70BFCBDE8084004493D
S21400174088428CBF022101214FF42070FFF76ABF48
S21400175080F0FA02B0F5807F70B50C4613D04DD8F5
S2140017602D2800F04A8121D82A2865D009D82438A7
S21400177003284FD9BDE8704040F69911B948FFF7E5
S2140017800CBA2C28F6D1092C00F007810A2C00F0A0
S214001790FB80082C40F0FA800222B349D1F8403191
S2140017A023F003031343C1F84031B9E03E2863D069
S2140017B017D8382800F05C813D28DBD1092C00F0D2
S2140017C0F7800A2C00F0EB80082C40F0EA8002221A
S2140017D0A549D1F8603123F003031343C1F8603103
S2140017E09EE0522816D08028C4D18B1E052B00F20E
S2140017F0AB80DFE803F0A696A9B1A966B0F5C06F86
S214001800C1D02DD8B0F5906F00F0D4800DD8B0F5CB
S214001810806FAFD1032C00F0A480052C00F0B280BE
S214001820022C40F0A88003229CE0B0F5A06F00F0E8
S2140018301F81B0F5B06F9DD1022C08D00D2C00F0A2
S2140018408E8040F2BC718748FFF7A7F90024864ACD
S214001850D2F8803123F003031C43C2F880415FE0D6
S214001860B0F5F06FAAD01AD8B0F5D06F00F0C580EA
S214001870B0F5E06F7FF47EAF092C00F019810A2CDA
S21400188000F00D81082C40F00C8102227649D1F838
S214001890403223F003031343C1F8403240E0B0F572
S2140018A0006F00F08780B0F5086F7FF463AF4C1EC2
S2140018B0072C00F2CD80DFE804F0D0CBD2CBCBCB28
S2140018C0C9BF002504260121022000F0E7F9FFF732
S2140018D043FCFFF727FF4FF4803141F27003624A62
S2140018E0D150136F23F0070333431367FFF746F80F
S2140018F00646FFF753F9C0F102013046FFF78CFEAB
S2140019000121002000F020FAFFF712FFFFF7E8FBA6
S21400191035B9032C04D142F228030121534AD15091
S21400192070BD41F264034FF400214F4A0326D150A4
S21400193041F2280201214D4B9D6A9950C5F340059E
S214001940C1E700250126BEE7002540F2777145482D
S214001950FFF723F92E46B6E700250226B3E7012453
S21400196075E702224049D1F8203123F003031343E0
S214001970C1F82031D4E740F2EE713A48FFF70DF98E
S2140019800022EFE70122EDE7032206E740F60B010F
S2140019903448FFF702F90022FFE60122FDE60322A3
S2140019A016E740F624012F48FFF7F7F800220FE766
S2140019B001220DE7023C052C16D8DFE804F00D03E3
S2140019C0131C110F02232849D1F8242122F0070204
S2140019D01343C1F82431A3E70323F4E70423F2E713
S2140019E00523F0E70623EEE740F64A011D48FFF719
S2140019F0D4F80023E7E70123E5E7083C042C12D8D7
S214001A00DFE804F003180D110F0002221649D1F882
S214001A10003223F007031343C1F8003280E70322A5
S214001A20F4E70422F2E740F668010E48FFF7B5F83F
S214001A300022EBE70122E9E702220B49D1F8003148
S214001A4023F003031343C1F8003169E70322F4E7E8
S214001A5040F6A2010348FFF7A0F80022EDE70122B6
S214001A60EBE700BF38AF02000080004000C0004037
S214001A700D2C12D00E2C09D102220E49D1F820329C
S214001A8023F003031343C1F8203249E740F6CD01A3
S214001A900948FFF782F80022EFE70122EDE703226C
S214001AA0F4E640F61C110448FFF777F80022EDE64E
S214001AB00122EBE60080004038AF0200EFF3108012
S214001AC072B6704700B962B67047EFF311803023E4
S214001AD083F31188704780F31188704738B500F19A
S214001AE01003DBB24F2B04460D4604D94FF44D715C
S214001AF00448FFF752F8044B986800EB840005642E
S214001B0038BD00BFADAF020000ED00E02DE9F843A0
S214001B101D4602F16043B3F5004F06460F461446D5
S214001B20DDF820809DF8249004D340F261311D48F2
S214001B30FFF733F8630604D04FF45A711948FFF7DD
S214001B402CF8AB00013BB3FA83F34FF0FF32C3F13E
S214001B50200302FA03F334EA030304D040F26E31A2
S214001B601048FFF71AF80023AB4203D10E4B9C60D7
S214001B70BDE8F883B9F1000F06D0BB420ED256F886
S214001B80232044F8232005E0BB4254F8232003D248
S214001B90002AF4D00133E7E7002AFBD144F823807B
S214001BA0F8E700BFADAF020000ED00E010B5234B34
S214001BB070B9186041F264014FF40030204A50506A
S214001BC020494968012902D1D2F800211A6010BDC7
S214001BD01B68002BFBD01B4C6268012AF7D0184A02
S214001BE08020C2F80031FFF7BFFA052820D14FF455
S214001BF0C070FFF769F90128044604D102214FF4AA
S214001C00C070FFF70FFD42F2100207210D4B9950EE
S214001C1041F20402012199501A69D207FCD5012C21
S214001C20D5D12146BDE810404FF4C070FFF7FABC8E
S214001C3041F204030122E250C9E700BF182B00203E
S214001C400080004000C0014010B5044610B10020DE
S214001C50FFF7ACFF0C4A136943F00403136101F06D
S214001C60F7FFFFF72BFF28F0A3FFFFF72BFF02F08D
S214001C7003F824B1BDE810400120FFF797BFBDE888
S214001C801040FEF77BBE00BF00ED00E0FFF7DCBFB4
S214001C900020FFF78BBF0120FFF788BF2DE9F0413A
S214001CA00546254A1368D806FCD44FF04023D3F8DF
S214001CB08430C3F381139D423CD0FEF745FE012DD0
S214001CC006460BD11D4B984204D940F21D611C48B4
S214001CD0FEF763FF01213046FFF79EFCFFF7EEFE9E
S214001CE04FF00072174B4FF040241A604FF4806399
S214001CF007466A1E9340DFF848802367636E9A01A2
S214001D0003D4D4F884309B060AD53846FFF7DAFEAB
S214001D10022D0FD13046BDE8F0410021FFF77CBC14
S214001D20D4F884309906E9D540F22B614046FEF798
S214001D3034FFE3E7BDE8F08184400040005A6202C9
S214001D4023B002006460004010B50C4608B9FEF7E8
S214001D50FBFD074B21461B783BB1064B984204D847
S214001D600120BDE81040FFF799BF0220F9E700BF49
S214001D701C2B0020005A62020278034B012100202F
S214001D801A70FFF7E1BF00BF1C2B00204FF0402267
S214001D90536F417823F4407343EA01235367704737
S214001DA04FF04022D36E017923F030030B43D36605
S214001DB07047000041F264034FF00041174A10B527
S214001DC0D150012141F204024AF6CD34144B995009
S214001DD05A6C1C640A4088B99868C40705D542F254
S214001DE008001950D96AC807FCD542F20401012040
S214001DF0585012B10A4B0B4A1A6410BDD96A09072B
S214001E00FCD442F224012020585041F2080101205F
S214001E10585003494B6A9B06FCD5EAE70080004011
S214001E20004009403254FFFF38B54FF0004141F200
S214001E306403184A184CD150012241F20403E250C0
S214001E404AF6CD33656C23644378154093401343BC
S214001E504FF04022D363A368827823F0740343EAEA
S214001E600213C278002A14BF042200221343A36080
S214001E700279837943EA022323614279C3790078A1
S214001E8043EA02236361FFF795FF0DB1034B23641A
S214001E90012038BD00800040004009403254FFFF5A
S214001EA0C36C0B42FCD1704708B50A23502103636C
S214001EB00246FFF7F5FF136C9907FCD1936A0121E0
S214001EC093621046FFF7ECFF136C1B0604D442F235
S214001ED004030121D15008BD536BF5E7436810B5E4
S214001EE0DB07044601D5FFF7DFFF002341F20202BD
S214001EF0E360A360226142F244020549E361636144
S214001F00A36123626362E362A364A150A36210BD6F
S214001F107F370C0138B5174B044698420D4604D05F
S214001F204FF498711448FEF738FE3DB96368D90738
S214001F301ED52046BDE83840FFF7B6BF41F2040381
S214001F40012240F2FF71E250204605F00F02FFF733
S214001F50A7FF78212263FFF7A3FF05F001036A07B6
S214001F6048BF43F00203226C02F003029A42FAD101
S214001F7038BD00BF0000034A98B00200036C1B0681
S214001F80FCD5406BC0B27047036C5B06FCD5C163E2
S214001F9070470000F8B506460C46174622B940F2D0
S214001FA0AD114148FEF7F9FD404B9E4277D04FF405
S214001FB0D8713D48FEF7F1FD44B93B484FF43871FF
S214001FC0FEF7EBFD2046FEF7C3FF04467368012BC1
S214001FD004D040F2DF113448FEF7DFFDB36803F0AB
S214001FE0E003402B45D009D8BBB1202B37D0BDE845
S214001FF0F84040F21B212C48FEF7CFBD602B44D0A2
S214002000802BF4D107EB4703A34204D940F21521F5
S2140020102548FEF7C2FD012308E0B7EB141F04D9DC
S21400202040F201212048FEF7B8FD10237B436401EF
S214002030B4FBF3F41E4D203CE400AC4204D940F25D
S21400204025211948FEF7A9FD2C4001213046FFF74F
S21400205027FFB4620121BDE8F840FFF721BFB7EBC8
S214002060D40F04D940F206210F48FEF796FD082348
S214002070DCE70625B4FBF5F3BB4204D240F20B21A5
S2140020800948FEF78AFD2B46D0E7B7EB940F04D934
S2140020904FF404710448FEF780FD0423C6E7002CC5
S2140020A094D138208FE700BF98B002000000034AA2
S2140020B0F8FF7F00436870B504460D4616461BB110
S2140020C040F2FF71FFF7ECFE2046FFF707FFE989B5
S2140020D06B7B22690B43298A22F44C520B4322F075
S2140020E0030213432361A2682B7B297E22F08042E1
S2140020F022F0E2020B4313436A691343A360AB6802
S2140021001BB9A36843F00043A360EB69002B50D0D3
S214002110A268197A42EA8152A260A268997A42EAD3
S2140021204142A2609A88A16802F4C0420A43A260B3
S214002130A268597842EA8102A260A268597B42EA04
S214002140C102A260A268997B42EA0112A260A2685C
S214002150997842EA8122A260DA799979520242EAB3
S2140021608122E2601A7802F0FD01012908BFE168C9
S214002170A2F1020204BF41F00401E160012A4FF01F
S214002180010294BF204921490A605A7A04F5815118
S2140021900A601AB1E26842F40062E260DA7A42B19A
S2140021A0E26842F40042E2601B7B194A03F00F0328
S2140021B0136036B196F82030BBB141F21803012205
S2140021C0E25005212046FFF7A5FEAA681AB1696805
S2140021D02046FFF7DFFE29782046FFF79BFE236C9C
S2140021E0DB4313F4405FFAD170BD96F8223096F8C0
S2140021F0211062690B4322F0090243F001031343E6
S21400220041F21402A350DCE7C0D40340C0E403400C
S2140022108090034038B5114B054698420C4603D0D3
S2140022206D210F48FEF7B9FC1CB96F210C48FEF76C
S214002230B4FC237B802B03D173210948FEF7ADFC49
S214002240637B032B03D976210548FEF7A6FC2146BF
S2140022502846BDE838400022FFF72CBF0000034A9E
S21400226098B0020070B5264D0646A8420C4603D02C
S21400227089212448FEF791FC1CB98B212148FEF7E2
S2140022808CFCAE423AD13820FEF76EFF0838C0B25A
S214002290022803D9A0211B48FEF77FFC637B032B93
S2140022A003D9A4211748FEF778FC237B802B03D0A4
S2140022B0A6211448FEF771FC6369B3F1804F03D082
S2140022C0A8211048FEF769FC238A23F40053B3F5CF
S2140022D0805F03D0AC210B48FEF75FFCA368013B90
S2140022E0B3F5165F03D3AE210648FEF756FC21462B
S2140022F03046BDE870400022FFF7DCBE0020C5E790
S2140023000000034A98B0020038B50D460446D8B11E
S21400231001281BD002281BD003280CBF0323002350
S214002320EB40DB0704D440F229410A48FEF735FCAF
S2140023303020012141F21003604300F18040A940A3
S21400234000F57030C15038BD7F23E9E70723E7E783
S2140023503F23E5E786B1020038B50D460446D8B1FE
S21400236001281BD002281BD003280CBF0323002300
S214002370EB40DB0704D440F2F9310A48FEF70DFCC7
S2140023803020012142F21003604300F18040A94052
S21400239000F57030C15038BD7F23E9E70723E7E733
S2140023A03F23E5E786B10200F8B50C4615461E4603
S2140023B0074678B301282FD002282FD0032814BF51
S2140023C000230323E340DB0704D44FF492711F4835
S2140023D0FEF7E3FB25B1214638460EB3FFF794FF20
S2140023E030237B43072C03F1804303F570331AD860
S2140023F00F205A68A100884022EA000205FA01F17F
S2140024000A435A600DBB21463846D6B1BDE8F840AF
S214002410FFF77ABF7F23D5E70723D3E73F23D1E72C
S214002420FFF79AFFDCE70F2004F18042083AD968EC
S2140024309200904021EA000105FA02F20A43DA60AF
S214002440E0E7BDE8F840FFF787BFF8BD10B102002F
S21400245041F268034FF40031054AD15041F671321B
S214002460044B0121DA6342F20C029950704700BF18
S214002470008000400000034041F67132074B012106
S214002480DA6342F20C02995000224FF40031DA630C
S21400249042F26803024AD150704700BF0000034072
S2140024A0008000404FF090435A6812B19A6A002AA2
S2140024B0FAD17047022838B505460C4603D94D2197
S2140024C00C48FEF76AFBE378627821785B0143EA02
S2140024D0820322790B4343EA02130C226A4302F179
S2140024E090421363012902BFA278034B43F82520CC
S2140024F038BD00BF72B20200E880034008B54FF056
S21400250090435A6802B960B15B680BB1FFF7CAFF27
S2140025104FF0904130B10120074B1860FFF7C2FF23
S214002520C86008BDFFF7BEFF0223CB60FFF7BAFF07
S2140025300122024B1A60F4E7041000480420004809
S2140025404FF090435B6870B50BB1FFF7ABFF01210E
S214002550104B0679196083784578002BC37814BF32
S21400256002240024002B14BF042200224379DB003F
S21400257043EA06132B43234313434FF090429360E2
S214002580054B19600378002B14BF0B460223D3605B
S21400259070BD00BF042000480410004841F26403E8
S2140025A04FF48031064AD150064B5B69C3F385125F
S2140025B0827003F03F021B0B42700370704700BF2F
S2140025C00080004000C00740014B03205B68704756
S2140025D00080E00F70B506460C46154622B940F25C
S2140025E097210C48FEF7D9FA24B94FF42070FEF76D
S2140025F0AFFC0446013C6D00B4FBF5F42402E30D89
S214002600DB0523B140F2B5210248FEF7C6FAF461B5
S21400261070BD00BFE8B202001A4B10B598420446DF
S21400262008D003F58043984204D040F25241164841
S214002630FEF7B3FA41F204030122E25040F6AA6321
S21400264041F2050263610023A360E365E26042F2A3
S21400265048020E492361E361E364A150094AA36579
S214002660944202D00A498C4207D19442236502D094
S214002670074B9C4201D10023636542F2040301220A
S214002680E25010BD00C00540E8B20200FFFF0100A6
S2140026900000064038B5304B044698420D4608D038
S2140026A003F58043984204D040F275312B48FEF77C
S2140026B074FA2046FFF7B0FF41F204030122A97B1B
S2140026C0E2502A8AA368002942F0010214BF4FF4A0
S2140026D08061002113432A7D0B43002A14BF4FF06C
S2140026E000520022A360A3681343A360AB7C5BB1D7
S2140026F0194AEB7C944227D1A2F51032C2F88C31ED
S214002700E36D43F08003E3652B7BD5E9011243F4C8
S2140027108053E3602046FFF75DFF6B7B0BB1102311
S21400272063616B7D1BB1A36843F48033A360AB7D0C
S214002730EA7D1B07120503F0E04302F4E0021343B0
S214002740A3652B78636138BD054A944204BFA2F5A1
S2140027502032C2F89C31D3E700C00540E8B2020040
S2140027600000064083695A06FCD5C16383699B0650
S214002770FCD5406AC0B2704738B50446054D20F017
S21400278089FC0FCC0FC594E8030085E80300002001
S21400279038BD00BF202B002047F6FF739A42F0B5E5
S2140027A05ED002295ED8304BCE0013F8311098194F
S2140027B00129857819460DD1C3785B1B23B1416882
S2140027C031F91310914202DCE818C0B2F0BD013BAB
S2140027D01BB2F3E740680028F8D0B0F90030934207
S2140027E004DBB0F902309342B8BF13468288FF2A52
S2140027F019BFC8242827B0F90640B0F90870A4EB22
S21400280003040CBF0122002294FBF7F414448A1937
S214002810567824B2721EA242A8BF22464FF47A7798
S21400282000EBC201CC888968013213FB041112B296
S21400283021EAE17101F5FA71B242B1FBF7F104DA6F
S21400284000EBC204A4888C42EAD200EBC20232F843
S214002850040C884228BF0846A84238BF2846B4E77A
S214002860FF20B3E70020B1E7202B00200229F0B5B7
S2140028704DD8294800EBC10510F831106B680129C6
S2140028800FD1A878E978914294BFC0EB0102C0EB63
S2140028900202091AD2B28A42C8BF002233F91200D5
S2140028A0F0BDA3B3B3F902008242F9DDE978B3F9CB
S2140028B0004091422DD969789D8897B2FF2D4FF040
S2140028C0000514BF01F1FF310239C9B20433EEB27C
S2140028D0B1424FEAC50606D903EB060CBCF808C0A1
S2140028E00135BC45F3D24FF47A714A433344B3F909
S2140028F002505B68D21A022395FBF3F31A4492FB4C
S214002900F5F2944205DB9042CADC10B2C8E70348F1
S214002910C6E72046C4E700BF202B00200080FFFF4C
S21400292008B50448FFF728FFBDE80840012020F05E
S214002930B3BB00BF60B3020007B56B46054A10681C
S214002940516803C36846FFF76FFA002003B05DF8CE
S21400295004FB00BFE4B302004FF0402213B500248E
S214002960536F684643F00103536700948DF80440A4
S214002970FFF716FA204602B010BD000070B586B00C
S21400298001AA1546114B03F110061446186859683B
S214002990083303C4B3422246F7D14FF6FF721988B4
S2140029A09B782180A3700A4B0A481B88934208BF75
S2140029B07823DBB28DF80D308DF80E30FDF7FAFF78
S2140029C02846FEF7A1FC002006B070BDECB302005E
S2140029D00001E00F00F0490208B50120FEF7F0FD07
S2140029E0002008BD1FB50B4A01AB1068516803C331
S2140029F01189927A19809A70252301A88DF80530DE
S214002A00FEF774FD6420FEF7D5FD002005B05DF8E6
S214002A1004FB00BFFFB302006FF00402502110B5A4
S214002A200A480B4C12F0800FD3B21BBF03F00F0303
S214002A30043BA3181B1802F101020CBF83F8001315
S214002A401976402AEED1002010BD00BF00ED00E050
S214002A5000E100E000F07EB838B501F077FA0446F1
S214002A60D8B901F06FFB4FF4167358430C4B00F5C2
S214002A70742000F23F20B0FBF3F02246094B0A4DCB
S214002A8018600A4B196845F8220001320A2AFAD162
S214002A9000EBC002084410441860204638BD00BF52
S214002AA040420F00742B0020442B0020402B0020B7
S214002AB08D210148FEF771B80AB40200012208B55C
S214002AC0034B1A7001F032FB024B186008BD00BFC2
S214002AD03C2B0020702B0020F8B5144C23781BB339
S214002AE001F024FB124B134D1B68134EC01A08BF8F
S214002AF00120124B124F18602B7856F8232046F808
S214002B002300111A3A680F48521A0A213A6009320D
S214002B10B2FBF1F20133DBB20260B3FBF1F201FB70
S214002B2012332B7000232370F8BD00BF3C2B00200F
S214002B30702B00206C2B0020442B0020382B00200C
S214002B40402B0020742B0020014B1868704700BFF4
S214002B50742B002020230D494FF4002081F82C33DD
S214002B6041F264030A4AD05042F27400094B0A4A02
S214002B701A5042F270001A504FF48050C1F8840187
S214002B80486041F274015A50704700BF00E100E00F
S214002B900080004000C00040010000A0054B064A2F
S214002BA01B78916DC90700D513B10028F9D170477D
S214002BB0012070478C2B002000C000402DE9F84310
S214002BC0954B1E6F9D6A9C6AF10705F0020504F09E
S214002BD0010452D542F2700201279F508F4ADFF857
S214002BE05C8292F80090B9F1000F00F0028100219B
S214002BF0117098F80020BA4200F2F68042F22802DD
S214002C0002219F5041F2280299509A6DD203FCD4BB
S214002C1083495A6B096822F470620A435A638148F2
S214002C20814A99690068126821F47F01024321F401
S214002C307F410A439A617D487D4A19691268006897
S214002C4021F47F6121F00F0102430A431A6179499A
S214002C509A69096822F0FF020A439A610222002D4F
S214002C6040F0BC8042F228015A506B4B0122002CE7
S214002C7000F0B78041F228015A5016F0005100F0DB
S214002C80858042F27003644A644FD1503A7822B18C
S214002C9040F239116848FDF780FF4FF0010C674A93
S214002CA05F49137887F800C0634413705A4B5D4F32
S214002CB05A6BDFF880E102F47060086098695A4940
S214002CC000F47F400860996901F47F0139609F69CC
S214002CD0FFB2CEF800701F69DFF854E107F47C6796
S214002CE0CEF800701F69DFF844E107F03F07CEF822
S214002CF0007042F2280743F807C041F228074FF059
S214002D00020C43F807C04FF0004C43F807C09F6D15
S214002D10FF03FCD442F228074FF0004C22F4706206
S214002D2042F40072B0F5C84F43F807C05A6302D8A1
S214002D30B1F5C80F0CD9384A41499369096823F49C
S214002D407F0323F47F4343EA012343EA014393616D
S214002D50314B3C491A69096822F47F62880822F0E0
S214002D600F02024342EA80121A619A6922F0FF02B9
S214002D700A439A610222002D42D142F228015A509B
S214002D800122002C3FD041F228015A50002E23DAAF
S214002D9042F270024FF000411F4B99502A4A1278B7
S214002DA0D2B142F228020121995041F228020221B2
S214002DB099509A6DD203FCD441F218024FF00041AC
S214002DC09950022215BB42F228015A50124B01229A
S214002DD0FCB141F228015A50BDE8F88341F22801BF
S214002DE042E742F2280147E7FFF762FE164B1F70E4
S214002DF043E7FFF771FE00F05FFE88F800903CE7BF
S214002E0041F22801BBE742F22801BEE741F2280161
S214002E10DBE742F22801DEE700C000408C2B0020F2
S214002E20902B0020882B0020842B0020802B002055
S214002E307C2B0020782B002097B402008D2B0020DE
S214002E4054100020501000208E2B0020FFF7B6BE36
S214002E5010B50446FEF732FE024B1C60FEF732FE4B
S214002E60002010BD942B002010B5FEF727FE034B64
S214002E701C68FEF727FE204610BD00BF942B0020DE
S214002E8070B50C46154610B9FFF7EEFF38B143682B
S214002E902BB12A462146BDE870400068184723201B
S214002EA070BDF7B50E4617461C4638B9FFF7DCFF6F
S214002EB004B901AC20B9232003B0F0BD03B901ACBE
S214002EC08568002DF7D023463A4631460068A84765
S214002ED0F2E741F248030421826AD15070470000AD
S214002EE038B50446826A136C5B06FCD50023216B5A
S214002EF01A4694F82E00FFF757FA0023A16B1A46DD
S214002F0094F83400FFF750FA94F84C3033B10023AD
S214002F10216C1A4694F83C00FFF746FA94F84C30B9
S214002F2033B10023A16C1A4694F84400FFF73CFA2C
S214002F300021A06A094DFEF7EDFF0021A08DFDF7E8
S214002F4099FF04F150012846FDF76AFD2B6813B976
S214002F50034800F0EDFC002038BD00BF982B002091
S214002F609C2B002010B50446806AFFF70DF841F24E
S214002F7048030121A26A0020D15010BD012910B5D6
S214002F8005D8064B1C68503C14F1500F00D110BDFC
S214002F90A06A0521FEF7BEFF246DF4E7982B0020FB
S214002FA02DE9F0431C4689B00DF110080646894607
S214002FB01746002110224046109D26F01CFD63791E
S214002FC03046002B14BF01230223CDE90233644BA5
S214002FD04A460193634B29460093634B00F01EFA62
S214002FE00646002840F08480E3880121AB856369AB
S214002FF03A20AB63237C85F83430E3682B63237A6E
S21400300085F82E30E3692B64237E85F83C30636AAE
S214003010AB6494F8203085F844302368AB62FDF743
S21400302029FF01230422E168207AFFF7BDF9012376
S21400303002226169207CFFF7B7F93E7085F84C6084
S2140030400121E088FDF716FF63790121002B53D19B
S2140030504FF4C060FDF70EFF0E21E088FEF77AFB06
S21400306039462068FFF7FEF80222404BE1681A60F6
S214003070227A42EA01421A616169227C42EA0142EE
S214003080DA602379EBB1022B8DF81030C7F81C807C
S21400309045D0032B5AD0012B60D1002795F84C3031
S2140030A043F0010385F84C3000230222E169207EBC
S2140030B0FFF77AF9E269237E43EA02432C4A53601B
S2140030C09FBB042342F2440220680521835041F24C
S2140030D048028350FEF71EFF264B1B681BB9264985
S2140030E0264800F013FC05F150012248FDF788FC45
S2140030F0304609B0BDE8F0834FF48060FDF7BAFEB5
S2140031000D21E088FEF726FB39462068FFF782F897
S21400311095F84C3043F0040385F84C30A4E795F856
S2140031204C3043F0020385F84C3000230422616AD9
S21400313094F82000FFF738F901230D4A616A1360FE
S21400314094F8203043EA01439360BAE795F84C3090
S214003150012743F0030385F84C30A5E72326C7E78D
S214003160E12E0000D32E0000652F0000C0C40340EF
S214003170C0D40340982B0020581000209C2B002021
S214003180826A38B5936C526C0446134059070ED5C4
S21400319000F0C6F9F8B1A06AFEF7F0FE0146204638
S2140031A000F0C6F942F24403A26A0421D150A36A91
S2140031B05A6CD2070ED5012542F244029D5042F2C7
S2140031C0480220469D5000F0D3F918B941F2480352
S2140031D0A26AD55038BDA26A42F24803E5E700204D
S2140031E07047FEE74FF4005300204B607047012005
S2140031F070470020704707B5002002AB43F8040D67
S214003200FFF74FFE0198002808BF4FF0FF3003B0CD
S2140032105DF804FB10B500201446FFF731FE18B128
S214003220D3210248FDF7B9FC204610BD2BB502009D
S21400323080F82010704790F82000704790F824001F
S21400324070472DE9F8430026044690461D461E604A
S2140032504F1E2B68434506D32B68002B0CBF1B2044
S2140032600020BDE8F883FEF730FCD4F81490FEF793
S21400327032FCB9F1000FEFD0E368A269D35C07F81F
S214003280013FE368E26901339342E36008BFE6600A
S214003290FEF71BFC6369013B6361FEF71CFC636879
S2140032A0204698472B6801332B60D2E72DE9F04182
S2140032B004460D46164690F82080FEF7FFFB0123D5
S2140032C094F8237084F82330FEF7FCFB2FB9154AD8
S2140032D0394694F8260000F07FFA2E44B8F1000F25
S2140032E013D0AE4213D02B780A2B03D123680D21BE
S2140032F020469847236815F8011B20469847F0E7B4
S214003300236815F8011B20469847B542F8D194F873
S2140033102600044A012100F05FFA002084F823000A
S214003320BDE8F08149B6020000280DDB0122430902
S21400333000F01F0002FA00F0044A203342F823008F
S214003340BFF34F8FBFF36F8F704700BF00E100E001
S214003350002809DB0122430900F01F0002FA00F0F2
S214003360024A603342F82300704700BF00E100E0E5
S21400337070B504460568FFF777FD844202D1002049
S214003380FFF766FD95F92100FFF7E2FF95F92100AA
S214003390FFF7CAFF95F92200FFF7DAFF95F922003A
S2140033A0FFF7C2FF00232846C4E90033A360C4E940
S2140033B00433AB68BDE87040184790F8233001220C
S2140033C03BB190F82730022B03D180F8272018460F
S2140033D070471346FBE7000038B5044690F82430E3
S2140033E00D4651B143B90A4A012190F8250000F074
S2140033F0F3F9012384F8243038BD002BFCD0044AAE
S21400340090F8250000F0E8F984F82450F4E700BFAF
S21400341049B60200036A006818470000F8B51F4660
S214003420536806460C461546002B63D09368002B5F
S21400343062D028220021204626F0DDFA6B6820465E
S214003440A361AB68E3612B7B2760012784F82030FB
S214003450069B6360079BA3602B7884F821306B780B
S21400346084F82230254B34607360254BB360254BBF
S2140034703361254B7361254BF360254B3362254B37
S21400348084F82770B361244B697BF3619DF8243080
S21400349084F8237084F826309DF8203084F8253090
S2140034A0002384F82430FFF797FF95F90100FFF713
S2140034B04FFF95F90130002B06DB5A0903F01F0376
S2140034C09F40164B43F8227095F90000FFF740FF27
S2140034D095F90030002B08DB0122590903F01F0381
S2140034E002FA03F30D4A42F821303046FFF7B0FCEB
S2140034F00020F8BD2220FCE72120FAE7AD320000CC
S21400350043320000313200003732000071330000D1
S214003510BB330000D93300003D32000000E100E07C
S2140035204269C06982422CBF00200120704700001B
S21400353038B54269C36904469A420D4604D340F240
S2140035407F110A48FDF729FB2369A269D5546269F1
S214003550236901326261E26901339342236104BF49
S21400356000232361042384F8273038BDBFB502004A
S21400357090F8231010B5044651B90123064A80F886
S214003580233090F8260000F027F9022384F827302D
S21400359094F8230010BD00BF49B60200034B1B7809
S2140035A0002B14BF01200220704700BFCC2B002048
S2140035B038B50D4C05462378FF2B05D120B140F2D7
S2140035C01E310A48FDF7E9FA23782BB925B940F2EF
S2140035D021310648FDF7E1FA002D14BF0122FF2233
S2140035E023781344237038BDCC2B002053B602003A
S2140035F0F8B506460F4603290ED8DFE801F0140298
S214003600090B0424032E1FD8DFE806F00F15181B3D
S2140036101024F7E74024F5E740F29D211248FDF715
S214003620BCFA0024EEE70124ECE744F002040F4B5A
S2140036301D687DB9F8BD44F00804F8E744F020049E
S214003640F5E744F08004F2E740F2B3210648FDF7C0
S214003650A4FAECE76B681A68144203D05B68394634
S214003660304698472D68E4E753B60200C82B002082
S214003670F8B5FEF723FA144C07462378134D83B1AA
S214003680134E33781BB100F01FFB0023337000206D
S21400369000F038FB18B10023237000F03DFB2378C0
S2140036A06BB901212878FFF7A3FF01232B702A7836
S2140036B0084B38461A70BDE8F840FEF703BA0122F8
S2140036C0054B1A70F3E700BFC62B0020BC2B00206A
S2140036D0C42B0020BD2B0020C72B00201FB50328BD
S2140036E037D8DFE800F0020A0C0C1D4C237823B113
S2140036F00020FFF75DFF0023237004B010BD03A970
S214003700002000F0DFFC0028F7D1164B039A1B6858
S2140037109A4206D80120FFF74BFF0122104B1A7081
S214003720EBE7114B1C6800F035FB241804D54FF46A
S2140037303D710E48FDF731FA03998C42EAD2002318
S2140037400222091BCDE9003209480A4A00F060FC53
S214003750D3E740F20B310548FDF71FFACDE700BF6F
S214003760D02B0020C02B0020D82B002053B6020000
S214003770A42B00207136000070B5FEF79FF9114D9E
S21400378006462A788AB900F0E1FB044620B13046A6
S214003790FEF798F9204670BD00F0D4FC0A4B18607E
S2140037A00A48FDF729F90A4B1C6000F0CBF900F037
S2140037B0EDFA084B00241860012330462B70FEF704
S2140037C081F9E7E7C52B0020D42B0020C82B00206A
S2140037D0D82B0020C02B0020F8B5451EEBB2012BDD
S2140037E00E4604D94FF4B6712248FDF7D6F9FEF717
S2140037F065F9214C0746635DFF2B05D126B14FF4D2
S214003800B8711C48FDF7C9F9635D2BB926B94FF4AA
S214003810B9711848FDF7C1F9002E14BF0122FF2226
S214003820635D13446355154C2278012A1CD9FFF7B3
S214003830B5FE8242064617D9114D2B781BB100F013
S21400384043FA00232B700F4A137843B100231370FA
S2140038500D4A0120137000F055FA00F05DFA31466B
S2140038602078FFF7C5FE26703846BDE8F840FEF71C
S21400387029B900BF53B60200CC2B0020BC2B002079
S214003880C42B0020C62B0020C72B002070B5054691
S214003890FEF714F9194C06462378FF2B05D125B1FF
S2140038A040F2B1111648FDF778F923782BB925B9FF
S2140038B04FF4DA711248FDF770F9124B1B78022BA1
S2140038C014D9C5B140F2B7110D48FDF766F90123CA
S2140038D0227830461344DBB22370B3FA83F3BDE894
S2140038E07040094A5B091370FEF7ECB8002D0CBF58
S2140038F0FF230123ECE7FF23EAE700BFCF2B0020DE
S21400390053B60200BC2B0020CE2B002038B54160F9
S2140039100446FEF7D3F8054621460448FDF770F83E
S2140039202846BDE83840FEF7CDB800BFC82B0020BB
S21400393038B50546FEF7C2F8044629460348FDF7A3
S2140039406FF82046BDE83840FEF7BCB8C82B00200C
S214003950054B1B685843054B00F5742000F23F20CA
S214003960B0FBF3F0704700BFD42B002040420F009E
S2140039702DE9F047FEF7A2F80446FCF7CBFE002838
S21400398078D0DFF828A1DFF82891554699F800305E
S2140039902BB10020FFF70CFE002389F80030FFF75C
S2140039A0FDFDFFF79BFEFFF7F9FD0128064604D94B
S2140039B0384B1B780BB900F049F99AF80000364FDF
S2140039C0B042DFF8F08008D000233B7098F8003053
S2140039D013B93146FFF70CFE2E703B7833B12B78C7
S2140039E0022B03D100233B7020F03CF8012E0CD9AB
S2140039F0284E33784BB9294B1B7823B900F05EF973
S214003A000122274B1A7001233370287800F0A2F9A0
S214003A1098F8003013B1234B1B782B7000E000BFE2
S214003A202046FEF74FF8FEF749F804461E4800F019
S214003A30C7FAFCF77AFE06460028A7D1154B387061
S214003A401A7872B1164F18703B7888F8000013B1D8
S214003A5000F03AF93E70002000F054F978B100F01A
S214003A605BF90020FFF73AFE00212878FFF7C0FD3B
S214003A7000232B702046BDE8F047FEF723B8012050
S214003A8000F068F92046FEF71DF8FEF717F8044622
S214003A90E1E700BFC62B0020CE2B0020CF2B002056
S214003AA0C42B0020BD2B0020A42B0020BC2B002004
S214003AB0D02B0020C72B002038B50A4D2B787BB1C1
S214003AC0094C237863B100F027F9084B01211878D8
S214003AD0FFF78EFD01232B700023054A2370137019
S214003AE038BD00BFBC2B0020C62B0020BD2B0020FD
S214003AF0C72B002073B5114E04463278824212D08E
S214003B0000238DF8043080B102238DF8053001A81B
S214003B10FEF73CF90A4D402054B1FFF719FF2B6819
S214003B20181A2860347002B070BD8DF80500EEE7F4
S214003B30FFF70EFF2B681844F3E700BF6010002065
S214003B40E02B0020F7B5002402A800F8044DFEF78D
S214003B5013F94FF40025204641F26404FFF7CAFF2C
S214003B60334A344B116F01F007011960D2F8203147
S214003B70D2F8240115514FF40035155102F5A03244
S214003B809269032900F0070002F0020241D003F018
S214003B9003039C1E63426341022808BF43F00103EF
S214003BA02549264C0B7062B3214A3BB9D2F8003146
S214003BB003F00303581E434243410B70D2F8003112
S214003BC003F00303022B26D0032B27D0012B28D18A
S214003BD0FCF7EAFE00271A4B0246DB68461EC3F3D4
S214003BE00B030133174803EB8301E0FB0167002357
S214003BF03046394625F0E0FCFFF7AAFE2368184455
S214003C0020606420FFF7A4FE23681844206003B0F9
S214003C10F0BD0123C0E7FCF7E9FEDBE7FCF7DAFEC0
S214003C20D8E70948D321FCF7B8FF0020D2E700BF49
S214003C3000800040F44B0020DE2B0020E02B00200C
S214003C4000C0014040420F00E2B60200FEF720B876
S214003C50074B1A7852B100221A70064A136F23F0E7
S214003C60070343F001031367FCF788BE704700BFE5
S214003C70DC2B0020008000400D4B10B51B78B3B144
S214003C80022000F0E1FB90B100F04AFA78B1094B4F
S214003C909A6DD20302D5DB6D9B0708D40124064B30
S214003CA01C70FEF70BFF41F22803024AD45010BDE9
S214003CB0DE2B002000C00040DD2B00200122014B3F
S214003CC01A707047DC2B002038B50B4B1B788BB175
S214003CD00A4D2A7862B90A4CA36DDA0302D5E36D61
S214003CE09B0707D4FEF7EAFE41F228030122E250C2
S214003CF000232B7038BD00BFDE2B0020DD2B0020FC
S214003D0000C00040034B1B780BB1FEF747BF0120F5
S214003D10704700BFDE2B002008B5FDF7BCFF0A4A3F
S214003D200A49136F096823F007030B431367084B10
S214003D301B782BB142F22803012102F58042D150B4
S214003D40BDE80840FCF71ABE00800040F44B002097
S214003D50DE2B002002280AD003280BD001280CD125
S214003D60084A136923F00403136130BF704700202C
S214003D70FDF76ABF0020FDF789BF4FF4E7710248E0
S214003D80FCF70BBF00ED00E0E2B602004FF4C8708F
S214003D90FFF7DEBD08B5054B187818B1FEF7D4FE60
S214003DA000EBD000024B1B68184408BDDE2B002039
S214003DB0E02B00200122014B1A707047DE2B0020FA
S214003DC0094B07B5986800F16043B3F5004F07D379
S214003DD00023CDE900335023044A1946FDF796FE2A
S214003DE003B05DF804FB00BF00ED00E0002C0020EF
S214003DF0104A30B5136841611546ABB91060836050
S214003E0011E0091B9C6841611A467CB123465C6937
S214003E108C42F6D9002CF4D052B19060836013B176
S214003E205A69511A596130BD0022F0E72346F4E77B
S214003E302860F3E7582D002010B500F0A5FA094BCE
S214003E40094A196831B11368C41A4B69A34203D3EF
S214003E501B1B4B61106003E0C01A002310604B610F
S214003E6010BD00BF582D0020442D002038B50F4D42
S214003E7002202B685C690E4B1B681C4400F0C0FADD
S214003E80204600F08DFA00230A492A680B70D08875
S214003E90800702D501230B7038BD9268002AFBD03C
S214003EA050690344012BF2D9F6E700BF582D0020D5
S214003EB0442D00204C2D002070B59DF81450164659
S214003EC005710025049A8560BDF818500446C58023
S214003ED00260C0E903360D4629B961610BB111468F
S214003EE0984796B13546FDF7F0FD0646FFF7A4FF66
S214003EF029462046FFF77CFF054B1B68A34201D1ED
S214003F00FFF7B4FF3046FDF7E6FD002070BD00BFAA
S214003F10582D002000210C4A13687BB183420AD139
S214003F20836879B18B6083681BB15A6941690A441A
S214003F305A610020704719469B68EEE70028EFD0CC
S214003F40022070471360EEE7582D002070B5FDF78D
S214003F50BCFD144E05463478FCB9134B1C60134B5D
S214003F601C60134B1C8000F0CBF9012000F048FACF
S214003F7000F094FA0F4B0246186020B92846FDF769
S214003F80AAFD232070BD23460B4840F2E73125F0FA
S214003F9013FB0A4B1860012333702846FDF79BFD80
S214003FA00020EFE7402D0020582D0020442D002053
S214003FB04E2D0020542D002018FCFFFF482D002019
S214003FC02DE9F0410546F8B1FDF77FFD0F4F064697
S214003FD0FFF732FF2846D7F80080FFF79BFF04461E
S214003FE028B13046FDF777FD2046BDE8F081A845AC
S214003FF03B6803D123B1FFF739FFF2E7002BF0D17E
S214004000022000F009FAECE72224EDE7582D002004
S214004010F0B50D4685B016461F46044680B1FFF73C
S214004020CFFFBDF82C30002202939DF82830294699
S214004030CDE9007320463346FFF73EFF05B0F0BDDE
S2140040402220FBE738B50C46054698B191B100230F
S2140040500B70FDF73AFD0121074B1B680BB1227868
S2140040601AB1FDF738FD002038BD9D420CBF217007
S2140040709B68F3E72220F7E7582D0020F0B51F468F
S214004080002387B00D4616468DF817300446A0B1BB
S2140040900DF11701FFF7D6FF9DF817207AB9BDF886
S2140040A03430294602939DF830302046CDE900731F
S2140040B03346FFF701FF07B0F0BD2220FBE70320E1
S2140040C0F9E70000F8B507460E46FDF7FEFC0024AB
S2140040D00546114B1B6823B92846FDF7FCFC1B2040
S2140040E015E05A691444DA88BA4213D100F04CF944
S2140040F00A4F3B68C01AA0420AD200F045F93B6856
S214004100C01A201A30602846FDF7E5FC0020F8BDEE
S2140041100020F7E79B68DEE7582D0020442D00209E
S214004120014B1878704700BF4C2D002038B5FDF7BE
S214004130CCFC054600F028F904462846FDF7CBFCE3
S214004140204638BD014B1868704700BF542D00202C
S2140041500A4B10B51B680C4683420CD3084B4FF431
S2140041607A7219680023A0FB010125F025FA0130B8
S2140041702060002010BD2120FCE700BF482D002055
S214004180542D0020104B10B51A684FF47A73A0FB1C
S2140041900301A2B1531E134211D1B2FA82F2C2F148
S2140041A01F02C2F12004A2F1200301FA04F420FA4F
S2140041B002F2224321FA03F342EA030010BD002371
S2140041C025F0FAF9FAE700BF542D0020C2072DE9C2
S2140041D0F84F04460BD53F4A138801339BB2138031
S2140041E0FFF72AFE3C4B1B680BB1FFF73FFEA30709
S2140041F06DD500F0C9F8394F00263D688046451B4E
S214004200FDF763FCB24683463246334B1C6814B156
S2140042106369AB4214D9012E314B51D1D288022AA0
S2140042204ED11E70002C4ED06369C7F800805D1B0F
S2140042306561FFF71BFE5846BDE8F84FFDF74BBC1F
S21400424023462A46C7F800805969914209D818794A
S21400425094F804C0521A844588BF1C469B68002BFD
S214004260F2D15846FDF737FCD4F814B0C4F814A0C1
S214004270FDF72BFC81462046FFF74CFE4846FDF72F
S2140042802AFC23694BB1FDF720FC814621692046B4
S214004290FFF7AEFD4846FDF71EFCE36813B1216844
S2140042A02046984700F070F8D844A5EB08058146EC
S2140042B00544FDF70AFC013683462246C846A4E7B5
S2140042C000221A70AEE7022000F0A6F8B3E7BDE8B9
S2140042D0F88F00BF4E2D0020582D0020442D0020C2
S2140042E0502D002010B5FDF7F0FB034B1C78FDF7B2
S2140042F0F2FB204610BD00BF502D00200020704766
S2140043001FB500241D4B012118689A88029053F8A7
S214004310060FADF80C201B7900903E208DF8043077
S214004320FCF7A8FD8DF80840FFF7E8FF8DF80C00B5
S21400433002A8FEF705F9694601208DF80040FEF751
S214004340B9F84FF0904340F2FF319A6922F47F7239
S21400435022F003029A610A4A11609A6A12F0080271
S214004360FBD11A620120FEF7C9F84FF48052054BC4
S214004370C3F880211A6004B010BD00BF78B70200F1
S2140043801420004800E100E04FF090439A6A1207BC
S214004390FCD4186A70474FF09043186C70470000C2
S2140043A010B502464FF09044A36A1907FCD4216A60
S2140043B0FFF7F1FF63695B0604D4431A022B01D8AA
S2140043C088420ED1531A012B98BF8A1C4FF0904397
S2140043D0B2F1FF3F28BF01321A649A6942F04002E8
S2140043E09A61064A13783BB14FF09041CB6B43F08D
S2140043F00203CB630023137010BD00BF61100020C2
S21400440082074FF0904200F00103916948BF43F0E5
S21400441040030B4393617047830700F001020AD5FF
S2140044200121084B42F0400219704FF09041CB6BCF
S21400443023F00303CB634FF090418B6923EA02031A
S2140044408B617047611000204FF0904301285B6934
S21400445004D0022805D1C3F38010704703F0010092
S214004460704700207047000010B5FDF72EFB4FF098
S214004470904304465B695A06074A03F0010003F0BE
S214004480510348BF40F002001360FFF79FFE20462E
S214004490BDE81040FDF71FBB1420004808B53E20BD
S2140044A0FCF756FD0346FFF729FF23FA00F008BD88
S2140044B008B5FCF793F8FCF7CBF8FCF7CAF8FCF75E
S2140044C0D3F8BDE80840FCF7D6B808B5FCF7D4F832
S2140044D0FCF7D3F8FCF7D2F8BDE80840FCF7D0B8F4
S2140044E010B50446FCF74AFA4FF47A73B0FBF3F0C3
S2140044F05C43074BB3FBF0F0B4FBF0F40320B4FBD3
S214004500F0F018B1BDE8104000F00AB810BD00BFCA
S21400451040420F0000000000000000000000000005
S214004520013800D0FCE7704738B50446FDF7C6FAF8
S2140045300546204625F01CFA04462846FDF7C2FA32
S214004540204638BD70B504460E46FDF7B7FA31462C
S2140045500546204625F0BAF904462846FDF7B2FA85
S214004560204670BD38B50546FDF7A8FA044628462D
S21400457025F006FA2046BDE83840FDF7A3BA00004D
S21400458030B5084C63680BB9184630BD9D692D7868
S214004590854205D15D688D4202D15D789542F3D0A3
S2140045A00834EFE7F0B702003822002125F023BADE
S2140045B010B5044658B1406B18B123689B695B6917
S2140045C098472046BDE81040382100F0CBBB10BD10
S2140045D038B505460C4659B13822002125F00BFAAD
S2140045E0A3691B699847686320B100202C6038BD1A
S2140045F00148FCE70148FAE7009FFFFF809EFFFFA7
S21400460030B40468B4B12569AD0702D46568954234
S21400461010D1012B4260037203D06578033D022D52
S21400462004D8A3699B68406B30BC184713B9A369CC
S214004630DB68F8E7014830BC704700BF009FFFFF0B
S214004640F0B40568049E15B91448F0BC7047002401
S21400465034606C69ECB195F801C0BCF1010F0BD168
S214004660A24218D13260AA6954680A46A446F0BC31
S21400467090F90810406B6047994208D1C369002B37
S214004680E2D1B2FBF4F304FB1322002ADCD1044887
S214004690DBE70448D9E70448D7E700BF009FFFFFE1
S2140046A0809FFFFF809CFFFF809DFFFF016810B585
S2140046B00446A1B100204B781060DA1E042A0DD9FA
S2140046C0092B0BD00A78483A012A07D9012B08D1C2
S2140046D0E3698342A0F5C54008BF002010BD02482C
S2140046E0FCE70248FAE700BF009FFFFF809FFFFF3E
S2140046F010B5044603F0A9FC2046BDE81040FFF7BD
S21400470031BF10B524210120FFF71CFF044608B175
S21400471003F097FC204610BD03F0B8BC03F09BBC2A
S21400472003F0B6BC2DE9F047B2F5C07FADF50A7DC3
S21400473007468846154600F29D804FF4D072002149
S21400474022A825F058F90DA803F07BFC2B0A0024BC
S2140047508DF89A30302328AE41462A4630468DF8EA
S2140047609F30ADF898408DF89B5025F020F98023B7
S214004770735523460DF1140803F808300133202B37
S214004780FAD14FF4807241460DA803F064FC04464B
S214004790002851D1064619351022002101A825F01F
S2140047A02AF9AA460DF187090DF1030309F1100154
S2140047B013F8012F19F8010F424049451A70F7D136
S2140047C001ABBAF1100F1A464FF001010DA894BFC5
S2140047D0AAEB0A0AAAF1100A03F05AFC044658BBD0
S2140047E0BAF1000FE0D116AB9819102201A925F0F6
S2140047F0DEF89DF88B3010360133302E8DF88B3076
S214004800CAD14FF4807216A90DA803F024FC044602
S21400481090B93D4607F130061EAB1A4601210DA899
S21400482003F036FC044638B9284610221EA9103577
S21400483025F0BDF8AE42EFD10DA803F006FC4FF40C
S214004840D07122A800F08EFA302116A800F08AFA5D
S2140048502021404600F086FA102101A800F082FAD6
S2140048601CB13021384600F07DFA20460DF50A7D51
S214004870BDE8F0876FF03704F7E72DE9F0418CB01C
S21400488004460E4630220021684625F0B4F84FF064
S214004890000804F120070DEB080304F1100111F8DD
S2140048A0012D0132D2B20A700AB9A142F7D12246CE
S2140048B00121384603F0ECFB0546E8B908F110087C
S2140048C0B8F1300FE7D1731E0DF1FF322F3612F814
S2140048D0011F13F8010F4140B3421170F7D14FF496
S2140048E080726946384603F0B6FB054620B91022AA
S2140048F008A9204625F05BF86846302100F032FA19
S21400490028460CB0BDE8F0812DE9F04117468269D3
S214004910E0B0B2F5C07F044688461E4644D8C2F5CD
S214004920C073B34240D3C6F5C0739B1ABB423BD399
S2140049304FF4C0720021684625F05DF8636CA269EA
S2140049406946A06C984728B16FF03305284660B0DA
S214004950BDE8F081A5693EB1636C32466946A06C3D
S21400496098470028F0D13544B8F1000F07D037B18A
S2140049700DEB05003A46414625F019F83D442A4617
S21400498069466846FFF7CEFE054638B969462046B2
S214004990FFF773FF054608B9012323614FF4C07182
S2140049A0684600F0DFF9D1E76FF03705CEE710B5BF
S2140049B04C220021044625F01EF84FF0FF332361F9
S2140049C010BD10B5044640B1203003F03EFB204633
S2140049D0BDE810404C2100F0C5B910BD0023FFF71C
S2140049E093BF2DE9F04105468846144688B020223C
S2140049F00021684605F120061F4624F0FCFF3046DD
S214004A0003F01FFBAB69C5E911840BB92023AB612A
S214004A102C69002C05DAAC692F2C8EBF00240134DB
S214004A20640842F210734FF48072EB6169463046B8
S214004A3003F011FB28B923460E9A39462846FFF79D
S214004A4063FF08B0BDE8F0812DE9F041B2F5806F54
S214004A5090B005460F4616469846169C5CD8B4F5A8
S214004A60807F5CD83022002104A824F0C4FF2A6985
S214004A70EB699A4201DC6B699BB1224641462846A7
S214004A80FFF7ACFF044620BB05F120082EBB04A9A7
S214004A902846FFF7F2FE044698B92B6901332B61CE
S214004AA00FE0002CF0D02246414604A8FFF73AFE5D
S214004AB0044630B904A92846FFF7DFFE044600285E
S214004AC0E2D0302104A800F04DF91021684600F02D
S214004AD049F9204610B0BDE8F08105F1100212F841
S214004AE0013D0133DBB213700BB9AA42F7D16B4616
S214004AF02A460121404603F0CBFA04460028E0D1BE
S214004B00102E344628BF102438462246694624F024
S214004B104EFF2744361BB9E76FF03504D9E76FF030
S214004B203704D6E7002307B50093FFF78DFF03B0E1
S214004B305DF804FB2DE9F041202B8AB080460E4636
S214004B4017461D4609D9002302AA2946384601F011
S214004B500BFE044608BB202502AFD8F800108DF8DF
S214004B6004608DF8055008F1040681B10123022285
S214004B70C8F8003001A9304603F0F0FA044660B9E0
S214004B802A463946304603F0E9FA044605E0304640
S214004B9003F0D2FA04460028E8D002A8202100F04C
S214004BA0E1F820460AB0BDE8F0812DE9F043002682
S214004BB08046044637466FF03B05B146A3B0D8F8AA
S214004BC06C309F420BDB002E08BF6FF03C0502A83E
S214004BD0802100F0C7F8284623B0BDE8F083D4F85B
S214004BE08030256F012BCDF8049001AB4FF080028A
S214004BF002A9606F08BF0126A84705460028E6D12F
S214004C00019B53B102AAF9B24046FFF793FF002872
S214004C10E2D1A36F019A1344A36701371434CEE799
S214004C2038B5002504462822C5662946703024F08B
S214004C30E2FE204640F8045B03F079FAE26E012AB1
S214004C400BDC142303FB024304492020C3E91C1594
S214004C5001210A44C3E91F01E26638BDAF670000C0
S214004C6038B504460025043003F063FAE5662821CB
S214004C7004F1700000F076F8256038BD2DE9F041AB
S214004C80202A88B006468846174667D84FF48175AE
S214004C90013D5DD0F36E002B5DD03046FFF785FFFB
S214004CA00446D8BB034632460120D6F86CE0A6453B
S214004CB03CDC0028ECD01F2BEAD9202200216846D5
S214004CC0351D24F098FE6946284603F04EFA044641
S214004CD020BB284603F02DFA284603F028FA214682
S214004CE0284603F029FA0446C0B920226946284619
S214004CF003F034FA044688B903466A46202168461B
S214004D0001F032FD044648B903461421F26E9A4279
S214004D1019DC3A466946404624F049FE202168469A
S214004D2000F020F8204608B0BDE8F081D2E91EC1A8
S214004D308C4538BF0020D2F880100134012908BF06
S214004D4063441432B3E701FB03650133A867DEE76B
S214004D506FF03B04E2E76FF03F04DFE76FF03B04E1
S214004D60E0E700000A4619B1024B00211B6818470D
S214004D70704700BF64100020B0F5885F04D00AD8E2
S214004D8041F20103984216D111F0070F14BF6FF0DD
S214004D90860000207047B0F5905FF5D0B0F5105F44
S214004DA009D121F04003802BEED0B1F5807FEBD007
S214004DB06FF0860070476FF0850070470B8813B160
S214004DC002889A420AD10B6A43B94B884BB1428893
S214004DD09A420CBF00206FF0860070476FF0860086
S214004DE0704718467047F8B51646026A0446B2423F
S214004DF00D461F460DD8C169284624F0D8FD206A06
S214004E000021321A284424F0F6FD0020236A3B6075
S214004E10F8BD6FF08900FBE737B504462379DD0758
S214004E2015D503F00605022D11D0657995420BD8ED
S214004E309B060CD401AB04F1080001F0BAF908B9DE
S214004E40019B637103B030BD6FF08900FAE76FF025
S214004E508800F7E710B4144600F0FE42B2F1C06FC7
S214004E6008BF20F47C5000F0FA42B2F1806F44D1C3
S214004E70324A904229D014D8314A904207D8013A93
S214004E80904234D22F4A904207D101221EE02E4A89
S214004E90904234D00432904231D000205DF8044B6A
S214004EA070472A4A904226D007D8294A90421CD0FA
S214004EB001329042F1D1042208E0264A904218D0EE
S214004EC001329042E9D1062200E0052242F201308A
S214004ED0814225D015D842F20200814228D042F203
S214004EE004008142D9D1092013E00322EEE7022212
S214004EF0ECE70822EAE70A22E8E7174AC3E70722B0
S214004F00E4E7B1F5105F15D042F203408142C4D108
S214004F10052003B1187021465DF8044BFFF730BB3F
S214004F20402C09D0802C4FF00400F2D1C024F0E7CA
S214004F300720EEE70220ECE70320EAE70100C004C2
S214004F4001016004004440040100800405000006DE
S214004F500200C004010040060200C00230B400F0A7
S214004F60FE45B5F1405F0BD120F0774424F47C0475
S214004F7044F00054B4F1005F02D130BC01F03FB8F9
S214004F806FF0850030BC7047814230B540D0224B70
S214004F90224A01EA0304944206D021F44034204D0C
S214004FA024F0FF04AC4218D10340934206D020F40C
S214004FB040331B4A23F0FF0393420ED110F0FF0349
S214004FC00BD0184A43F08073934206D1484030F025
S214004FD0FF030CBF0120002030BD00F0FE43B3F1FC
S214004FE0405F17D120F0774323F47C0343F000534F
S214004FF0B3F1005F0ED101F0FE43B3F1405F09D17B
S21400500001F47C0141F040510B1A58425841E3E745
S2140050100120E1E70020DFE700FFFEFF00000210AE
S21400502000000410FF0000012DE9F34188461E46EB
S214005030002302A941F8043DC8F80030174601F0E5
S2140050407FF90546C8B9019C238803F4E043B3F50D
S214005050804FE36808BF27F0010737EA030310D143
S2140050604EB131462069FFF78FFF20B9314660699F
S214005070FFF78AFF28B1C8F80040284602B0BDE80E
S214005080F0816FF08405F8E7F8B51646002204466E
S2140050900F461A601946406801F0BAF9054630BB5B
S2140050A0D4E9010101F0B6F9054600BBE36823F434
S2140050B0F85323F00303FBB94FF6F87362889A425D
S2140050C017D8238B23F00103B3B93146384601F0D5
S2140050D07FF9054658B90FCC37683E460FC694E8A8
S2140050E0070086E807003B8B23F001033B83284636
S2140050F0F8BD6FF08505FAE76FF08605F7E70279E9
S2140051001AB1D0E9071201F09BBA10467047F0B406
S2140051100488049E04F4E045B5F5805F0CD0B5F530
S214005120005F09D044F2010724F4405CBC4506D178
S214005130B5F5804F00D03EB9F0BCFFF754BE04F47E
S2140051404F44B4F5824FF3D06FF08500F0BC704743
S21400515010F17F0FBEBF404200F4FF40404210F106
S2140051606C0F4ED000F3CE8010F5874F00F06681AE
S2140051706DDC10F5A14F26D035DC10F5C34F00F0DE
S214005180728116DC10F5C64F00F0588108DC10F569
S214005190C84F4FD010F5C74F3ED16FF096007047FE
S2140051A010F5C54F76D010F5C44F35D16FF0950089
S2140051B0704710F5A54F3DD008DC10F5C24F69D0FA
S2140051C010F5C14F28D16FF08500704710F5A34F3A
S2140051D000F0498110F5A24F5CD010F5A44F1BD10A
S2140051E06FF09100704710F5994F53D017DC10F50B
S2140051F09D4FE8D008DC10F59F4F4BD010F59E4F22
S2140052000AD16FF08900704710F59C4F00F01681A8
S21400521010F59B4F00F027816FF08300704710F564
S2140052208B4F07D009DC10F5984F00F0078110F57A
S214005230974FF1D16FF09200704710F5894F00F04C
S214005240128110F5884FDCD010F58A4FBAE710F5BA
S214005250725FB8D02ADC10F5814F1BD00FDC10F53A
S214005260844F17D005DC10F5864F96D010F5854F85
S21400527092E710F5834FDDD010F5824F95E710F5D5
S2140052807A5F07D009DC10F57E5F00F0EC8010F541
S2140052907C5FC1D16FF08600704710F5765FF9D05D
S2140052A010F5745FF6D010F5785F98E710F5665F36
S2140052B089D013DC10F56C5FECD008DC10F5705F5D
S2140052C002D010F56E5FA7D16FF08400704710F51E
S2140052D06A5F3FF478AF10F5685F73E710F17A0FF6
S2140052E0A8D006DC10F5645F00F0A88010F5625FB9
S2140052F09FE710F1700F9DD010F16E0F3FF44DAF89
S21400530072305FE710F1290F94D059DC10F13A0F94
S21400531029D02BDC10F1600FBCD00EDC10F1660F2C
S214005320B8D005DC10F16A0F00F09D806830B0E759
S21400533010F1640FAED06230ABE710F1510FA9D078
S21400534008DC10F1560F79D054307FF465AF6FF05B
S2140053508800704710F1400F05D0FFF65DAF3D3076
S21400536001283FF659AF6FF09300704710F1340FE5
S214005370F9D010DC10F1370F3FF45CAF05DC10F10C
S214005380390F3FF457AF38301CE710F1360F3FF4B3
S2140053901AAF35304DE710F1310F3FF44BAF05DC57
S2140053A010F1330F3FF446AF32300BE710F12D0FFC
S2140053B03FF440AF10F12B0F3FF43CAF2F3038E7EF
S2140053C010F1130F3FF436AF25DC10F1220F0FDC7F
S2140053D010F1240FBFF6F7AE10F1270F3FF42AAFF7
S2140053E0FFF658AF10F1260F3FF4EDAE253020E75C
S2140053F010F1180F3FF4E7AE05DC10F1200F3FF474
S214005400E2AE193015E710F1160F3FF4DCAEFFF6EA
S21400541011AF14303DE710F10C0F3FF43BAF10DC3A
S21400542010F1100F1FD004DC10F1120F06D011304F
S214005430FFE60E303FF42EAF3FF72CAF6FF0940030
S2140054407047821D3FF426AF05DC10F10A0F3FF4CB
S21400545021AF0830D4E6831C3FF4C2AE00283FF4E8
S214005460DDAE043015E76FF08C007047F8B5C46900
S21400547006460F46154664B911460120FFF762F846
S214005480F06148B135622A46394624F090FA204643
S214005490F8BD6FF08A00FBE76FF08C00F8E7F7B511
S2140054A004460F46164652B1038803F4E045B5F5A8
S2140054B0805F07D0B5F5005F04D05B0419D46FF0A9
S2140054C0850014E0B6F1005F4FEAC605F7D24FF646
S2140054D0F8729542F3D829461846FFF74DFC30B9C6
S2140054E0324639462046FFF7C1FF00B9658003B053
S2140054F0F0BD448802AB43F8044D00F05CFDF6E7CF
S21400550038B50446C06910B1216AFFF72BFC0025A8
S214005510E069FFF727F8C4E9075524222946204604
S21400552024F069FA284638BD08B1FFF7E9BF70478E
S21400553013B50446C0B101A900F002FF044698B9AD
S214005540019843681B0A12D10024019B1A792AB1DC
S214005550986800F0C8FF002C08BF04460198FFF7C3
S214005560CFFF002C08BF0446204602B010BD00F056
S2140055701FFD10F1860F0446E7D1E5E7F0B51C469F
S214005580002385B00F4616462360012203A9FFF7C5
S2140055904BFDA8B9039D2060A6B123463246394686
S2140055A0284600F0D0FC10F1860F09D16B681B0A64
S2140055B006D100933246234639462846FFF7A7FD14
S2140055C005B0F0BD6FF08900FAE7F0B51D46002380
S2140055D085B00F4616462B601A4603A9FFF724FD32
S2140055E0C8B9039C286023885B0416D5C6B12B4631
S2140055F032463946204600F0AEFC10F1860F0AD13E
S21400560063681B0A07D101233246009339462B46AE
S2140056102046FFF77CFD05B0F0BD6FF08600FAE788
S2140056206FF08900F7E72DE9F3411F460023054692
S2140056308846CDE90033164662B301AB6A46394662
S214005640FFF722FD0446B8B9009843681B0A1CD031
S214005650014633464246284600F06DFC044658B9DB
S214005660009E29463046FFF7A9FB044620B930467F
S214005670FFF745FD044620B10098FFF755FF0023CD
S2140056803B80204602B0BDE8F08132464146FFF737
S21400569006FFE3E76FF08604F3E738B504680546CF
S2140056A06CB1047914F020040BD1083000F08FFDA3
S2140056B02B792C6003F0E00364F345132B7120462E
S2140056C005E01022002124F096F96FF0880038BD1E
S2140056D02DE9F743054616469946002B0CBF4FF4B6
S2140056E000624FF480622B680846002B40F0B380BF
S2140056F0334601A9FFF798FC0746002840F09E8035
S214005700584B3340B3F1207F68D1F4B244F0807434
S21400571004F17F43013B022B60D904F17F43043B35
S214005720012B5DD9504B9C425ED001339C425DD02C
S21400573001339C425CD001339C4253D001339C42DF
S21400574052D001339C4251D003339C424CD001339B
S2140057509C424BD001339C424AD001339C420CBF42
S214005760402400242B79B9F1010F03F0F2036FF304
S21400577045132B7105F10800019932463AD100F025
S214005780D9FC804618F1860FC6F3052226F47C5015
S21400579033D1019B5968090A60D12B7906F0FE4681
S2140057A043F0200361F3000361F3820361F34103D6
S2140057B061F3C30361F30413B6F1007F28602B7115
S2140057C04FF01002284614BF6FF086076FF085076B
S2140057D024F011F9384603B0BDE8F0831024C1E781
S2140057E01424BFE74024BDE71C24BBE72024B9E708
S2140057F03024B7E700F0D2FCC3E7B8F1000F2DD194
S2140058002B791A4969F304132B718E42DBB20CBF55
S21400581043F0060368F3410328606C712B71AAB14C
S214005820032A0DD96B7993420DD36A71B8F1000F34
S2140058300CD02846FFF731FF4746CBE78046F8E70F
S2140058406FF08508F5E76FF08608F2E72B7943F0EE
S21400585001032B71BEE76FF08807BBE7002ADFD194
S214005860E7E700BF0000C07F080000010100C0029B
S2140058700123FFF72DBF38B503790446D80703D4B4
S2140058806FF08805284638BD03F006000228F7D0DA
S21400589020680028F4D043F0080323719B06EFD459
S2140058A004F1080000F07CFC05460028EAD02046FB
S2140058B0FFF7F3FEE6E72DE9F04198460368044655
S2140058C00F46164623B96FF088052846BDE8F081D6
